{
  "_format": "hh-sol-artifact-1",
  "contractName": "CronosToken",
  "sourceName": "contracts/Cronies.sol",
  "abi": [
    {
      "inputs": [],
      "stateMutability": "nonpayable",
      "type": "constructor"
    },
    {
      "anonymous": false,
      "inputs": [
        {
          "indexed": true,
          "internalType": "address",
          "name": "owner",
          "type": "address"
        },
        {
          "indexed": true,
          "internalType": "address",
          "name": "approved",
          "type": "address"
        },
        {
          "indexed": true,
          "internalType": "uint256",
          "name": "tokenId",
          "type": "uint256"
        }
      ],
      "name": "Approval",
      "type": "event"
    },
    {
      "anonymous": false,
      "inputs": [
        {
          "indexed": true,
          "internalType": "address",
          "name": "owner",
          "type": "address"
        },
        {
          "indexed": true,
          "internalType": "address",
          "name": "operator",
          "type": "address"
        },
        {
          "indexed": false,
          "internalType": "bool",
          "name": "approved",
          "type": "bool"
        }
      ],
      "name": "ApprovalForAll",
      "type": "event"
    },
    {
      "anonymous": false,
      "inputs": [
        {
          "indexed": true,
          "internalType": "address",
          "name": "previousOwner",
          "type": "address"
        },
        {
          "indexed": true,
          "internalType": "address",
          "name": "newOwner",
          "type": "address"
        }
      ],
      "name": "OwnershipTransferred",
      "type": "event"
    },
    {
      "anonymous": false,
      "inputs": [
        {
          "indexed": true,
          "internalType": "address",
          "name": "from",
          "type": "address"
        },
        {
          "indexed": true,
          "internalType": "address",
          "name": "to",
          "type": "address"
        },
        {
          "indexed": true,
          "internalType": "uint256",
          "name": "tokenId",
          "type": "uint256"
        }
      ],
      "name": "Transfer",
      "type": "event"
    },
    {
      "inputs": [
        {
          "internalType": "address",
          "name": "to",
          "type": "address"
        },
        {
          "internalType": "uint256",
          "name": "tokenId",
          "type": "uint256"
        }
      ],
      "name": "approve",
      "outputs": [],
      "stateMutability": "nonpayable",
      "type": "function"
    },
    {
      "inputs": [
        {
          "internalType": "address",
          "name": "owner",
          "type": "address"
        }
      ],
      "name": "balanceOf",
      "outputs": [
        {
          "internalType": "uint256",
          "name": "",
          "type": "uint256"
        }
      ],
      "stateMutability": "view",
      "type": "function"
    },
    {
      "inputs": [
        {
          "internalType": "uint256",
          "name": "_tokenId",
          "type": "uint256"
        }
      ],
      "name": "buildImage",
      "outputs": [
        {
          "internalType": "string",
          "name": "",
          "type": "string"
        }
      ],
      "stateMutability": "view",
      "type": "function"
    },
    {
      "inputs": [
        {
          "internalType": "uint256",
          "name": "_tokenId",
          "type": "uint256"
        }
      ],
      "name": "buildMetadata",
      "outputs": [
        {
          "internalType": "string",
          "name": "",
          "type": "string"
        }
      ],
      "stateMutability": "view",
      "type": "function"
    },
    {
      "inputs": [
        {
          "internalType": "uint256",
          "name": "",
          "type": "uint256"
        }
      ],
      "name": "cronies",
      "outputs": [
        {
          "internalType": "string",
          "name": "name",
          "type": "string"
        },
        {
          "internalType": "string",
          "name": "bgHue",
          "type": "string"
        },
        {
          "internalType": "string",
          "name": "textHue",
          "type": "string"
        },
        {
          "internalType": "string",
          "name": "gradHue1",
          "type": "string"
        },
        {
          "internalType": "string",
          "name": "gradHue2",
          "type": "string"
        },
        {
          "internalType": "string",
          "name": "coinHue",
          "type": "string"
        },
        {
          "internalType": "string",
          "name": "blockNo",
          "type": "string"
        }
      ],
      "stateMutability": "view",
      "type": "function"
    },
    {
      "inputs": [
        {
          "internalType": "uint256",
          "name": "tokenId",
          "type": "uint256"
        }
      ],
      "name": "getApproved",
      "outputs": [
        {
          "internalType": "address",
          "name": "",
          "type": "address"
        }
      ],
      "stateMutability": "view",
      "type": "function"
    },
    {
      "inputs": [
        {
          "internalType": "address",
          "name": "owner",
          "type": "address"
        },
        {
          "internalType": "address",
          "name": "operator",
          "type": "address"
        }
      ],
      "name": "isApprovedForAll",
      "outputs": [
        {
          "internalType": "bool",
          "name": "",
          "type": "bool"
        }
      ],
      "stateMutability": "view",
      "type": "function"
    },
    {
      "inputs": [
        {
          "internalType": "uint256",
          "name": "_amount",
          "type": "uint256"
        }
      ],
      "name": "mint",
      "outputs": [],
      "stateMutability": "payable",
      "type": "function"
    },
    {
      "inputs": [],
      "name": "name",
      "outputs": [
        {
          "internalType": "string",
          "name": "",
          "type": "string"
        }
      ],
      "stateMutability": "view",
      "type": "function"
    },
    {
      "inputs": [],
      "name": "owner",
      "outputs": [
        {
          "internalType": "address",
          "name": "",
          "type": "address"
        }
      ],
      "stateMutability": "view",
      "type": "function"
    },
    {
      "inputs": [
        {
          "internalType": "uint256",
          "name": "tokenId",
          "type": "uint256"
        }
      ],
      "name": "ownerOf",
      "outputs": [
        {
          "internalType": "address",
          "name": "",
          "type": "address"
        }
      ],
      "stateMutability": "view",
      "type": "function"
    },
    {
      "inputs": [
        {
          "internalType": "uint256",
          "name": "_mod",
          "type": "uint256"
        },
        {
          "internalType": "uint256",
          "name": "bNumber",
          "type": "uint256"
        },
        {
          "internalType": "uint256",
          "name": "_salt",
          "type": "uint256"
        }
      ],
      "name": "randomNum",
      "outputs": [
        {
          "internalType": "uint256",
          "name": "",
          "type": "uint256"
        }
      ],
      "stateMutability": "view",
      "type": "function"
    },
    {
      "inputs": [],
      "name": "renounceOwnership",
      "outputs": [],
      "stateMutability": "nonpayable",
      "type": "function"
    },
    {
      "inputs": [
        {
          "internalType": "address",
          "name": "from",
          "type": "address"
        },
        {
          "internalType": "address",
          "name": "to",
          "type": "address"
        },
        {
          "internalType": "uint256",
          "name": "tokenId",
          "type": "uint256"
        }
      ],
      "name": "safeTransferFrom",
      "outputs": [],
      "stateMutability": "nonpayable",
      "type": "function"
    },
    {
      "inputs": [
        {
          "internalType": "address",
          "name": "from",
          "type": "address"
        },
        {
          "internalType": "address",
          "name": "to",
          "type": "address"
        },
        {
          "internalType": "uint256",
          "name": "tokenId",
          "type": "uint256"
        },
        {
          "internalType": "bytes",
          "name": "_data",
          "type": "bytes"
        }
      ],
      "name": "safeTransferFrom",
      "outputs": [],
      "stateMutability": "nonpayable",
      "type": "function"
    },
    {
      "inputs": [
        {
          "internalType": "address",
          "name": "operator",
          "type": "address"
        },
        {
          "internalType": "bool",
          "name": "approved",
          "type": "bool"
        }
      ],
      "name": "setApprovalForAll",
      "outputs": [],
      "stateMutability": "nonpayable",
      "type": "function"
    },
    {
      "inputs": [
        {
          "internalType": "bytes4",
          "name": "interfaceId",
          "type": "bytes4"
        }
      ],
      "name": "supportsInterface",
      "outputs": [
        {
          "internalType": "bool",
          "name": "",
          "type": "bool"
        }
      ],
      "stateMutability": "view",
      "type": "function"
    },
    {
      "inputs": [],
      "name": "symbol",
      "outputs": [
        {
          "internalType": "string",
          "name": "",
          "type": "string"
        }
      ],
      "stateMutability": "view",
      "type": "function"
    },
    {
      "inputs": [
        {
          "internalType": "uint256",
          "name": "index",
          "type": "uint256"
        }
      ],
      "name": "tokenByIndex",
      "outputs": [
        {
          "internalType": "uint256",
          "name": "",
          "type": "uint256"
        }
      ],
      "stateMutability": "view",
      "type": "function"
    },
    {
      "inputs": [
        {
          "internalType": "address",
          "name": "owner",
          "type": "address"
        },
        {
          "internalType": "uint256",
          "name": "index",
          "type": "uint256"
        }
      ],
      "name": "tokenOfOwnerByIndex",
      "outputs": [
        {
          "internalType": "uint256",
          "name": "",
          "type": "uint256"
        }
      ],
      "stateMutability": "view",
      "type": "function"
    },
    {
      "inputs": [
        {
          "internalType": "uint256",
          "name": "_tokenId",
          "type": "uint256"
        }
      ],
      "name": "tokenURI",
      "outputs": [
        {
          "internalType": "string",
          "name": "",
          "type": "string"
        }
      ],
      "stateMutability": "view",
      "type": "function"
    },
    {
      "inputs": [],
      "name": "totalSupply",
      "outputs": [
        {
          "internalType": "uint256",
          "name": "",
          "type": "uint256"
        }
      ],
      "stateMutability": "view",
      "type": "function"
    },
    {
      "inputs": [
        {
          "internalType": "address",
          "name": "from",
          "type": "address"
        },
        {
          "internalType": "address",
          "name": "to",
          "type": "address"
        },
        {
          "internalType": "uint256",
          "name": "tokenId",
          "type": "uint256"
        }
      ],
      "name": "transferFrom",
      "outputs": [],
      "stateMutability": "nonpayable",
      "type": "function"
    },
    {
      "inputs": [
        {
          "internalType": "address",
          "name": "newOwner",
          "type": "address"
        }
      ],
      "name": "transferOwnership",
      "outputs": [],
      "stateMutability": "nonpayable",
      "type": "function"
    },
    {
      "inputs": [],
      "name": "withdraw",
      "outputs": [],
      "stateMutability": "payable",
      "type": "function"
    }
  ],
  "bytecode": "0x60806040523480156200001157600080fd5b506040518060400160405280600781526020017f43726f6e696573000000000000000000000000000000000000000000000000008152506040518060400160405280600381526020017f434e530000000000000000000000000000000000000000000000000000000000815250816000908051906020019062000096929190620001a6565b508060019080519060200190620000af929190620001a6565b505050620000d2620000c6620000d860201b60201c565b620000e060201b60201c565b620002bb565b600033905090565b6000600a60009054906101000a900473ffffffffffffffffffffffffffffffffffffffff16905081600a60006101000a81548173ffffffffffffffffffffffffffffffffffffffff021916908373ffffffffffffffffffffffffffffffffffffffff1602179055508173ffffffffffffffffffffffffffffffffffffffff168173ffffffffffffffffffffffffffffffffffffffff167f8be0079c531659141344cd1fd0a4f28419497f9722a3daafe3b4186f6b6457e060405160405180910390a35050565b828054620001b49062000256565b90600052602060002090601f016020900481019282620001d8576000855562000224565b82601f10620001f357805160ff191683800117855562000224565b8280016001018555821562000224579182015b828111156200022357825182559160200191906001019062000206565b5b50905062000233919062000237565b5090565b5b808211156200025257600081600090555060010162000238565b5090565b600060028204905060018216806200026f57607f821691505b602082108114156200028657620002856200028c565b5b50919050565b7f4e487b7100000000000000000000000000000000000000000000000000000000600052602260045260246000fd5b615ff380620002cb6000396000f3fe6080604052600436106101665760003560e01c80636352211e116100d1578063a0712d681161008a578063c87b56dd11610064578063c87b56dd1461054c578063e985e9c514610589578063edf87704146105c6578063f2fde38b1461060357610166565b8063a0712d68146104de578063a22cb465146104fa578063b88d4fde1461052357610166565b80636352211e146103b457806370a08231146103f1578063715018a61461042e578063732d275d146104455780638da5cb5b1461048857806395d89b41146104b357610166565b80632829464011610123578063282946401461028d5780632ba80eba146102ca5780632f745c59146103075780633ccfd60b1461034457806342842e0e1461034e5780634f6ccce71461037757610166565b806301ffc9a71461016b57806306fdde03146101a8578063081812fc146101d3578063095ea7b31461021057806318160ddd1461023957806323b872dd14610264575b600080fd5b34801561017757600080fd5b50610192600480360381019061018d91906138a3565b61062c565b60405161019f91906143f7565b60405180910390f35b3480156101b457600080fd5b506101bd6106a6565b6040516101ca9190614412565b60405180910390f35b3480156101df57600080fd5b506101fa60048036038101906101f591906138f5565b610738565b6040516102079190614390565b60405180910390f35b34801561021c57600080fd5b5061023760048036038101906102329190613867565b6107bd565b005b34801561024557600080fd5b5061024e6108d5565b60405161025b9190614794565b60405180910390f35b34801561027057600080fd5b5061028b60048036038101906102869190613761565b6108e2565b005b34801561029957600080fd5b506102b460048036038101906102af919061391e565b610942565b6040516102c19190614794565b60405180910390f35b3480156102d657600080fd5b506102f160048036038101906102ec91906138f5565b61098c565b6040516102fe9190614412565b60405180910390f35b34801561031357600080fd5b5061032e60048036038101906103299190613867565b610e12565b60405161033b9190614794565b60405180910390f35b61034c610eb7565b005b34801561035a57600080fd5b5061037560048036038101906103709190613761565b610fac565b005b34801561038357600080fd5b5061039e600480360381019061039991906138f5565b610fcc565b6040516103ab9190614794565b60405180910390f35b3480156103c057600080fd5b506103db60048036038101906103d691906138f5565b611063565b6040516103e89190614390565b60405180910390f35b3480156103fd57600080fd5b50610418600480360381019061041391906136fc565b611115565b6040516104259190614794565b60405180910390f35b34801561043a57600080fd5b506104436111cd565b005b34801561045157600080fd5b5061046c600480360381019061046791906138f5565b611255565b60405161047f9796959493929190614434565b60405180910390f35b34801561049457600080fd5b5061049d61164f565b6040516104aa9190614390565b60405180910390f35b3480156104bf57600080fd5b506104c8611679565b6040516104d59190614412565b60405180910390f35b6104f860048036038101906104f391906138f5565b61170b565b005b34801561050657600080fd5b50610521600480360381019061051c919061382b565b611a91565b005b34801561052f57600080fd5b5061054a600480360381019061054591906137b0565b611c12565b005b34801561055857600080fd5b50610573600480360381019061056e91906138f5565b611c74565b6040516105809190614412565b60405180910390f35b34801561059557600080fd5b506105b060048036038101906105ab9190613725565b611cce565b6040516105bd91906143f7565b60405180910390f35b3480156105d257600080fd5b506105ed60048036038101906105e891906138f5565b611d62565b6040516105fa9190614412565b60405180910390f35b34801561060f57600080fd5b5061062a600480360381019061062591906136fc565b6121e1565b005b60007f780e9d63000000000000000000000000000000000000000000000000000000007bffffffffffffffffffffffffffffffffffffffffffffffffffffffff1916827bffffffffffffffffffffffffffffffffffffffffffffffffffffffff1916148061069f575061069e826122d9565b5b9050919050565b6060600080546106b590614a28565b80601f01602080910402602001604051908101604052809291908181526020018280546106e190614a28565b801561072e5780601f106107035761010080835404028352916020019161072e565b820191906000526020600020905b81548152906001019060200180831161071157829003601f168201915b5050505050905090565b6000610743826123bb565b610782576040517f08c379a000000000000000000000000000000000000000000000000000000000815260040161077990614674565b60405180910390fd5b6004600083815260200190815260200160002060009054906101000a900473ffffffffffffffffffffffffffffffffffffffff169050919050565b60006107c882611063565b90508073ffffffffffffffffffffffffffffffffffffffff168373ffffffffffffffffffffffffffffffffffffffff161415610839576040517f08c379a000000000000000000000000000000000000000000000000000000000815260040161083090614734565b60405180910390fd5b8073ffffffffffffffffffffffffffffffffffffffff16610858612427565b73ffffffffffffffffffffffffffffffffffffffff161480610887575061088681610881612427565b611cce565b5b6108c6576040517f08c379a00000000000000000000000000000000000000000000000000000000081526004016108bd906145b4565b60405180910390fd5b6108d0838361242f565b505050565b6000600880549050905090565b6108f36108ed612427565b826124e8565b610932576040517f08c379a000000000000000000000000000000000000000000000000000000000815260040161092990614754565b60405180910390fd5b61093d8383836125c6565b505050565b600080848440338560405160200161095c93929190614118565b6040516020818303038152906040528051906020012060001c61097f9190614b0c565b9050809150509392505050565b60606000600b60008481526020019081526020016000206040518060e00160405290816000820180546109be90614a28565b80601f01602080910402602001604051908101604052809291908181526020018280546109ea90614a28565b8015610a375780601f10610a0c57610100808354040283529160200191610a37565b820191906000526020600020905b815481529060010190602001808311610a1a57829003601f168201915b50505050508152602001600182018054610a5090614a28565b80601f0160208091040260200160405190810160405280929190818152602001828054610a7c90614a28565b8015610ac95780601f10610a9e57610100808354040283529160200191610ac9565b820191906000526020600020905b815481529060010190602001808311610aac57829003601f168201915b50505050508152602001600282018054610ae290614a28565b80601f0160208091040260200160405190810160405280929190818152602001828054610b0e90614a28565b8015610b5b5780601f10610b3057610100808354040283529160200191610b5b565b820191906000526020600020905b815481529060010190602001808311610b3e57829003601f168201915b50505050508152602001600382018054610b7490614a28565b80601f0160208091040260200160405190810160405280929190818152602001828054610ba090614a28565b8015610bed5780601f10610bc257610100808354040283529160200191610bed565b820191906000526020600020905b815481529060010190602001808311610bd057829003601f168201915b50505050508152602001600482018054610c0690614a28565b80601f0160208091040260200160405190810160405280929190818152602001828054610c3290614a28565b8015610c7f5780601f10610c5457610100808354040283529160200191610c7f565b820191906000526020600020905b815481529060010190602001808311610c6257829003601f168201915b50505050508152602001600582018054610c9890614a28565b80601f0160208091040260200160405190810160405280929190818152602001828054610cc490614a28565b8015610d115780601f10610ce657610100808354040283529160200191610d11565b820191906000526020600020905b815481529060010190602001808311610cf457829003601f168201915b50505050508152602001600682018054610d2a90614a28565b80601f0160208091040260200160405190810160405280929190818152602001828054610d5690614a28565b8015610da35780601f10610d7857610100808354040283529160200191610da3565b820191906000526020600020905b815481529060010190602001808311610d8657829003601f168201915b5050505050815250509050610e0a816020015182604001518360c0015184606001518560800151866060015187608001518860a001518960a00151604051602001610df6999897969594939291906141a5565b604051602081830303815290604052612822565b915050919050565b6000610e1d83611115565b8210610e5e576040517f08c379a0000000000000000000000000000000000000000000000000000000008152600401610e55906144d4565b60405180910390fd5b600660008473ffffffffffffffffffffffffffffffffffffffff1673ffffffffffffffffffffffffffffffffffffffff168152602001908152602001600020600083815260200190815260200160002054905092915050565b610ebf612427565b73ffffffffffffffffffffffffffffffffffffffff16610edd61164f565b73ffffffffffffffffffffffffffffffffffffffff1614610f33576040517f08c379a0000000000000000000000000000000000000000000000000000000008152600401610f2a90614694565b60405180910390fd5b60003373ffffffffffffffffffffffffffffffffffffffff1647604051610f599061437b565b60006040518083038185875af1925050503d8060008114610f96576040519150601f19603f3d011682016040523d82523d6000602084013e610f9b565b606091505b5050905080610fa957600080fd5b50565b610fc783838360405180602001604052806000815250611c12565b505050565b6000610fd66108d5565b8210611017576040517f08c379a000000000000000000000000000000000000000000000000000000000815260040161100e90614774565b60405180910390fd5b60088281548110611051577f4e487b7100000000000000000000000000000000000000000000000000000000600052603260045260246000fd5b90600052602060002001549050919050565b6000806002600084815260200190815260200160002060009054906101000a900473ffffffffffffffffffffffffffffffffffffffff169050600073ffffffffffffffffffffffffffffffffffffffff168173ffffffffffffffffffffffffffffffffffffffff16141561110c576040517f08c379a0000000000000000000000000000000000000000000000000000000008152600401611103906145f4565b60405180910390fd5b80915050919050565b60008073ffffffffffffffffffffffffffffffffffffffff168273ffffffffffffffffffffffffffffffffffffffff161415611186576040517f08c379a000000000000000000000000000000000000000000000000000000000815260040161117d906145d4565b60405180910390fd5b600360008373ffffffffffffffffffffffffffffffffffffffff1673ffffffffffffffffffffffffffffffffffffffff168152602001908152602001600020549050919050565b6111d5612427565b73ffffffffffffffffffffffffffffffffffffffff166111f361164f565b73ffffffffffffffffffffffffffffffffffffffff1614611249576040517f08c379a000000000000000000000000000000000000000000000000000000000815260040161124090614694565b60405180910390fd5b61125360006129cd565b565b600b60205280600052604060002060009150905080600001805461127890614a28565b80601f01602080910402602001604051908101604052809291908181526020018280546112a490614a28565b80156112f15780601f106112c6576101008083540402835291602001916112f1565b820191906000526020600020905b8154815290600101906020018083116112d457829003601f168201915b50505050509080600101805461130690614a28565b80601f016020809104026020016040519081016040528092919081815260200182805461133290614a28565b801561137f5780601f106113545761010080835404028352916020019161137f565b820191906000526020600020905b81548152906001019060200180831161136257829003601f168201915b50505050509080600201805461139490614a28565b80601f01602080910402602001604051908101604052809291908181526020018280546113c090614a28565b801561140d5780601f106113e25761010080835404028352916020019161140d565b820191906000526020600020905b8154815290600101906020018083116113f057829003601f168201915b50505050509080600301805461142290614a28565b80601f016020809104026020016040519081016040528092919081815260200182805461144e90614a28565b801561149b5780601f106114705761010080835404028352916020019161149b565b820191906000526020600020905b81548152906001019060200180831161147e57829003601f168201915b5050505050908060040180546114b090614a28565b80601f01602080910402602001604051908101604052809291908181526020018280546114dc90614a28565b80156115295780601f106114fe57610100808354040283529160200191611529565b820191906000526020600020905b81548152906001019060200180831161150c57829003601f168201915b50505050509080600501805461153e90614a28565b80601f016020809104026020016040519081016040528092919081815260200182805461156a90614a28565b80156115b75780601f1061158c576101008083540402835291602001916115b7565b820191906000526020600020905b81548152906001019060200180831161159a57829003601f168201915b5050505050908060060180546115cc90614a28565b80601f01602080910402602001604051908101604052809291908181526020018280546115f890614a28565b80156116455780601f1061161a57610100808354040283529160200191611645565b820191906000526020600020905b81548152906001019060200180831161162857829003601f168201915b5050505050905087565b6000600a60009054906101000a900473ffffffffffffffffffffffffffffffffffffffff16905090565b60606001805461168890614a28565b80601f01602080910402602001604051908101604052809291908181526020018280546116b490614a28565b80156117015780601f106116d657610100808354040283529160200191611701565b820191906000526020600020905b8154815290600101906020018083116116e457829003601f168201915b5050505050905090565b600581111561174f576040517f08c379a000000000000000000000000000000000000000000000000000000000815260040161174690614714565b60405180910390fd5b60008111611792576040517f08c379a000000000000000000000000000000000000000000000000000000000815260040161178990614634565b60405180910390fd5b620f42404311156117d8576040517f08c379a00000000000000000000000000000000000000000000000000000000081526004016117cf90614654565b60405180910390fd5b6117e061164f565b73ffffffffffffffffffffffffffffffffffffffff163373ffffffffffffffffffffffffffffffffffffffff161461187657600068056bc75e2d6310000090506000828261182e91906148da565b905080341015611873576040517f08c379a000000000000000000000000000000000000000000000000000000000815260040161186a906146f4565b60405180910390fd5b50505b60005b81811015611a8d57600061188b6108d5565b90506000824361189b9190614934565b905060006040518060e001604052806118bf6001866118ba9190614853565b612a93565b6040516020016118cf9190614337565b60405160208183030381529060405281526020016118f86118f36101698688610942565b612a93565b815260200161191261190d6101698644610942565b612a93565b815260200161192c6119276101698642610942565b612a93565b81526020016119466119416101698643610942565b612a93565b815260200161196061195b6101698688610942565b612a93565b815260200161196e43612a93565b815250905080600b60006001866119859190614853565b815260200190815260200160002060008201518160000190805190602001906119af929190613588565b5060208201518160010190805190602001906119cc929190613588565b5060408201518160020190805190602001906119e9929190613588565b506060820151816003019080519060200190611a06929190613588565b506080820151816004019080519060200190611a23929190613588565b5060a0820151816005019080519060200190611a40929190613588565b5060c0820151816006019080519060200190611a5d929190613588565b50905050611a7733600185611a729190614853565b612c40565b5050508080611a8590614a8b565b915050611879565b5050565b611a99612427565b73ffffffffffffffffffffffffffffffffffffffff168273ffffffffffffffffffffffffffffffffffffffff161415611b07576040517f08c379a0000000000000000000000000000000000000000000000000000000008152600401611afe90614574565b60405180910390fd5b8060056000611b14612427565b73ffffffffffffffffffffffffffffffffffffffff1673ffffffffffffffffffffffffffffffffffffffff16815260200190815260200160002060008473ffffffffffffffffffffffffffffffffffffffff1673ffffffffffffffffffffffffffffffffffffffff16815260200190815260200160002060006101000a81548160ff0219169083151502179055508173ffffffffffffffffffffffffffffffffffffffff16611bc1612427565b73ffffffffffffffffffffffffffffffffffffffff167f17307eab39ab6107e8899845ad3d59bd9653f200f220920489ca2b5937696c3183604051611c0691906143f7565b60405180910390a35050565b611c23611c1d612427565b836124e8565b611c62576040517f08c379a0000000000000000000000000000000000000000000000000000000008152600401611c5990614754565b60405180910390fd5b611c6e84848484612c5e565b50505050565b6060611c7f826123bb565b611cbe576040517f08c379a0000000000000000000000000000000000000000000000000000000008152600401611cb5906146d4565b60405180910390fd5b611cc782611d62565b9050919050565b6000600560008473ffffffffffffffffffffffffffffffffffffffff1673ffffffffffffffffffffffffffffffffffffffff16815260200190815260200160002060008373ffffffffffffffffffffffffffffffffffffffff1673ffffffffffffffffffffffffffffffffffffffff16815260200190815260200160002060009054906101000a900460ff16905092915050565b60606000600b60008481526020019081526020016000206040518060e0016040529081600082018054611d9490614a28565b80601f0160208091040260200160405190810160405280929190818152602001828054611dc090614a28565b8015611e0d5780601f10611de257610100808354040283529160200191611e0d565b820191906000526020600020905b815481529060010190602001808311611df057829003601f168201915b50505050508152602001600182018054611e2690614a28565b80601f0160208091040260200160405190810160405280929190818152602001828054611e5290614a28565b8015611e9f5780601f10611e7457610100808354040283529160200191611e9f565b820191906000526020600020905b815481529060010190602001808311611e8257829003601f168201915b50505050508152602001600282018054611eb890614a28565b80601f0160208091040260200160405190810160405280929190818152602001828054611ee490614a28565b8015611f315780601f10611f0657610100808354040283529160200191611f31565b820191906000526020600020905b815481529060010190602001808311611f1457829003601f168201915b50505050508152602001600382018054611f4a90614a28565b80601f0160208091040260200160405190810160405280929190818152602001828054611f7690614a28565b8015611fc35780601f10611f9857610100808354040283529160200191611fc3565b820191906000526020600020905b815481529060010190602001808311611fa657829003601f168201915b50505050508152602001600482018054611fdc90614a28565b80601f016020809104026020016040519081016040528092919081815260200182805461200890614a28565b80156120555780601f1061202a57610100808354040283529160200191612055565b820191906000526020600020905b81548152906001019060200180831161203857829003601f168201915b5050505050815260200160058201805461206e90614a28565b80601f016020809104026020016040519081016040528092919081815260200182805461209a90614a28565b80156120e75780601f106120bc576101008083540402835291602001916120e7565b820191906000526020600020905b8154815290600101906020018083116120ca57829003601f168201915b5050505050815260200160068201805461210090614a28565b80601f016020809104026020016040519081016040528092919081815260200182805461212c90614a28565b80156121795780601f1061214e57610100808354040283529160200191612179565b820191906000526020600020905b81548152906001019060200180831161215c57829003601f168201915b50505050508152505090506121ba81600001516121958561098c565b6040516020016121a6929190614155565b604051602081830303815290604052612822565b6040516020016121ca9190614359565b604051602081830303815290604052915050919050565b6121e9612427565b73ffffffffffffffffffffffffffffffffffffffff1661220761164f565b73ffffffffffffffffffffffffffffffffffffffff161461225d576040517f08c379a000000000000000000000000000000000000000000000000000000000815260040161225490614694565b60405180910390fd5b600073ffffffffffffffffffffffffffffffffffffffff168173ffffffffffffffffffffffffffffffffffffffff1614156122cd576040517f08c379a00000000000000000000000000000000000000000000000000000000081526004016122c490614514565b60405180910390fd5b6122d6816129cd565b50565b60007f80ac58cd000000000000000000000000000000000000000000000000000000007bffffffffffffffffffffffffffffffffffffffffffffffffffffffff1916827bffffffffffffffffffffffffffffffffffffffffffffffffffffffff191614806123a457507f5b5e139f000000000000000000000000000000000000000000000000000000007bffffffffffffffffffffffffffffffffffffffffffffffffffffffff1916827bffffffffffffffffffffffffffffffffffffffffffffffffffffffff1916145b806123b457506123b382612cba565b5b9050919050565b60008073ffffffffffffffffffffffffffffffffffffffff166002600084815260200190815260200160002060009054906101000a900473ffffffffffffffffffffffffffffffffffffffff1673ffffffffffffffffffffffffffffffffffffffff1614159050919050565b600033905090565b816004600083815260200190815260200160002060006101000a81548173ffffffffffffffffffffffffffffffffffffffff021916908373ffffffffffffffffffffffffffffffffffffffff160217905550808273ffffffffffffffffffffffffffffffffffffffff166124a283611063565b73ffffffffffffffffffffffffffffffffffffffff167f8c5be1e5ebec7d5bd14f71427d1e84f3dd0314c0f7b2291e5b200ac8c7c3b92560405160405180910390a45050565b60006124f3826123bb565b612532576040517f08c379a000000000000000000000000000000000000000000000000000000000815260040161252990614594565b60405180910390fd5b600061253d83611063565b90508073ffffffffffffffffffffffffffffffffffffffff168473ffffffffffffffffffffffffffffffffffffffff1614806125ac57508373ffffffffffffffffffffffffffffffffffffffff1661259484610738565b73ffffffffffffffffffffffffffffffffffffffff16145b806125bd57506125bc8185611cce565b5b91505092915050565b8273ffffffffffffffffffffffffffffffffffffffff166125e682611063565b73ffffffffffffffffffffffffffffffffffffffff161461263c576040517f08c379a0000000000000000000000000000000000000000000000000000000008152600401612633906146b4565b60405180910390fd5b600073ffffffffffffffffffffffffffffffffffffffff168273ffffffffffffffffffffffffffffffffffffffff1614156126ac576040517f08c379a00000000000000000000000000000000000000000000000000000000081526004016126a390614554565b60405180910390fd5b6126b7838383612d24565b6126c260008261242f565b6001600360008573ffffffffffffffffffffffffffffffffffffffff1673ffffffffffffffffffffffffffffffffffffffff16815260200190815260200160002060008282546127129190614934565b925050819055506001600360008473ffffffffffffffffffffffffffffffffffffffff1673ffffffffffffffffffffffffffffffffffffffff16815260200190815260200160002060008282546127699190614853565b92505081905550816002600083815260200190815260200160002060006101000a81548173ffffffffffffffffffffffffffffffffffffffff021916908373ffffffffffffffffffffffffffffffffffffffff160217905550808273ffffffffffffffffffffffffffffffffffffffff168473ffffffffffffffffffffffffffffffffffffffff167fddf252ad1be2c89b69c2b068fc378daa952ba7f163c4a11628f55a4df523b3ef60405160405180910390a4505050565b6060600082511415612845576040518060200160405280600081525090506129c8565b6000604051806060016040528060408152602001615f7e60409139905060006003600285516128749190614853565b61287e91906148a9565b600461288a91906148da565b9050600060208261289b9190614853565b67ffffffffffffffff8111156128da577f4e487b7100000000000000000000000000000000000000000000000000000000600052604160045260246000fd5b6040519080825280601f01601f19166020018201604052801561290c5781602001600182028036833780820191505090505b509050818152600183018586518101602084015b81831015612987576003830192508251603f8160121c1685015160f81b8252600182019150603f81600c1c1685015160f81b8252600182019150603f8160061c1685015160f81b8252600182019150603f811685015160f81b825260018201915050612920565b6003895106600181146129a157600281146129b1576129bc565b613d3d60f01b60028303526129bc565b603d60f81b60018303525b50505050508093505050505b919050565b6000600a60009054906101000a900473ffffffffffffffffffffffffffffffffffffffff16905081600a60006101000a81548173ffffffffffffffffffffffffffffffffffffffff021916908373ffffffffffffffffffffffffffffffffffffffff1602179055508173ffffffffffffffffffffffffffffffffffffffff168173ffffffffffffffffffffffffffffffffffffffff167f8be0079c531659141344cd1fd0a4f28419497f9722a3daafe3b4186f6b6457e060405160405180910390a35050565b60606000821415612adb576040518060400160405280600181526020017f30000000000000000000000000000000000000000000000000000000000000008152509050612c3b565b600082905060005b60008214612b0d578080612af690614a8b565b915050600a82612b0691906148a9565b9150612ae3565b60008167ffffffffffffffff811115612b4f577f4e487b7100000000000000000000000000000000000000000000000000000000600052604160045260246000fd5b6040519080825280601f01601f191660200182016040528015612b815781602001600182028036833780820191505090505b5090505b60008514612c3457600182612b9a9190614934565b9150600a85612ba99190614b0c565b6030612bb59190614853565b60f81b818381518110612bf1577f4e487b7100000000000000000000000000000000000000000000000000000000600052603260045260246000fd5b60200101907effffffffffffffffffffffffffffffffffffffffffffffffffffffffffffff1916908160001a905350600a85612c2d91906148a9565b9450612b85565b8093505050505b919050565b612c5a828260405180602001604052806000815250612e38565b5050565b612c698484846125c6565b612c7584848484612e93565b612cb4576040517f08c379a0000000000000000000000000000000000000000000000000000000008152600401612cab906144f4565b60405180910390fd5b50505050565b60007f01ffc9a7000000000000000000000000000000000000000000000000000000007bffffffffffffffffffffffffffffffffffffffffffffffffffffffff1916827bffffffffffffffffffffffffffffffffffffffffffffffffffffffff1916149050919050565b612d2f83838361302a565b600073ffffffffffffffffffffffffffffffffffffffff168373ffffffffffffffffffffffffffffffffffffffff161415612d7257612d6d8161302f565b612db1565b8173ffffffffffffffffffffffffffffffffffffffff168373ffffffffffffffffffffffffffffffffffffffff1614612db057612daf8382613078565b5b5b600073ffffffffffffffffffffffffffffffffffffffff168273ffffffffffffffffffffffffffffffffffffffff161415612df457612def816131e5565b612e33565b8273ffffffffffffffffffffffffffffffffffffffff168273ffffffffffffffffffffffffffffffffffffffff1614612e3257612e318282613328565b5b5b505050565b612e4283836133a7565b612e4f6000848484612e93565b612e8e576040517f08c379a0000000000000000000000000000000000000000000000000000000008152600401612e85906144f4565b60405180910390fd5b505050565b6000612eb48473ffffffffffffffffffffffffffffffffffffffff16613575565b1561301d578373ffffffffffffffffffffffffffffffffffffffff1663150b7a02612edd612427565b8786866040518563ffffffff1660e01b8152600401612eff94939291906143ab565b602060405180830381600087803b158015612f1957600080fd5b505af1925050508015612f4a57506040513d601f19601f82011682018060405250810190612f4791906138cc565b60015b612fcd573d8060008114612f7a576040519150601f19603f3d011682016040523d82523d6000602084013e612f7f565b606091505b50600081511415612fc5576040517f08c379a0000000000000000000000000000000000000000000000000000000008152600401612fbc906144f4565b60405180910390fd5b805181602001fd5b63150b7a0260e01b7bffffffffffffffffffffffffffffffffffffffffffffffffffffffff1916817bffffffffffffffffffffffffffffffffffffffffffffffffffffffff191614915050613022565b600190505b949350505050565b505050565b6008805490506009600083815260200190815260200160002081905550600881908060018154018082558091505060019003906000526020600020016000909190919091505550565b6000600161308584611115565b61308f9190614934565b9050600060076000848152602001908152602001600020549050818114613174576000600660008673ffffffffffffffffffffffffffffffffffffffff1673ffffffffffffffffffffffffffffffffffffffff168152602001908152602001600020600084815260200190815260200160002054905080600660008773ffffffffffffffffffffffffffffffffffffffff1673ffffffffffffffffffffffffffffffffffffffff168152602001908152602001600020600084815260200190815260200160002081905550816007600083815260200190815260200160002081905550505b6007600084815260200190815260200160002060009055600660008573ffffffffffffffffffffffffffffffffffffffff1673ffffffffffffffffffffffffffffffffffffffff16815260200190815260200160002060008381526020019081526020016000206000905550505050565b600060016008805490506131f99190614934565b905060006009600084815260200190815260200160002054905060006008838154811061324f577f4e487b7100000000000000000000000000000000000000000000000000000000600052603260045260246000fd5b906000526020600020015490508060088381548110613297577f4e487b7100000000000000000000000000000000000000000000000000000000600052603260045260246000fd5b90600052602060002001819055508160096000838152602001908152602001600020819055506009600085815260200190815260200160002060009055600880548061330c577f4e487b7100000000000000000000000000000000000000000000000000000000600052603160045260246000fd5b6001900381819060005260206000200160009055905550505050565b600061333383611115565b905081600660008573ffffffffffffffffffffffffffffffffffffffff1673ffffffffffffffffffffffffffffffffffffffff168152602001908152602001600020600083815260200190815260200160002081905550806007600084815260200190815260200160002081905550505050565b600073ffffffffffffffffffffffffffffffffffffffff168273ffffffffffffffffffffffffffffffffffffffff161415613417576040517f08c379a000000000000000000000000000000000000000000000000000000000815260040161340e90614614565b60405180910390fd5b613420816123bb565b15613460576040517f08c379a000000000000000000000000000000000000000000000000000000000815260040161345790614534565b60405180910390fd5b61346c60008383612d24565b6001600360008473ffffffffffffffffffffffffffffffffffffffff1673ffffffffffffffffffffffffffffffffffffffff16815260200190815260200160002060008282546134bc9190614853565b92505081905550816002600083815260200190815260200160002060006101000a81548173ffffffffffffffffffffffffffffffffffffffff021916908373ffffffffffffffffffffffffffffffffffffffff160217905550808273ffffffffffffffffffffffffffffffffffffffff16600073ffffffffffffffffffffffffffffffffffffffff167fddf252ad1be2c89b69c2b068fc378daa952ba7f163c4a11628f55a4df523b3ef60405160405180910390a45050565b600080823b905060008111915050919050565b82805461359490614a28565b90600052602060002090601f0160209004810192826135b657600085556135fd565b82601f106135cf57805160ff19168380011785556135fd565b828001600101855582156135fd579182015b828111156135fc5782518255916020019190600101906135e1565b5b50905061360a919061360e565b5090565b5b8082111561362757600081600090555060010161360f565b5090565b600061363e613639846147d4565b6147af565b90508281526020810184848401111561365657600080fd5b6136618482856149e6565b509392505050565b60008135905061367881615f21565b92915050565b60008135905061368d81615f38565b92915050565b6000813590506136a281615f4f565b92915050565b6000815190506136b781615f4f565b92915050565b600082601f8301126136ce57600080fd5b81356136de84826020860161362b565b91505092915050565b6000813590506136f681615f66565b92915050565b60006020828403121561370e57600080fd5b600061371c84828501613669565b91505092915050565b6000806040838503121561373857600080fd5b600061374685828601613669565b925050602061375785828601613669565b9150509250929050565b60008060006060848603121561377657600080fd5b600061378486828701613669565b935050602061379586828701613669565b92505060406137a6868287016136e7565b9150509250925092565b600080600080608085870312156137c657600080fd5b60006137d487828801613669565b94505060206137e587828801613669565b93505060406137f6878288016136e7565b925050606085013567ffffffffffffffff81111561381357600080fd5b61381f878288016136bd565b91505092959194509250565b6000806040838503121561383e57600080fd5b600061384c85828601613669565b925050602061385d8582860161367e565b9150509250929050565b6000806040838503121561387a57600080fd5b600061388885828601613669565b9250506020613899858286016136e7565b9150509250929050565b6000602082840312156138b557600080fd5b60006138c384828501613693565b91505092915050565b6000602082840312156138de57600080fd5b60006138ec848285016136a8565b91505092915050565b60006020828403121561390757600080fd5b6000613915848285016136e7565b91505092915050565b60008060006060848603121561393357600080fd5b6000613941868287016136e7565b9350506020613952868287016136e7565b9250506040613963868287016136e7565b9150509250925092565b61397681614968565b82525050565b61398d61398882614968565b614ad4565b82525050565b61399c8161497a565b82525050565b6139b36139ae82614986565b614ae6565b82525050565b60006139c482614805565b6139ce818561481b565b93506139de8185602086016149f5565b6139e781614bf9565b840191505092915050565b60006139fd82614810565b613a078185614837565b9350613a178185602086016149f5565b613a2081614bf9565b840191505092915050565b6000613a3682614810565b613a408185614848565b9350613a508185602086016149f5565b80840191505092915050565b6000613a69600983614848565b9150613a7482614c17565b600982019050919050565b6000613a8c602b83614837565b9150613a9782614c40565b604082019050919050565b6000613aaf603283614837565b9150613aba82614c8f565b604082019050919050565b6000613ad2607b83614848565b9150613add82614cde565b607b82019050919050565b6000613af5602683614837565b9150613b0082614d79565b604082019050919050565b6000613b18601c83614837565b9150613b2382614dc8565b602082019050919050565b6000613b3b602483614837565b9150613b4682614df1565b604082019050919050565b6000613b5e601983614837565b9150613b6982614e40565b602082019050919050565b6000613b81607683614848565b9150613b8c82614e69565b607682019050919050565b6000613ba4607383614848565b9150613baf82614f04565b607382019050919050565b6000613bc7601683614848565b9150613bd282614f9f565b601682019050919050565b6000613bea606383614848565b9150613bf582614fc8565b606382019050919050565b6000613c0d602c83614837565b9150613c1882615063565b604082019050919050565b6000613c30600a83614848565b9150613c3b826150b2565b600a82019050919050565b6000613c546101b183614848565b9150613c5f826150db565b6101b182019050919050565b6000613c78603283614848565b9150613c83826152f8565b603282019050919050565b6000613c9b603b83614848565b9150613ca682615347565b603b82019050919050565b6000613cbe603883614837565b9150613cc982615396565b604082019050919050565b6000613ce26101a683614848565b9150613ced826153e5565b6101a682019050919050565b6000613d06602a83614837565b9150613d1182615602565b604082019050919050565b6000613d29602983614837565b9150613d3482615651565b604082019050919050565b6000613d4c600b83614848565b9150613d57826156a0565b600b82019050919050565b6000613d6f600e83614848565b9150613d7a826156c9565b600e82019050919050565b6000613d92600283614848565b9150613d9d826156f2565b600282019050919050565b6000613db5600783614848565b9150613dc08261571b565b600782019050919050565b6000613dd8600e83614848565b9150613de382615744565b600e82019050919050565b6000613dfb603783614848565b9150613e068261576d565b603782019050919050565b6000613e1e602083614837565b9150613e29826157bc565b602082019050919050565b6000613e41600783614837565b9150613e4c826157e5565b602082019050919050565b6000613e64600e83614837565b9150613e6f8261580e565b602082019050919050565b6000613e87602c83614837565b9150613e9282615837565b604082019050919050565b6000613eaa602083614837565b9150613eb582615886565b602082019050919050565b6000613ecd60d283614848565b9150613ed8826158af565b60d282019050919050565b6000613ef0602983614837565b9150613efb826159bc565b604082019050919050565b6000613f13602f83614837565b9150613f1e82615a0b565b604082019050919050565b6000613f36602183614848565b9150613f4182615a5a565b602182019050919050565b6000613f59600e83614837565b9150613f6482615aa9565b602082019050919050565b6000613f7c600883614837565b9150613f8782615ad2565b602082019050919050565b6000613f9f602183614837565b9150613faa82615afb565b604082019050919050565b6000613fc2601d83614848565b9150613fcd82615b4a565b601d82019050919050565b6000613fe560008361482c565b9150613ff082615b73565b600082019050919050565b6000614008603183614837565b915061401382615b76565b604082019050919050565b600061402b602c83614837565b915061403682615bc5565b604082019050919050565b600061404e602c83614848565b915061405982615c14565b602c82019050919050565b6000614071600e83614848565b915061407c82615c63565b600e82019050919050565b60006140956101a183614848565b91506140a082615c8c565b6101a182019050919050565b60006140b9603a83614848565b91506140c482615ea9565b603a82019050919050565b60006140dc601a83614848565b91506140e782615ef8565b601a82019050919050565b6140fb816149dc565b82525050565b61411261410d826149dc565b614b02565b82525050565b600061412482866139a2565b602082019150614134828561397c565b6014820191506141448284614101565b602082019150819050949350505050565b600061416082613a5c565b915061416c8285613a2b565b915061417782613c23565b9150614182826140cf565b915061418e8284613a2b565b915061419982613d85565b91508190509392505050565b60006141b082613bdd565b91506141bb82613c8e565b91506141c7828c613a2b565b91506141d282614064565b91506141dd82613c46565b91506141e882614087565b91506141f382613cd4565b91506141fe82613ec0565b915061420982613dee565b9150614215828b613a2b565b9150614220826140ac565b915061422c828a613a2b565b915061423782613da8565b915061424282613ac5565b915061424d82613bba565b91506142598289613a2b565b915061426482613d62565b915061426f82613f29565b915061427b8288613a2b565b915061428682613c6b565b915061429182613b97565b915061429c82613bba565b91506142a88287613a2b565b91506142b382613d62565b91506142be82613f29565b91506142ca8286613a2b565b91506142d582613c6b565b91506142e082613b74565b91506142eb82613bba565b91506142f78285613a2b565b915061430282613dcb565b915061430d82613f29565b91506143198284613a2b565b915061432482614041565b91508190509a9950505050505050505050565b600061434282613d3f565b915061434e8284613a2b565b915081905092915050565b600061436482613fb5565b91506143708284613a2b565b915081905092915050565b600061438682613fd8565b9150819050919050565b60006020820190506143a5600083018461396d565b92915050565b60006080820190506143c0600083018761396d565b6143cd602083018661396d565b6143da60408301856140f2565b81810360608301526143ec81846139b9565b905095945050505050565b600060208201905061440c6000830184613993565b92915050565b6000602082019050818103600083015261442c81846139f2565b905092915050565b600060e082019050818103600083015261444e818a6139f2565b9050818103602083015261446281896139f2565b9050818103604083015261447681886139f2565b9050818103606083015261448a81876139f2565b9050818103608083015261449e81866139f2565b905081810360a08301526144b281856139f2565b905081810360c08301526144c681846139f2565b905098975050505050505050565b600060208201905081810360008301526144ed81613a7f565b9050919050565b6000602082019050818103600083015261450d81613aa2565b9050919050565b6000602082019050818103600083015261452d81613ae8565b9050919050565b6000602082019050818103600083015261454d81613b0b565b9050919050565b6000602082019050818103600083015261456d81613b2e565b9050919050565b6000602082019050818103600083015261458d81613b51565b9050919050565b600060208201905081810360008301526145ad81613c00565b9050919050565b600060208201905081810360008301526145cd81613cb1565b9050919050565b600060208201905081810360008301526145ed81613cf9565b9050919050565b6000602082019050818103600083015261460d81613d1c565b9050919050565b6000602082019050818103600083015261462d81613e11565b9050919050565b6000602082019050818103600083015261464d81613e34565b9050919050565b6000602082019050818103600083015261466d81613e57565b9050919050565b6000602082019050818103600083015261468d81613e7a565b9050919050565b600060208201905081810360008301526146ad81613e9d565b9050919050565b600060208201905081810360008301526146cd81613ee3565b9050919050565b600060208201905081810360008301526146ed81613f06565b9050919050565b6000602082019050818103600083015261470d81613f4c565b9050919050565b6000602082019050818103600083015261472d81613f6f565b9050919050565b6000602082019050818103600083015261474d81613f92565b9050919050565b6000602082019050818103600083015261476d81613ffb565b9050919050565b6000602082019050818103600083015261478d8161401e565b9050919050565b60006020820190506147a960008301846140f2565b92915050565b60006147b96147ca565b90506147c58282614a5a565b919050565b6000604051905090565b600067ffffffffffffffff8211156147ef576147ee614bca565b5b6147f882614bf9565b9050602081019050919050565b600081519050919050565b600081519050919050565b600082825260208201905092915050565b600081905092915050565b600082825260208201905092915050565b600081905092915050565b600061485e826149dc565b9150614869836149dc565b9250827fffffffffffffffffffffffffffffffffffffffffffffffffffffffffffffffff0382111561489e5761489d614b3d565b5b828201905092915050565b60006148b4826149dc565b91506148bf836149dc565b9250826148cf576148ce614b6c565b5b828204905092915050565b60006148e5826149dc565b91506148f0836149dc565b9250817fffffffffffffffffffffffffffffffffffffffffffffffffffffffffffffffff048311821515161561492957614928614b3d565b5b828202905092915050565b600061493f826149dc565b915061494a836149dc565b92508282101561495d5761495c614b3d565b5b828203905092915050565b6000614973826149bc565b9050919050565b60008115159050919050565b6000819050919050565b60007fffffffff0000000000000000000000000000000000000000000000000000000082169050919050565b600073ffffffffffffffffffffffffffffffffffffffff82169050919050565b6000819050919050565b82818337600083830152505050565b60005b83811015614a135780820151818401526020810190506149f8565b83811115614a22576000848401525b50505050565b60006002820490506001821680614a4057607f821691505b60208210811415614a5457614a53614b9b565b5b50919050565b614a6382614bf9565b810181811067ffffffffffffffff82111715614a8257614a81614bca565b5b80604052505050565b6000614a96826149dc565b91507fffffffffffffffffffffffffffffffffffffffffffffffffffffffffffffffff821415614ac957614ac8614b3d565b5b600182019050919050565b6000614adf82614af0565b9050919050565b6000819050919050565b6000614afb82614c0a565b9050919050565b6000819050919050565b6000614b17826149dc565b9150614b22836149dc565b925082614b3257614b31614b6c565b5b828206905092915050565b7f4e487b7100000000000000000000000000000000000000000000000000000000600052601160045260246000fd5b7f4e487b7100000000000000000000000000000000000000000000000000000000600052601260045260246000fd5b7f4e487b7100000000000000000000000000000000000000000000000000000000600052602260045260246000fd5b7f4e487b7100000000000000000000000000000000000000000000000000000000600052604160045260246000fd5b6000601f19601f8301169050919050565b60008160601b9050919050565b7f7b226e616d65223a220000000000000000000000000000000000000000000000600082015250565b7f455243373231456e756d657261626c653a206f776e657220696e646578206f7560008201527f74206f6620626f756e6473000000000000000000000000000000000000000000602082015250565b7f4552433732313a207472616e7366657220746f206e6f6e20455243373231526560008201527f63656976657220696d706c656d656e7465720000000000000000000000000000602082015250565b7f3c646566733e3c6c696e6561724772616469656e742069643d227061696e743060008201527f5f6c696e656172222078313d223131362e323138222079313d222d37322e323660208201527f39222078323d222d33302e3036222079323d223138362e31343722206772616460408201527f69656e74556e6974733d227573657253706163654f6e557365223e0000000000606082015250565b7f4f776e61626c653a206e6577206f776e657220697320746865207a65726f206160008201527f6464726573730000000000000000000000000000000000000000000000000000602082015250565b7f4552433732313a20746f6b656e20616c7265616479206d696e74656400000000600082015250565b7f4552433732313a207472616e7366657220746f20746865207a65726f2061646460008201527f7265737300000000000000000000000000000000000000000000000000000000602082015250565b7f4552433732313a20617070726f766520746f2063616c6c657200000000000000600082015250565b7f3c6c696e6561724772616469656e742069643d227061696e74325f6c696e656160008201527f72222078313d223133352e393035222079313d2239332e36303032222078323d60208201527f2239302e34313138222079323d223137332e35353422206772616469656e745560408201527f6e6974733d227573657253706163654f6e557365223e00000000000000000000606082015250565b7f3c6c696e6561724772616469656e742069643d227061696e74315f6c696e656160008201527f72222078313d223132352e3834222079313d22372e3639323732222078323d2260208201527f32382e333232222079323d223137392e393722206772616469656e74556e697460408201527f733d227573657253706163654f6e557365223e00000000000000000000000000606082015250565b7f3c73746f702073746f702d636f6c6f723d2268736c2800000000000000000000600082015250565b7f3c7376672077696474683d2232393522206865696768743d223335302220766960008201527f6577426f783d223020302032393520333530222066696c6c3d226e6f6e65222060208201527f786d6c6e733d22687474703a2f2f7777772e77332e6f72672f323030302f737660408201527f67223e0000000000000000000000000000000000000000000000000000000000606082015250565b7f4552433732313a206f70657261746f7220717565727920666f72206e6f6e657860008201527f697374656e7420746f6b656e0000000000000000000000000000000000000000602082015250565b7f2c22696d616765223a2200000000000000000000000000000000000000000000600082015250565b7f3c70617468206f7061636974793d22302e352220643d224d3237322e3930382060008201527f3233312e3836433237322e393038203233372e333138203237302e323233203260208201527f34322e323339203236352e343738203234342e3734344c3135342e323033203360408201527f30382e393838433134392e353438203331312e363732203134332e383139203360608201527f31312e363732203133392e343332203330382e3938384c32372e38383838203260808201527f34342e3734344332332e34313237203234322e3233392032302e34353835203260a08201527f33372e3331382032302e34353835203233312e3836563130332e33373343323060c08201527f2e343538352039382e313833312032332e343132372039332e3236322032372e60e08201527f383838382039302e343838324c3133392e3433322032362e32343436433134336101008201527f2e3831392032332e35363034203134392e3534382032332e35363034203135346101208201527f2e3230332032362e323434364c3236352e3437382039302e34383832433237306101408201527f2e3232332039332e323632203237322e3930382039382e31383331203237322e6101608201527f393038203130332e333733563233312e38365a222066696c6c3d2275726c28236101808201527f7061696e74305f6c696e65617229222f3e0000000000000000000000000000006101a082015250565b7f2c203732252c2038392529222073746f702d6f7061636974793d22302e32222f60008201527f3e3c2f6c696e6561724772616469656e743e0000000000000000000000000000602082015250565b7f3c726563742077696474683d223130302522206865696768743d22313030252260008201527f2072783d223125222072793d223125222066696c6c3d2268736c280000000000602082015250565b7f4552433732313a20617070726f76652063616c6c6572206973206e6f74206f7760008201527f6e6572206e6f7220617070726f76656420666f7220616c6c0000000000000000602082015250565b7f3c7061746820643d224d3138342e323536203138372e393335433138342e323560008201527f36203138392e363238203138332e343237203139312e313534203138312e393660208201527f33203139312e3933314c3134372e363236203231312e383539433134362e313960408201527f203231322e363931203134342e343232203231322e363931203134332e30363860608201527f203231312e3835394c3130382e363439203139312e393331433130372e32363860808201527f203139312e313534203130362e333536203138392e363238203130362e33353660a08201527f203138372e393335563134382e303831433130362e333536203134362e34373160c08201527f203130372e323638203134342e393435203130382e363439203134342e30383460e08201527f4c3134332e303638203132342e313537433134342e343232203132332e3332356101008201527f203134362e3139203132332e333235203134372e363236203132342e3135374c6101208201527f3138312e393633203134342e303834433138332e343237203134342e393435206101408201527f3138342e323536203134362e343731203138342e323536203134382e303831566101608201527f3138372e3933355a222066696c6c3d2275726c28237061696e74325f6c696e656101808201527f617229222f3e00000000000000000000000000000000000000000000000000006101a082015250565b7f4552433732313a2062616c616e636520717565727920666f7220746865207a6560008201527f726f206164647265737300000000000000000000000000000000000000000000602082015250565b7f4552433732313a206f776e657220717565727920666f72206e6f6e657869737460008201527f656e7420746f6b656e0000000000000000000000000000000000000000000000602082015250565b7f43726f6e6965204e6f2e20000000000000000000000000000000000000000000600082015250565b7f2c203936252c2035322529222f3e000000000000000000000000000000000000600082015250565b7f227d000000000000000000000000000000000000000000000000000000000000600082015250565b7f3c2f746578743e00000000000000000000000000000000000000000000000000600082015250565b7f2c203734252c2031302529222f3e000000000000000000000000000000000000600082015250565b7f3c7465787420783d2233252220793d223938252220666f6e742d66616d696c7960008201527f3d226d6f6e6f7370616365222066696c6c3d2268736c28000000000000000000602082015250565b7f4552433732313a206d696e7420746f20746865207a65726f2061646472657373600082015250565b7f746f6f2066657700000000000000000000000000000000000000000000000000600082015250565b7f73616c652068617320656e646564000000000000000000000000000000000000600082015250565b7f4552433732313a20617070726f76656420717565727920666f72206e6f6e657860008201527f697374656e7420746f6b656e0000000000000000000000000000000000000000602082015250565b7f4f776e61626c653a2063616c6c6572206973206e6f7420746865206f776e6572600082015250565b7f3c7061746820643d224d3137312e303731203138332e3031314c3134362e303060008201527f39203139384c3132302e393236203138332e303131563135332e3031314c313460208201527f362e303039203133384c3137312e303731203135332e3031314c3136302e363360408201527f39203135392e3235364c3134362e303039203135302e3439314c3133312e333760608201527f39203135392e323536563137362e3734344c3134362e303039203138352e353060808201527f394c3136302e363339203137362e3734344c3137312e303731203138332e303160a08201527f315a222066696c6c3d227768697465222f3e000000000000000000000000000060c082015250565b7f4552433732313a207472616e73666572206f6620746f6b656e2074686174206960008201527f73206e6f74206f776e0000000000000000000000000000000000000000000000602082015250565b7f4552433732314d657461646174613a2055524920717565727920666f72206e6f60008201527f6e6578697374656e7420746f6b656e0000000000000000000000000000000000602082015250565b7f3c73746f70206f66667365743d2231222073746f702d636f6c6f723d2268736c60008201527f2800000000000000000000000000000000000000000000000000000000000000602082015250565b7f73686f7274206f6e2066756e6473000000000000000000000000000000000000600082015250565b7f746f6f206d616e79000000000000000000000000000000000000000000000000600082015250565b7f4552433732313a20617070726f76616c20746f2063757272656e74206f776e6560008201527f7200000000000000000000000000000000000000000000000000000000000000602082015250565b7f646174613a6170706c69636174696f6e2f6a736f6e3b6261736536342c000000600082015250565b50565b7f4552433732313a207472616e736665722063616c6c6572206973206e6f74206f60008201527f776e6572206e6f7220617070726f766564000000000000000000000000000000602082015250565b7f455243373231456e756d657261626c653a20676c6f62616c20696e646578206f60008201527f7574206f6620626f756e64730000000000000000000000000000000000000000602082015250565b7f2c203739252c2031342529222f3e3c2f6c696e6561724772616469656e743e3c60008201527f2f646566733e3c2f7376673e0000000000000000000000000000000000000000602082015250565b7f2c203737252c2031332529222f3e000000000000000000000000000000000000600082015250565b7f3c7061746820643d224d3233302e333031203231302e343435433233302e333060008201527f31203231342e303834203232382e3531203231372e333635203232352e33343760208201527f203231392e3033354c3135312e313634203236312e383634433134382e30363160408201527f203236332e363534203134342e323431203236332e363534203134312e33313760608201527f203236312e3836344c36362e39353435203231392e3033354336332e3937303460808201527f203231372e3336352036322e303031203231342e3038342036322e303031203260a08201527f31302e343435563132342e3738374336322e303031203132312e33323720363360c08201527f2e39373034203131382e3034372036362e39353435203131362e3139384c313460e08201527f312e3331372037332e33363835433134342e3234312037312e353739203134386101008201527f2e3036312037312e353739203135312e3136342037332e333638354c3232352e6101208201527f333437203131362e313938433232382e3531203131382e303437203233302e336101408201527f3031203132312e333237203233302e333031203132342e373837563231302e346101608201527f34355a222066696c6c3d2275726c28237061696e74315f6c696e65617229222f6101808201527f3e000000000000000000000000000000000000000000000000000000000000006101a082015250565b7f2c20313030252c20383025292220746578742d616e63686f723d226c6566742260008201527f20666f6e742d73697a653d223131223e426c6f636b204e6f2e20000000000000602082015250565b7f646174613a696d6167652f7376672b786d6c3b6261736536342c000000000000600082015250565b615f2a81614968565b8114615f3557600080fd5b50565b615f418161497a565b8114615f4c57600080fd5b50565b615f5881614990565b8114615f6357600080fd5b50565b615f6f816149dc565b8114615f7a57600080fd5b5056fe4142434445464748494a4b4c4d4e4f505152535455565758595a6162636465666768696a6b6c6d6e6f707172737475767778797a303132333435363738392b2fa26469706673582212204e80e6b3c8e6a74201aca8e620ed34d875377730995f3ca45cb3e27811b805ae64736f6c63430008040033",
  "linkReferences": {},
  "deployedLinkReferences": {}
}