{
  "_format": "hh-sol-artifact-1",
  "contractName": "CrazyScientists",
  "sourceName": "contracts/drops/CrazyScientists.sol",
  "abi": [
    {
      "inputs": [
        {
          "internalType": "address",
          "name": "_memberships",
          "type": "address"
        },
        {
          "internalType": "address",
          "name": "_artist",
          "type": "address"
        },
        {
          "internalType": "uint16[]",
          "name": "_order",
          "type": "uint16[]"
        }
      ],
      "stateMutability": "nonpayable",
      "type": "constructor"
    },
    {
      "anonymous": false,
      "inputs": [
        {
          "indexed": true,
          "internalType": "address",
          "name": "owner",
          "type": "address"
        },
        {
          "indexed": true,
          "internalType": "address",
          "name": "approved",
          "type": "address"
        },
        {
          "indexed": true,
          "internalType": "uint256",
          "name": "tokenId",
          "type": "uint256"
        }
      ],
      "name": "Approval",
      "type": "event"
    },
    {
      "anonymous": false,
      "inputs": [
        {
          "indexed": true,
          "internalType": "address",
          "name": "owner",
          "type": "address"
        },
        {
          "indexed": true,
          "internalType": "address",
          "name": "operator",
          "type": "address"
        },
        {
          "indexed": false,
          "internalType": "bool",
          "name": "approved",
          "type": "bool"
        }
      ],
      "name": "ApprovalForAll",
      "type": "event"
    },
    {
      "anonymous": false,
      "inputs": [
        {
          "indexed": true,
          "internalType": "address",
          "name": "previousOwner",
          "type": "address"
        },
        {
          "indexed": true,
          "internalType": "address",
          "name": "newOwner",
          "type": "address"
        }
      ],
      "name": "OwnershipTransferred",
      "type": "event"
    },
    {
      "anonymous": false,
      "inputs": [
        {
          "indexed": false,
          "internalType": "address",
          "name": "account",
          "type": "address"
        }
      ],
      "name": "Paused",
      "type": "event"
    },
    {
      "anonymous": false,
      "inputs": [
        {
          "indexed": true,
          "internalType": "address",
          "name": "from",
          "type": "address"
        },
        {
          "indexed": true,
          "internalType": "address",
          "name": "to",
          "type": "address"
        },
        {
          "indexed": true,
          "internalType": "uint256",
          "name": "tokenId",
          "type": "uint256"
        }
      ],
      "name": "Transfer",
      "type": "event"
    },
    {
      "anonymous": false,
      "inputs": [
        {
          "indexed": false,
          "internalType": "address",
          "name": "account",
          "type": "address"
        }
      ],
      "name": "Unpaused",
      "type": "event"
    },
    {
      "inputs": [],
      "name": "_tokenIdCounter",
      "outputs": [
        {
          "internalType": "uint256",
          "name": "_value",
          "type": "uint256"
        }
      ],
      "stateMutability": "view",
      "type": "function"
    },
    {
      "inputs": [
        {
          "internalType": "address[]",
          "name": "_addresses",
          "type": "address[]"
        }
      ],
      "name": "addWhiteList",
      "outputs": [],
      "stateMutability": "nonpayable",
      "type": "function"
    },
    {
      "inputs": [
        {
          "internalType": "address",
          "name": "to",
          "type": "address"
        },
        {
          "internalType": "uint256",
          "name": "tokenId",
          "type": "uint256"
        }
      ],
      "name": "approve",
      "outputs": [],
      "stateMutability": "nonpayable",
      "type": "function"
    },
    {
      "inputs": [],
      "name": "artist",
      "outputs": [
        {
          "internalType": "address",
          "name": "",
          "type": "address"
        }
      ],
      "stateMutability": "view",
      "type": "function"
    },
    {
      "inputs": [
        {
          "internalType": "address",
          "name": "owner",
          "type": "address"
        }
      ],
      "name": "balanceOf",
      "outputs": [
        {
          "internalType": "uint256",
          "name": "",
          "type": "uint256"
        }
      ],
      "stateMutability": "view",
      "type": "function"
    },
    {
      "inputs": [
        {
          "internalType": "address",
          "name": "",
          "type": "address"
        }
      ],
      "name": "canMint",
      "outputs": [
        {
          "internalType": "uint256",
          "name": "",
          "type": "uint256"
        }
      ],
      "stateMutability": "pure",
      "type": "function"
    },
    {
      "inputs": [
        {
          "internalType": "uint256",
          "name": "tokenId",
          "type": "uint256"
        }
      ],
      "name": "getApproved",
      "outputs": [
        {
          "internalType": "address",
          "name": "",
          "type": "address"
        }
      ],
      "stateMutability": "view",
      "type": "function"
    },
    {
      "inputs": [],
      "name": "getInfo",
      "outputs": [
        {
          "components": [
            {
              "internalType": "uint256",
              "name": "regularCost",
              "type": "uint256"
            },
            {
              "internalType": "uint256",
              "name": "memberCost",
              "type": "uint256"
            },
            {
              "internalType": "uint256",
              "name": "whitelistCost",
              "type": "uint256"
            },
            {
              "internalType": "uint256",
              "name": "maxSupply",
              "type": "uint256"
            },
            {
              "internalType": "uint256",
              "name": "totalSupply",
              "type": "uint256"
            },
            {
              "internalType": "uint256",
              "name": "maxMintPerAddress",
              "type": "uint256"
            },
            {
              "internalType": "uint256",
              "name": "maxMintPerTx",
              "type": "uint256"
            }
          ],
          "internalType": "struct Info",
          "name": "",
          "type": "tuple"
        }
      ],
      "stateMutability": "view",
      "type": "function"
    },
    {
      "inputs": [
        {
          "internalType": "address",
          "name": "owner",
          "type": "address"
        },
        {
          "internalType": "address",
          "name": "operator",
          "type": "address"
        }
      ],
      "name": "isApprovedForAll",
      "outputs": [
        {
          "internalType": "bool",
          "name": "",
          "type": "bool"
        }
      ],
      "stateMutability": "view",
      "type": "function"
    },
    {
      "inputs": [
        {
          "internalType": "address",
          "name": "_address",
          "type": "address"
        }
      ],
      "name": "isMember",
      "outputs": [
        {
          "internalType": "bool",
          "name": "",
          "type": "bool"
        }
      ],
      "stateMutability": "view",
      "type": "function"
    },
    {
      "inputs": [
        {
          "internalType": "address",
          "name": "_address",
          "type": "address"
        }
      ],
      "name": "isWhiteList",
      "outputs": [
        {
          "internalType": "bool",
          "name": "",
          "type": "bool"
        }
      ],
      "stateMutability": "view",
      "type": "function"
    },
    {
      "inputs": [],
      "name": "maxSupply",
      "outputs": [
        {
          "internalType": "uint256",
          "name": "",
          "type": "uint256"
        }
      ],
      "stateMutability": "pure",
      "type": "function"
    },
    {
      "inputs": [],
      "name": "memberships",
      "outputs": [
        {
          "internalType": "contract ERC1155",
          "name": "",
          "type": "address"
        }
      ],
      "stateMutability": "view",
      "type": "function"
    },
    {
      "inputs": [
        {
          "internalType": "uint256",
          "name": "_amount",
          "type": "uint256"
        }
      ],
      "name": "mint",
      "outputs": [],
      "stateMutability": "payable",
      "type": "function"
    },
    {
      "inputs": [
        {
          "internalType": "address",
          "name": "_minter",
          "type": "address"
        }
      ],
      "name": "mintCost",
      "outputs": [
        {
          "internalType": "uint256",
          "name": "",
          "type": "uint256"
        }
      ],
      "stateMutability": "view",
      "type": "function"
    },
    {
      "inputs": [],
      "name": "name",
      "outputs": [
        {
          "internalType": "string",
          "name": "",
          "type": "string"
        }
      ],
      "stateMutability": "view",
      "type": "function"
    },
    {
      "inputs": [],
      "name": "owner",
      "outputs": [
        {
          "internalType": "address",
          "name": "",
          "type": "address"
        }
      ],
      "stateMutability": "view",
      "type": "function"
    },
    {
      "inputs": [
        {
          "internalType": "uint256",
          "name": "tokenId",
          "type": "uint256"
        }
      ],
      "name": "ownerOf",
      "outputs": [
        {
          "internalType": "address",
          "name": "",
          "type": "address"
        }
      ],
      "stateMutability": "view",
      "type": "function"
    },
    {
      "inputs": [],
      "name": "pause",
      "outputs": [],
      "stateMutability": "nonpayable",
      "type": "function"
    },
    {
      "inputs": [],
      "name": "paused",
      "outputs": [
        {
          "internalType": "bool",
          "name": "",
          "type": "bool"
        }
      ],
      "stateMutability": "view",
      "type": "function"
    },
    {
      "inputs": [
        {
          "internalType": "address",
          "name": "dest",
          "type": "address"
        }
      ],
      "name": "payments",
      "outputs": [
        {
          "internalType": "uint256",
          "name": "",
          "type": "uint256"
        }
      ],
      "stateMutability": "view",
      "type": "function"
    },
    {
      "inputs": [
        {
          "internalType": "address",
          "name": "_address",
          "type": "address"
        }
      ],
      "name": "removeWhiteList",
      "outputs": [],
      "stateMutability": "nonpayable",
      "type": "function"
    },
    {
      "inputs": [],
      "name": "renounceOwnership",
      "outputs": [],
      "stateMutability": "nonpayable",
      "type": "function"
    },
    {
      "inputs": [
        {
          "internalType": "address",
          "name": "from",
          "type": "address"
        },
        {
          "internalType": "address",
          "name": "to",
          "type": "address"
        },
        {
          "internalType": "uint256",
          "name": "tokenId",
          "type": "uint256"
        }
      ],
      "name": "safeTransferFrom",
      "outputs": [],
      "stateMutability": "nonpayable",
      "type": "function"
    },
    {
      "inputs": [
        {
          "internalType": "address",
          "name": "from",
          "type": "address"
        },
        {
          "internalType": "address",
          "name": "to",
          "type": "address"
        },
        {
          "internalType": "uint256",
          "name": "tokenId",
          "type": "uint256"
        },
        {
          "internalType": "bytes",
          "name": "_data",
          "type": "bytes"
        }
      ],
      "name": "safeTransferFrom",
      "outputs": [],
      "stateMutability": "nonpayable",
      "type": "function"
    },
    {
      "inputs": [
        {
          "internalType": "address",
          "name": "operator",
          "type": "address"
        },
        {
          "internalType": "bool",
          "name": "approved",
          "type": "bool"
        }
      ],
      "name": "setApprovalForAll",
      "outputs": [],
      "stateMutability": "nonpayable",
      "type": "function"
    },
    {
      "inputs": [
        {
          "internalType": "string",
          "name": "_baseURI",
          "type": "string"
        }
      ],
      "name": "setBaseURI",
      "outputs": [],
      "stateMutability": "nonpayable",
      "type": "function"
    },
    {
      "inputs": [
        {
          "internalType": "uint256",
          "name": "_cost",
          "type": "uint256"
        },
        {
          "internalType": "bool",
          "name": "isMember",
          "type": "bool"
        }
      ],
      "name": "setCost",
      "outputs": [],
      "stateMutability": "nonpayable",
      "type": "function"
    },
    {
      "inputs": [
        {
          "internalType": "bytes4",
          "name": "interfaceId",
          "type": "bytes4"
        }
      ],
      "name": "supportsInterface",
      "outputs": [
        {
          "internalType": "bool",
          "name": "",
          "type": "bool"
        }
      ],
      "stateMutability": "view",
      "type": "function"
    },
    {
      "inputs": [],
      "name": "symbol",
      "outputs": [
        {
          "internalType": "string",
          "name": "",
          "type": "string"
        }
      ],
      "stateMutability": "view",
      "type": "function"
    },
    {
      "inputs": [
        {
          "internalType": "uint256",
          "name": "index",
          "type": "uint256"
        }
      ],
      "name": "tokenByIndex",
      "outputs": [
        {
          "internalType": "uint256",
          "name": "",
          "type": "uint256"
        }
      ],
      "stateMutability": "view",
      "type": "function"
    },
    {
      "inputs": [
        {
          "internalType": "address",
          "name": "owner",
          "type": "address"
        },
        {
          "internalType": "uint256",
          "name": "index",
          "type": "uint256"
        }
      ],
      "name": "tokenOfOwnerByIndex",
      "outputs": [
        {
          "internalType": "uint256",
          "name": "",
          "type": "uint256"
        }
      ],
      "stateMutability": "view",
      "type": "function"
    },
    {
      "inputs": [
        {
          "internalType": "uint256",
          "name": "_tokenId",
          "type": "uint256"
        }
      ],
      "name": "tokenURI",
      "outputs": [
        {
          "internalType": "string",
          "name": "",
          "type": "string"
        }
      ],
      "stateMutability": "view",
      "type": "function"
    },
    {
      "inputs": [],
      "name": "totalSupply",
      "outputs": [
        {
          "internalType": "uint256",
          "name": "",
          "type": "uint256"
        }
      ],
      "stateMutability": "view",
      "type": "function"
    },
    {
      "inputs": [
        {
          "internalType": "address",
          "name": "from",
          "type": "address"
        },
        {
          "internalType": "address",
          "name": "to",
          "type": "address"
        },
        {
          "internalType": "uint256",
          "name": "tokenId",
          "type": "uint256"
        }
      ],
      "name": "transferFrom",
      "outputs": [],
      "stateMutability": "nonpayable",
      "type": "function"
    },
    {
      "inputs": [
        {
          "internalType": "address",
          "name": "newOwner",
          "type": "address"
        }
      ],
      "name": "transferOwnership",
      "outputs": [],
      "stateMutability": "nonpayable",
      "type": "function"
    },
    {
      "inputs": [],
      "name": "unpause",
      "outputs": [],
      "stateMutability": "nonpayable",
      "type": "function"
    },
    {
      "inputs": [],
      "name": "withdraw",
      "outputs": [],
      "stateMutability": "nonpayable",
      "type": "function"
    },
    {
      "inputs": [
        {
          "internalType": "address payable",
          "name": "payee",
          "type": "address"
        }
      ],
      "name": "withdrawPayments",
      "outputs": [],
      "stateMutability": "nonpayable",
      "type": "function"
    }
  ],
  "bytecode": "0x600e80546001600160801b0319166109c417905568148bae7bf8d10c00006011556815a13cc201e4dc0000601255681741922b0f82940000601355610100604052603560a0818152906200400460c03980516200006591601591602090910190620009fe565b503480156200007357600080fd5b506040516200403938038062004039833981016040819052620000969162000b88565b604080518082018252601081526f4372617a7920536369656e746973747360801b60208083019182528351808501909452600984526814d0d25153951254d560ba1b908401528151919291620000ef91600091620009fe565b50805162000105906001906020840190620009fe565b505050620001226200011c620001df60201b60201c565b620001e3565b604051620001309062000a8d565b604051809103906000f0801580156200014d573d6000803e3d6000fd5b5060601b6001600160601b031916608052600a805460ff60a01b191690556001600b55600c80546001600160a01b03199081166001600160a01b0386811691909117909255600d80549091169184169190911790558051620001b790600f90602084019062000a9b565b50600e80546001600160801b0319166103e8179055620001d662000235565b50505062000dea565b3390565b600a80546001600160a01b038381166001600160a01b0319831681179093556040519116919082907f8be0079c531659141344cd1fd0a4f28419497f9722a3daafe3b4186f6b6457e090600090a35050565b60005b603c8110156200026e57600d5462000259906001600160a01b031662000271565b80620002658162000da0565b91505062000238565b50565b60006200028a60106200033960201b620013a11760201c565b90506103e88110620002cf5760405162461bcd60e51b8152602060048201526009602482015268736f6c64206f75742160b81b60448201526064015b60405180910390fd5b620002e660106200033d60201b620013a51760201c565b6200033582600f83815481106200030d57634e487b7160e01b600052603260045260246000fd5b60009182526020909120601082040154600f9091166002026101000a900461ffff1662000346565b5050565b5490565b80546001019055565b620003358282604051806020016040528060008152506200036860201b60201c565b620003748383620003e0565b62000383600084848462000536565b620003db5760405162461bcd60e51b8152602060048201526032602482015260008051602062003fe483398151915260448201527131b2b4bb32b91034b6b83632b6b2b73a32b960711b6064820152608401620002c6565b505050565b6001600160a01b038216620004385760405162461bcd60e51b815260206004820181905260248201527f4552433732313a206d696e7420746f20746865207a65726f20616464726573736044820152606401620002c6565b6000818152600260205260409020546001600160a01b0316156200049f5760405162461bcd60e51b815260206004820152601c60248201527f4552433732313a20746f6b656e20616c7265616479206d696e746564000000006044820152606401620002c6565b620004ad600083836200069f565b6001600160a01b0382166000908152600360205260408120805460019290620004d890849062000d2e565b909155505060008181526002602052604080822080546001600160a01b0319166001600160a01b03861690811790915590518392907fddf252ad1be2c89b69c2b068fc378daa952ba7f163c4a11628f55a4df523b3ef908290a45050565b600062000557846001600160a01b0316620006b760201b620013ae1760201c565b156200069357604051630a85bd0160e11b81526001600160a01b0385169063150b7a02906200059190339089908890889060040162000cb5565b602060405180830381600087803b158015620005ac57600080fd5b505af1925050508015620005df575060408051601f3d908101601f19168201909252620005dc9181019062000c84565b60015b62000678573d80801562000610576040519150601f19603f3d011682016040523d82523d6000602084013e62000615565b606091505b508051620006705760405162461bcd60e51b8152602060048201526032602482015260008051602062003fe483398151915260448201527131b2b4bb32b91034b6b83632b6b2b73a32b960711b6064820152608401620002c6565b805181602001fd5b6001600160e01b031916630a85bd0160e11b14905062000697565b5060015b949350505050565b620003db838383620006bd60201b620013b41760201c565b3b151590565b620006d5838383620003db60201b620009501760201c565b6001600160a01b03831662000733576200072d81600880546000838152600960205260408120829055600182018355919091527ff3f7a9fe364faab93b216da50a3214154f22a0a2b415b23a84c8169e8b636ee30155565b62000759565b816001600160a01b0316836001600160a01b031614620007595762000759838262000799565b6001600160a01b0382166200077357620003db8162000846565b826001600160a01b0316826001600160a01b031614620003db57620003db828262000924565b60006001620007b3846200097560201b62000dbd1760201c565b620007bf919062000d49565b60008381526007602052604090205490915080821462000813576001600160a01b03841660009081526006602090815260408083208584528252808320548484528184208190558352600790915290208190555b5060009182526007602090815260408084208490556001600160a01b039094168352600681528383209183525290812055565b6008546000906200085a9060019062000d49565b600083815260096020526040812054600880549394509092849081106200089157634e487b7160e01b600052603260045260246000fd5b906000526020600020015490508060088381548110620008c157634e487b7160e01b600052603260045260246000fd5b60009182526020808320909101929092558281526009909152604080822084905585825281205560088054806200090857634e487b7160e01b600052603160045260246000fd5b6001900381819060005260206000200160009055905550505050565b60006200093c836200097560201b62000dbd1760201c565b6001600160a01b039093166000908152600660209081526040808320868452825280832085905593825260079052919091209190915550565b60006001600160a01b038216620009e25760405162461bcd60e51b815260206004820152602a60248201527f4552433732313a2062616c616e636520717565727920666f7220746865207a65604482015269726f206164647265737360b01b6064820152608401620002c6565b506001600160a01b031660009081526003602052604090205490565b82805462000a0c9062000d63565b90600052602060002090601f01602090048101928262000a30576000855562000a7b565b82601f1062000a4b57805160ff191683800117855562000a7b565b8280016001018555821562000a7b579182015b8281111562000a7b57825182559160200191906001019062000a5e565b5062000a8992915062000b41565b5090565b6105ef80620039f583390190565b82805482825590600052602060002090600f0160109004810192821562000a7b5791602002820160005b8382111562000b0757835183826101000a81548161ffff021916908361ffff160217905550926020019260020160208160010104928301926001030262000ac5565b801562000b375782816101000a81549061ffff021916905560020160208160010104928301926001030262000b07565b505062000a899291505b5b8082111562000a89576000815560010162000b42565b80516001600160a01b038116811462000b7057600080fd5b919050565b805161ffff8116811462000b7057600080fd5b60008060006060848603121562000b9d578283fd5b62000ba88462000b58565b9250602062000bb981860162000b58565b60408601519093506001600160401b038082111562000bd6578384fd5b818701915087601f83011262000bea578384fd5b81518181111562000bff5762000bff62000dd4565b8060051b604051601f19603f8301168101818110858211171562000c275762000c2762000dd4565b604052828152858101935084860182860187018c101562000c46578788fd5b8795505b8386101562000c735762000c5e8162000b75565b85526001959095019493860193860162000c4a565b508096505050505050509250925092565b60006020828403121562000c96578081fd5b81516001600160e01b03198116811462000cae578182fd5b9392505050565b600060018060a01b0380871683526020818716818501528560408501526080606085015284519150816080850152825b8281101562000d035785810182015185820160a00152810162000ce5565b8281111562000d15578360a084870101525b5050601f01601f19169190910160a00195945050505050565b6000821982111562000d445762000d4462000dbe565b500190565b60008282101562000d5e5762000d5e62000dbe565b500390565b600181811c9082168062000d7857607f821691505b6020821081141562000d9a57634e487b7160e01b600052602260045260246000fd5b50919050565b600060001982141562000db75762000db762000dbe565b5060010190565b634e487b7160e01b600052601160045260246000fd5b634e487b7160e01b600052604160045260246000fd5b60805160601c612bde62000e176000396000818161128d015281816117c00152611c900152612bde6000f3fe6080604052600436106102255760003560e01c806370a0823111610123578063a230c524116100ab578063d5abeb011161006f578063d5abeb011461062b578063e2982c2114610640578063e985e9c514610660578063f2fde38b146106a9578063f99031a7146106c957600080fd5b8063a230c5241461058a578063b88d4fde146105aa578063b88fe6a3146105ca578063c2ba4744146105ea578063c87b56dd1461060b57600080fd5b80638da5cb5b116100f25780638da5cb5b1461050457806395d037271461052257806395d89b4114610542578063a0712d6814610557578063a22cb4651461056a57600080fd5b806370a08231146104a3578063715018a6146104c35780638456cb59146104d857806384c4bd4b146104ed57600080fd5b806331b3eb94116101b15780634f6ccce7116101755780634f6ccce71461040457806355f804b3146104245780635c975abb146104445780635e1045ec146104635780636352211e1461048357600080fd5b806331b3eb941461037a5780633ccfd60b1461039a5780633f4ba83a146103af57806342842e0e146103c457806343bc1612146103e457600080fd5b806318160ddd116101f857806318160ddd146102db5780632042e5c2146102fa57806323b872dd1461031a5780632acc659e1461033a5780632f745c591461035a57600080fd5b806301ffc9a71461022a57806306fdde031461025f578063081812fc14610281578063095ea7b3146102b9575b600080fd5b34801561023657600080fd5b5061024a610245366004612708565b610702565b60405190151581526020015b60405180910390f35b34801561026b57600080fd5b50610274610713565b6040516102569190612927565b34801561028d57600080fd5b506102a161029c366004612786565b6107a5565b6040516001600160a01b039091168152602001610256565b3480156102c557600080fd5b506102d96102d4366004612629565b61083f565b005b3480156102e757600080fd5b506008545b604051908152602001610256565b34801561030657600080fd5b506102d96103153660046124e4565b610955565b34801561032657600080fd5b506102d9610335366004612538565b6109c4565b34801561034657600080fd5b506102ec6103553660046124e4565b6109f5565b34801561036657600080fd5b506102ec610375366004612629565b610a41565b34801561038657600080fd5b506102d96103953660046124e4565b610ad7565b3480156103a657600080fd5b506102d9610b40565b3480156103bb57600080fd5b506102d9610b76565b3480156103d057600080fd5b506102d96103df366004612538565b610ba8565b3480156103f057600080fd5b50600d546102a1906001600160a01b031681565b34801561041057600080fd5b506102ec61041f366004612786565b610bc3565b34801561043057600080fd5b506102d961043f366004612740565b610c64565b34801561045057600080fd5b50600a54600160a01b900460ff1661024a565b34801561046f57600080fd5b506102d961047e366004612654565b610ca5565b34801561048f57600080fd5b506102a161049e366004612786565b610d46565b3480156104af57600080fd5b506102ec6104be3660046124e4565b610dbd565b3480156104cf57600080fd5b506102d9610e44565b3480156104e457600080fd5b506102d9610e78565b3480156104f957600080fd5b506010546102ec9081565b34801561051057600080fd5b50600a546001600160a01b03166102a1565b34801561052e57600080fd5b506102d961053d3660046127b6565b610eaa565b34801561054e57600080fd5b50610274610ee6565b6102d9610565366004612786565b610ef5565b34801561057657600080fd5b506102d96105853660046125f5565b61105d565b34801561059657600080fd5b5061024a6105a53660046124e4565b611068565b3480156105b657600080fd5b506102d96105c5366004612578565b61117f565b3480156105d657600080fd5b50600c546102a1906001600160a01b031681565b3480156105f657600080fd5b506102ec6106053660046124e4565b50600590565b34801561061757600080fd5b50610274610626366004612786565b6111b7565b34801561063757600080fd5b506103e86102ec565b34801561064c57600080fd5b506102ec61065b3660046124e4565b61126b565b34801561066c57600080fd5b5061024a61067b366004612500565b6001600160a01b03918216600090815260056020908152604080832093909416825291909152205460ff1690565b3480156106b557600080fd5b506102d96106c43660046124e4565b611309565b3480156106d557600080fd5b5061024a6106e43660046124e4565b6001600160a01b031660009081526014602052604090205460ff1690565b600061070d8261146c565b92915050565b60606000805461072290612ad1565b80601f016020809104026020016040519081016040528092919081815260200182805461074e90612ad1565b801561079b5780601f106107705761010080835404028352916020019161079b565b820191906000526020600020905b81548152906001019060200180831161077e57829003601f168201915b5050505050905090565b6000818152600260205260408120546001600160a01b03166108235760405162461bcd60e51b815260206004820152602c60248201527f4552433732313a20617070726f76656420717565727920666f72206e6f6e657860448201526b34b9ba32b73a103a37b5b2b760a11b60648201526084015b60405180910390fd5b506000908152600460205260409020546001600160a01b031690565b600061084a82610d46565b9050806001600160a01b0316836001600160a01b031614156108b85760405162461bcd60e51b815260206004820152602160248201527f4552433732313a20617070726f76616c20746f2063757272656e74206f776e656044820152603960f91b606482015260840161081a565b336001600160a01b03821614806108d457506108d4813361067b565b6109465760405162461bcd60e51b815260206004820152603860248201527f4552433732313a20617070726f76652063616c6c6572206973206e6f74206f7760448201527f6e6572206e6f7220617070726f76656420666f7220616c6c0000000000000000606482015260840161081a565b6109508383611491565b505050565b600a546001600160a01b0316331461097f5760405162461bcd60e51b815260040161081a9061298c565b6001600160a01b03811660009081526014602052604090205460ff16156109c1576001600160a01b0381166000908152601460205260409020805460ff191690555b50565b6109ce33826114ff565b6109ea5760405162461bcd60e51b815260040161081a906129c1565b6109508383836115f6565b6001600160a01b03811660009081526014602052604081205460ff1615610a1e57505060115490565b610a2782611068565b15610a3457505060125490565b505060135490565b919050565b6000610a4c83610dbd565b8210610aae5760405162461bcd60e51b815260206004820152602b60248201527f455243373231456e756d657261626c653a206f776e657220696e646578206f7560448201526a74206f6620626f756e647360a81b606482015260840161081a565b506001600160a01b03919091166000908152600660209081526040808320938352929052205490565b6002600b541415610b2a5760405162461bcd60e51b815260206004820152601f60248201527f5265656e7472616e637947756172643a207265656e7472616e742063616c6c00604482015260640161081a565b6002600b55610b38816117a1565b506001600b55565b600a546001600160a01b03163314610b6a5760405162461bcd60e51b815260040161081a9061298c565b610b743347611818565b565b600a546001600160a01b03163314610ba05760405162461bcd60e51b815260040161081a9061298c565b610b74611931565b6109508383836040518060200160405280600081525061117f565b6000610bce60085490565b8210610c315760405162461bcd60e51b815260206004820152602c60248201527f455243373231456e756d657261626c653a20676c6f62616c20696e646578206f60448201526b7574206f6620626f756e647360a01b606482015260840161081a565b60088281548110610c5257634e487b7160e01b600052603260045260246000fd5b90600052602060002001549050919050565b600a546001600160a01b03163314610c8e5760405162461bcd60e51b815260040161081a9061298c565b8051610ca19060159060208401906123e3565b5050565b600a546001600160a01b03163314610ccf5760405162461bcd60e51b815260040161081a9061298c565b805160005b8181101561095057600160146000858481518110610d0257634e487b7160e01b600052603260045260246000fd5b6020908102919091018101516001600160a01b03168252810191909152604001600020805460ff191691151591909117905580610d3e81612b0c565b915050610cd4565b6000818152600260205260408120546001600160a01b03168061070d5760405162461bcd60e51b815260206004820152602960248201527f4552433732313a206f776e657220717565727920666f72206e6f6e657869737460448201526832b73a103a37b5b2b760b91b606482015260840161081a565b60006001600160a01b038216610e285760405162461bcd60e51b815260206004820152602a60248201527f4552433732313a2062616c616e636520717565727920666f7220746865207a65604482015269726f206164647265737360b01b606482015260840161081a565b506001600160a01b031660009081526003602052604090205490565b600a546001600160a01b03163314610e6e5760405162461bcd60e51b815260040161081a9061298c565b610b7460006119ce565b600a546001600160a01b03163314610ea25760405162461bcd60e51b815260040161081a9061298c565b610b74611a20565b600a546001600160a01b03163314610ed45760405162461bcd60e51b815260040161081a9061298c565b8015610ee05750601255565b50601355565b60606001805461072290612ad1565b6005811115610f465760405162461bcd60e51b815260206004820152601d60248201527f6e6f74206d696e74206d6f7265207468616e206d617820616d6f756e74000000604482015260640161081a565b600080610f5233611068565b3360009081526014602052604090205490915060ff168015610f8257601154610f7b9085611aa8565b9250610fa5565b8115610f9557601254610f7b9085611aa8565b601354610fa29085611aa8565b92505b82341015610fe85760405162461bcd60e51b815260206004820152601060248201526f6e6f7420656e6f7567682066756e647360801b604482015260640161081a565b600e5460009061100e9085906fffffffffffffffffffffffffffffffff16612710611abb565b905060005b858110156110365761102433611bcd565b8061102e81612b0c565b915050611013565b50600d54611056906001600160a01b03166110518387612a8e565b611c71565b5050505050565b610ca1338383611cf2565b600c54604051627eeac760e11b81526001600160a01b03838116600483015260016024830152600092839291169062fdd58e9060440160206040518083038186803b1580156110b657600080fd5b505afa1580156110ca573d6000803e3d6000fd5b505050506040513d601f19601f820116820180604052508101906110ee919061279e565b118061070d5750600c54604051627eeac760e11b81526001600160a01b03848116600483015260026024830152600092169062fdd58e9060440160206040518083038186803b15801561114057600080fd5b505afa158015611154573d6000803e3d6000fd5b505050506040513d601f19601f82011682018060405250810190611178919061279e565b1192915050565b61118933836114ff565b6111a55760405162461bcd60e51b815260040161081a906129c1565b6111b184848484611dc1565b50505050565b6000818152600260205260409020546060906001600160a01b03166112365760405162461bcd60e51b815260206004820152602f60248201527f4552433732314d657461646174613a2055524920717565727920666f72206e6f60448201526e3732bc34b9ba32b73a103a37b5b2b760891b606482015260840161081a565b6000601561124384611df4565b604051602001611254929190612820565b60408051601f198184030181529190529392505050565b6040516371d4ed8d60e11b81526001600160a01b0382811660048301526000917f00000000000000000000000000000000000000000000000000000000000000009091169063e3a9db1a9060240160206040518083038186803b1580156112d157600080fd5b505afa1580156112e5573d6000803e3d6000fd5b505050506040513d601f19601f8201168201806040525081019061070d919061279e565b600a546001600160a01b031633146113335760405162461bcd60e51b815260040161081a9061298c565b6001600160a01b0381166113985760405162461bcd60e51b815260206004820152602660248201527f4f776e61626c653a206e6577206f776e657220697320746865207a65726f206160448201526564647265737360d01b606482015260840161081a565b6109c1816119ce565b5490565b80546001019055565b3b151590565b6001600160a01b03831661140f5761140a81600880546000838152600960205260408120829055600182018355919091527ff3f7a9fe364faab93b216da50a3214154f22a0a2b415b23a84c8169e8b636ee30155565b611432565b816001600160a01b0316836001600160a01b031614611432576114328382611f0e565b6001600160a01b0382166114495761095081611fab565b826001600160a01b0316826001600160a01b031614610950576109508282612084565b60006001600160e01b0319821663780e9d6360e01b148061070d575061070d826120c8565b600081815260046020526040902080546001600160a01b0319166001600160a01b03841690811790915581906114c682610d46565b6001600160a01b03167f8c5be1e5ebec7d5bd14f71427d1e84f3dd0314c0f7b2291e5b200ac8c7c3b92560405160405180910390a45050565b6000818152600260205260408120546001600160a01b03166115785760405162461bcd60e51b815260206004820152602c60248201527f4552433732313a206f70657261746f7220717565727920666f72206e6f6e657860448201526b34b9ba32b73a103a37b5b2b760a11b606482015260840161081a565b600061158383610d46565b9050806001600160a01b0316846001600160a01b031614806115be5750836001600160a01b03166115b3846107a5565b6001600160a01b0316145b806115ee57506001600160a01b0380821660009081526005602090815260408083209388168352929052205460ff165b949350505050565b826001600160a01b031661160982610d46565b6001600160a01b0316146116715760405162461bcd60e51b815260206004820152602960248201527f4552433732313a207472616e73666572206f6620746f6b656e2074686174206960448201526839903737ba1037bbb760b91b606482015260840161081a565b6001600160a01b0382166116d35760405162461bcd60e51b8152602060048201526024808201527f4552433732313a207472616e7366657220746f20746865207a65726f206164646044820152637265737360e01b606482015260840161081a565b6116de838383612118565b6116e9600082611491565b6001600160a01b0383166000908152600360205260408120805460019290611712908490612a8e565b90915550506001600160a01b0382166000908152600360205260408120805460019290611740908490612a43565b909155505060008181526002602052604080822080546001600160a01b0319166001600160a01b0386811691821790925591518493918716917fddf252ad1be2c89b69c2b068fc378daa952ba7f163c4a11628f55a4df523b3ef91a4505050565b6040516351cff8d960e01b81526001600160a01b0382811660048301527f000000000000000000000000000000000000000000000000000000000000000016906351cff8d990602401600060405180830381600087803b15801561180457600080fd5b505af1158015611056573d6000803e3d6000fd5b804710156118685760405162461bcd60e51b815260206004820152601d60248201527f416464726573733a20696e73756666696369656e742062616c616e6365000000604482015260640161081a565b6000826001600160a01b03168260405160006040518083038185875af1925050503d80600081146118b5576040519150601f19603f3d011682016040523d82523d6000602084013e6118ba565b606091505b50509050806109505760405162461bcd60e51b815260206004820152603a60248201527f416464726573733a20756e61626c6520746f2073656e642076616c75652c207260448201527f6563697069656e74206d61792068617665207265766572746564000000000000606482015260840161081a565b600a54600160a01b900460ff166119815760405162461bcd60e51b815260206004820152601460248201527314185d5cd8589b194e881b9bdd081c185d5cd95960621b604482015260640161081a565b600a805460ff60a01b191690557f5db9ee0a495bf2e6ff9c91a7834c1ba4fdd244a5e8aa4e537bd38aeae4b073aa335b6040516001600160a01b03909116815260200160405180910390a1565b600a80546001600160a01b038381166001600160a01b0319831681179093556040519116919082907f8be0079c531659141344cd1fd0a4f28419497f9722a3daafe3b4186f6b6457e090600090a35050565b600a54600160a01b900460ff1615611a6d5760405162461bcd60e51b815260206004820152601060248201526f14185d5cd8589b194e881c185d5cd95960821b604482015260640161081a565b600a805460ff60a01b1916600160a01b1790557f62e78cea01bee320cd4e420270b5ea74000d11b0c9f74754ebdbfc544b05a2586119b13390565b6000611ab48284612a6f565b9392505050565b6000808211611aff5760405162461bcd60e51b815260206004820152601060248201526f4469766973696f6e206279207a65726f60801b604482015260640161081a565b83611b0c57506000611ab4565b6000611b188486612a6f565b905083611b258683612a5b565b1415611b3d57611b358382612a5b565b915050611ab4565b6000611b498487612a5b565b90506000611b578588612b27565b90506000611b658688612a5b565b90506000611b738789612b27565b9050611bc0611b8c88611b868685611aa8565b90612123565b611bba611b998686611aa8565b611bba611ba68987611aa8565b611bba8d611bb48c8b611aa8565b90611aa8565b9061212f565b9998505050505050505050565b6000611bd860105490565b90506103e88110611c175760405162461bcd60e51b8152602060048201526009602482015268736f6c64206f75742160b81b604482015260640161081a565b611c25601080546001019055565b610ca182600f8381548110611c4a57634e487b7160e01b600052603260045260246000fd5b60009182526020909120601082040154600f9091166002026101000a900461ffff1661213b565b60405163f340fa0160e01b81526001600160a01b0383811660048301527f0000000000000000000000000000000000000000000000000000000000000000169063f340fa019083906024016000604051808303818588803b158015611cd557600080fd5b505af1158015611ce9573d6000803e3d6000fd5b50505050505050565b816001600160a01b0316836001600160a01b03161415611d545760405162461bcd60e51b815260206004820152601960248201527f4552433732313a20617070726f766520746f2063616c6c657200000000000000604482015260640161081a565b6001600160a01b03838116600081815260056020908152604080832094871680845294825291829020805460ff191686151590811790915591519182527f17307eab39ab6107e8899845ad3d59bd9653f200f220920489ca2b5937696c31910160405180910390a3505050565b611dcc8484846115f6565b611dd884848484612155565b6111b15760405162461bcd60e51b815260040161081a9061293a565b606081611e185750506040805180820190915260018152600360fc1b602082015290565b8160005b8115611e425780611e2c81612b0c565b9150611e3b9050600a83612a5b565b9150611e1c565b60008167ffffffffffffffff811115611e6b57634e487b7160e01b600052604160045260246000fd5b6040519080825280601f01601f191660200182016040528015611e95576020820181803683370190505b5090505b84156115ee57611eaa600183612a8e565b9150611eb7600a86612b27565b611ec2906030612a43565b60f81b818381518110611ee557634e487b7160e01b600052603260045260246000fd5b60200101906001600160f81b031916908160001a905350611f07600a86612a5b565b9450611e99565b60006001611f1b84610dbd565b611f259190612a8e565b600083815260076020526040902054909150808214611f78576001600160a01b03841660009081526006602090815260408083208584528252808320548484528184208190558352600790915290208190555b5060009182526007602090815260408084208490556001600160a01b039094168352600681528383209183525290812055565b600854600090611fbd90600190612a8e565b60008381526009602052604081205460088054939450909284908110611ff357634e487b7160e01b600052603260045260246000fd5b90600052602060002001549050806008838154811061202257634e487b7160e01b600052603260045260246000fd5b600091825260208083209091019290925582815260099091526040808220849055858252812055600880548061206857634e487b7160e01b600052603160045260246000fd5b6001900381819060005260206000200160009055905550505050565b600061208f83610dbd565b6001600160a01b039093166000908152600660209081526040808320868452825280832085905593825260079052919091209190915550565b60006001600160e01b031982166380ac58cd60e01b14806120f957506001600160e01b03198216635b5e139f60e01b145b8061070d57506301ffc9a760e01b6001600160e01b031983161461070d565b6109508383836113b4565b6000611ab48284612a5b565b6000611ab48284612a43565b610ca1828260405180602001604052806000815250612262565b60006001600160a01b0384163b1561225757604051630a85bd0160e11b81526001600160a01b0385169063150b7a02906121999033908990889088906004016128ea565b602060405180830381600087803b1580156121b357600080fd5b505af19250505080156121e3575060408051601f3d908101601f191682019092526121e091810190612724565b60015b61223d573d808015612211576040519150601f19603f3d011682016040523d82523d6000602084013e612216565b606091505b5080516122355760405162461bcd60e51b815260040161081a9061293a565b805181602001fd5b6001600160e01b031916630a85bd0160e11b1490506115ee565b506001949350505050565b61226c8383612295565b6122796000848484612155565b6109505760405162461bcd60e51b815260040161081a9061293a565b6001600160a01b0382166122eb5760405162461bcd60e51b815260206004820181905260248201527f4552433732313a206d696e7420746f20746865207a65726f2061646472657373604482015260640161081a565b6000818152600260205260409020546001600160a01b0316156123505760405162461bcd60e51b815260206004820152601c60248201527f4552433732313a20746f6b656e20616c7265616479206d696e74656400000000604482015260640161081a565b61235c60008383612118565b6001600160a01b0382166000908152600360205260408120805460019290612385908490612a43565b909155505060008181526002602052604080822080546001600160a01b0319166001600160a01b03861690811790915590518392907fddf252ad1be2c89b69c2b068fc378daa952ba7f163c4a11628f55a4df523b3ef908290a45050565b8280546123ef90612ad1565b90600052602060002090601f0160209004810192826124115760008555612457565b82601f1061242a57805160ff1916838001178555612457565b82800160010185558215612457579182015b8281111561245757825182559160200191906001019061243c565b50612463929150612467565b5090565b5b808211156124635760008155600101612468565b600067ffffffffffffffff83111561249657612496612b67565b6124a9601f8401601f1916602001612a12565b90508281528383830111156124bd57600080fd5b828260208301376000602084830101529392505050565b80358015158114610a3c57600080fd5b6000602082840312156124f5578081fd5b8135611ab481612b7d565b60008060408385031215612512578081fd5b823561251d81612b7d565b9150602083013561252d81612b7d565b809150509250929050565b60008060006060848603121561254c578081fd5b833561255781612b7d565b9250602084013561256781612b7d565b929592945050506040919091013590565b6000806000806080858703121561258d578081fd5b843561259881612b7d565b935060208501356125a881612b7d565b925060408501359150606085013567ffffffffffffffff8111156125ca578182fd5b8501601f810187136125da578182fd5b6125e98782356020840161247c565b91505092959194509250565b60008060408385031215612607578182fd5b823561261281612b7d565b9150612620602084016124d4565b90509250929050565b6000806040838503121561263b578182fd5b823561264681612b7d565b946020939093013593505050565b60006020808385031215612666578182fd5b823567ffffffffffffffff8082111561267d578384fd5b818501915085601f830112612690578384fd5b8135818111156126a2576126a2612b67565b8060051b91506126b3848301612a12565b8181528481019084860184860187018a10156126cd578788fd5b8795505b838610156126fb57803594506126e685612b7d565b848352600195909501949186019186016126d1565b5098975050505050505050565b600060208284031215612719578081fd5b8135611ab481612b92565b600060208284031215612735578081fd5b8151611ab481612b92565b600060208284031215612751578081fd5b813567ffffffffffffffff811115612767578182fd5b8201601f81018413612777578182fd5b6115ee8482356020840161247c565b600060208284031215612797578081fd5b5035919050565b6000602082840312156127af578081fd5b5051919050565b600080604083850312156127c8578182fd5b82359150612620602084016124d4565b600081518084526127f0816020860160208601612aa5565b601f01601f19169290920160200192915050565b60008151612816818560208601612aa5565b9290920192915050565b600080845482600182811c91508083168061283c57607f831692505b602080841082141561285c57634e487b7160e01b87526022600452602487fd5b8180156128705760018114612881576128ad565b60ff198616895284890196506128ad565b60008b815260209020885b868110156128a55781548b82015290850190830161288c565b505084890196505b5050505050506128e16128d06128ca83602f60f81b815260010190565b86612804565b64173539b7b760d91b815260050190565b95945050505050565b6001600160a01b038581168252841660208201526040810183905260806060820181905260009061291d908301846127d8565b9695505050505050565b602081526000611ab460208301846127d8565b60208082526032908201527f4552433732313a207472616e7366657220746f206e6f6e20455243373231526560408201527131b2b4bb32b91034b6b83632b6b2b73a32b960711b606082015260800190565b6020808252818101527f4f776e61626c653a2063616c6c6572206973206e6f7420746865206f776e6572604082015260600190565b60208082526031908201527f4552433732313a207472616e736665722063616c6c6572206973206e6f74206f6040820152701ddb995c881b9bdc88185c1c1c9bdd9959607a1b606082015260800190565b604051601f8201601f1916810167ffffffffffffffff81118282101715612a3b57612a3b612b67565b604052919050565b60008219821115612a5657612a56612b3b565b500190565b600082612a6a57612a6a612b51565b500490565b6000816000190483118215151615612a8957612a89612b3b565b500290565b600082821015612aa057612aa0612b3b565b500390565b60005b83811015612ac0578181015183820152602001612aa8565b838111156111b15750506000910152565b600181811c90821680612ae557607f821691505b60208210811415612b0657634e487b7160e01b600052602260045260246000fd5b50919050565b6000600019821415612b2057612b20612b3b565b5060010190565b600082612b3657612b36612b51565b500690565b634e487b7160e01b600052601160045260246000fd5b634e487b7160e01b600052601260045260246000fd5b634e487b7160e01b600052604160045260246000fd5b6001600160a01b03811681146109c157600080fd5b6001600160e01b0319811681146109c157600080fdfea264697066735822122031750fdadee0509c1b0a4d387e8aeaa62b2feb69faef4b358ec1f6ec1111417a64736f6c63430008040033608060405234801561001057600080fd5b5061001a3361001f565b61006f565b600080546001600160a01b038381166001600160a01b0319831681178455604051919092169283917f8be0079c531659141344cd1fd0a4f28419497f9722a3daafe3b4186f6b6457e09190a35050565b6105718061007e6000396000f3fe6080604052600436106100555760003560e01c806351cff8d91461005a578063715018a61461007c5780638da5cb5b14610091578063e3a9db1a146100be578063f2fde38b14610102578063f340fa0114610122575b600080fd5b34801561006657600080fd5b5061007a6100753660046104aa565b610135565b005b34801561008857600080fd5b5061007a6101d7565b34801561009d57600080fd5b506000546040516001600160a01b0390911681526020015b60405180910390f35b3480156100ca57600080fd5b506100f46100d93660046104aa565b6001600160a01b031660009081526001602052604090205490565b6040519081526020016100b5565b34801561010e57600080fd5b5061007a61011d3660046104aa565b61020d565b61007a6101303660046104aa565b6102a8565b6000546001600160a01b031633146101685760405162461bcd60e51b815260040161015f906104cd565b60405180910390fd5b6001600160a01b0381166000818152600160205260408120805491905590610190908261033c565b816001600160a01b03167f7084f5476618d8e60b11ef0d7d3f06914655adb8793e28ff7f018d4c76d505d5826040516101cb91815260200190565b60405180910390a25050565b6000546001600160a01b031633146102015760405162461bcd60e51b815260040161015f906104cd565b61020b600061045a565b565b6000546001600160a01b031633146102375760405162461bcd60e51b815260040161015f906104cd565b6001600160a01b03811661029c5760405162461bcd60e51b815260206004820152602660248201527f4f776e61626c653a206e6577206f776e657220697320746865207a65726f206160448201526564647265737360d01b606482015260840161015f565b6102a58161045a565b50565b6000546001600160a01b031633146102d25760405162461bcd60e51b815260040161015f906104cd565b6001600160a01b0381166000908152600160205260408120805434928392916102fc908490610502565b90915550506040518181526001600160a01b038316907f2da466a7b24304f47e87fa2e1e5a81b9831ce54fec19055ce277ca2f39ba42c4906020016101cb565b8047101561038c5760405162461bcd60e51b815260206004820152601d60248201527f416464726573733a20696e73756666696369656e742062616c616e6365000000604482015260640161015f565b6000826001600160a01b03168260405160006040518083038185875af1925050503d80600081146103d9576040519150601f19603f3d011682016040523d82523d6000602084013e6103de565b606091505b50509050806104555760405162461bcd60e51b815260206004820152603a60248201527f416464726573733a20756e61626c6520746f2073656e642076616c75652c207260448201527f6563697069656e74206d61792068617665207265766572746564000000000000606482015260840161015f565b505050565b600080546001600160a01b038381166001600160a01b0319831681178455604051919092169283917f8be0079c531659141344cd1fd0a4f28419497f9722a3daafe3b4186f6b6457e09190a35050565b6000602082840312156104bb578081fd5b81356104c681610526565b9392505050565b6020808252818101527f4f776e61626c653a2063616c6c6572206973206e6f7420746865206f776e6572604082015260600190565b6000821982111561052157634e487b7160e01b81526011600452602481fd5b500190565b6001600160a01b03811681146102a557600080fdfea264697066735822122088702fd4ddcea429b86ffcb261f544be05e79d5fd7b90a9f3a7ecefbe3b90e2c64736f6c634300080400334552433732313a207472616e7366657220746f206e6f6e204552433732315265697066733a2f2f516d57464b6d456d39625532645571796b37514148776632577547346b583168345679696a65594b724268647576",
  "linkReferences": {},
  "deployedLinkReferences": {}
}