{
  "contractName": "MariesCyborgs",
  "abi": [
    {
      "inputs": [
        {
          "internalType": "string",
          "name": "_name",
          "type": "string"
        },
        {
          "internalType": "string",
          "name": "_symbol",
          "type": "string"
        },
        {
          "internalType": "string",
          "name": "_initBaseURI",
          "type": "string"
        }
      ],
      "stateMutability": "nonpayable",
      "type": "constructor"
    },
    {
      "anonymous": false,
      "inputs": [
        {
          "indexed": true,
          "internalType": "address",
          "name": "owner",
          "type": "address"
        },
        {
          "indexed": true,
          "internalType": "address",
          "name": "approved",
          "type": "address"
        },
        {
          "indexed": true,
          "internalType": "uint256",
          "name": "tokenId",
          "type": "uint256"
        }
      ],
      "name": "Approval",
      "type": "event"
    },
    {
      "anonymous": false,
      "inputs": [
        {
          "indexed": true,
          "internalType": "address",
          "name": "owner",
          "type": "address"
        },
        {
          "indexed": true,
          "internalType": "address",
          "name": "operator",
          "type": "address"
        },
        {
          "indexed": false,
          "internalType": "bool",
          "name": "approved",
          "type": "bool"
        }
      ],
      "name": "ApprovalForAll",
      "type": "event"
    },
    {
      "anonymous": false,
      "inputs": [
        {
          "indexed": true,
          "internalType": "address",
          "name": "_from",
          "type": "address"
        },
        {
          "indexed": true,
          "internalType": "uint256",
          "name": "mintAmount",
          "type": "uint256"
        }
      ],
      "name": "MintEvent",
      "type": "event"
    },
    {
      "anonymous": false,
      "inputs": [
        {
          "indexed": true,
          "internalType": "address",
          "name": "previousOwner",
          "type": "address"
        },
        {
          "indexed": true,
          "internalType": "address",
          "name": "newOwner",
          "type": "address"
        }
      ],
      "name": "OwnershipTransferred",
      "type": "event"
    },
    {
      "anonymous": false,
      "inputs": [
        {
          "indexed": true,
          "internalType": "address",
          "name": "from",
          "type": "address"
        },
        {
          "indexed": true,
          "internalType": "address",
          "name": "to",
          "type": "address"
        },
        {
          "indexed": true,
          "internalType": "uint256",
          "name": "tokenId",
          "type": "uint256"
        }
      ],
      "name": "Transfer",
      "type": "event"
    },
    {
      "inputs": [],
      "name": "EbisusbayMemberPrice",
      "outputs": [
        {
          "internalType": "uint256",
          "name": "",
          "type": "uint256"
        }
      ],
      "stateMutability": "view",
      "type": "function",
      "constant": true
    },
    {
      "inputs": [
        {
          "internalType": "address",
          "name": "",
          "type": "address"
        }
      ],
      "name": "addressMintedBalance",
      "outputs": [
        {
          "internalType": "uint256",
          "name": "",
          "type": "uint256"
        }
      ],
      "stateMutability": "view",
      "type": "function",
      "constant": true
    },
    {
      "inputs": [
        {
          "internalType": "address",
          "name": "to",
          "type": "address"
        },
        {
          "internalType": "uint256",
          "name": "tokenId",
          "type": "uint256"
        }
      ],
      "name": "approve",
      "outputs": [],
      "stateMutability": "nonpayable",
      "type": "function"
    },
    {
      "inputs": [
        {
          "internalType": "address",
          "name": "owner",
          "type": "address"
        }
      ],
      "name": "balanceOf",
      "outputs": [
        {
          "internalType": "uint256",
          "name": "",
          "type": "uint256"
        }
      ],
      "stateMutability": "view",
      "type": "function",
      "constant": true
    },
    {
      "inputs": [],
      "name": "baseExtension",
      "outputs": [
        {
          "internalType": "string",
          "name": "",
          "type": "string"
        }
      ],
      "stateMutability": "view",
      "type": "function",
      "constant": true
    },
    {
      "inputs": [],
      "name": "baseURI",
      "outputs": [
        {
          "internalType": "string",
          "name": "",
          "type": "string"
        }
      ],
      "stateMutability": "view",
      "type": "function",
      "constant": true
    },
    {
      "inputs": [],
      "name": "ebisusbayFee",
      "outputs": [
        {
          "internalType": "uint256",
          "name": "",
          "type": "uint256"
        }
      ],
      "stateMutability": "view",
      "type": "function",
      "constant": true
    },
    {
      "inputs": [],
      "name": "ebisusbayWallet",
      "outputs": [
        {
          "internalType": "address",
          "name": "",
          "type": "address"
        }
      ],
      "stateMutability": "view",
      "type": "function",
      "constant": true
    },
    {
      "inputs": [
        {
          "internalType": "uint256",
          "name": "tokenId",
          "type": "uint256"
        }
      ],
      "name": "getApproved",
      "outputs": [
        {
          "internalType": "address",
          "name": "",
          "type": "address"
        }
      ],
      "stateMutability": "view",
      "type": "function",
      "constant": true
    },
    {
      "inputs": [
        {
          "internalType": "address",
          "name": "owner",
          "type": "address"
        },
        {
          "internalType": "address",
          "name": "operator",
          "type": "address"
        }
      ],
      "name": "isApprovedForAll",
      "outputs": [
        {
          "internalType": "bool",
          "name": "",
          "type": "bool"
        }
      ],
      "stateMutability": "view",
      "type": "function",
      "constant": true
    },
    {
      "inputs": [],
      "name": "maxMintAmount",
      "outputs": [
        {
          "internalType": "uint256",
          "name": "",
          "type": "uint256"
        }
      ],
      "stateMutability": "view",
      "type": "function",
      "constant": true
    },
    {
      "inputs": [],
      "name": "maxSupply",
      "outputs": [
        {
          "internalType": "uint256",
          "name": "",
          "type": "uint256"
        }
      ],
      "stateMutability": "view",
      "type": "function",
      "constant": true
    },
    {
      "inputs": [],
      "name": "memberShipAddress",
      "outputs": [
        {
          "internalType": "address",
          "name": "",
          "type": "address"
        }
      ],
      "stateMutability": "view",
      "type": "function",
      "constant": true
    },
    {
      "inputs": [],
      "name": "name",
      "outputs": [
        {
          "internalType": "string",
          "name": "",
          "type": "string"
        }
      ],
      "stateMutability": "view",
      "type": "function",
      "constant": true
    },
    {
      "inputs": [],
      "name": "nftPerAddressLimit",
      "outputs": [
        {
          "internalType": "uint256",
          "name": "",
          "type": "uint256"
        }
      ],
      "stateMutability": "view",
      "type": "function",
      "constant": true
    },
    {
      "inputs": [],
      "name": "onlyWhitelisted",
      "outputs": [
        {
          "internalType": "bool",
          "name": "",
          "type": "bool"
        }
      ],
      "stateMutability": "view",
      "type": "function",
      "constant": true
    },
    {
      "inputs": [],
      "name": "owner",
      "outputs": [
        {
          "internalType": "address",
          "name": "",
          "type": "address"
        }
      ],
      "stateMutability": "view",
      "type": "function",
      "constant": true
    },
    {
      "inputs": [
        {
          "internalType": "uint256",
          "name": "tokenId",
          "type": "uint256"
        }
      ],
      "name": "ownerOf",
      "outputs": [
        {
          "internalType": "address",
          "name": "",
          "type": "address"
        }
      ],
      "stateMutability": "view",
      "type": "function",
      "constant": true
    },
    {
      "inputs": [],
      "name": "paused",
      "outputs": [
        {
          "internalType": "bool",
          "name": "",
          "type": "bool"
        }
      ],
      "stateMutability": "view",
      "type": "function",
      "constant": true
    },
    {
      "inputs": [
        {
          "internalType": "address",
          "name": "dest",
          "type": "address"
        }
      ],
      "name": "payments",
      "outputs": [
        {
          "internalType": "uint256",
          "name": "",
          "type": "uint256"
        }
      ],
      "stateMutability": "view",
      "type": "function",
      "constant": true
    },
    {
      "inputs": [],
      "name": "publicCost",
      "outputs": [
        {
          "internalType": "uint256",
          "name": "",
          "type": "uint256"
        }
      ],
      "stateMutability": "view",
      "type": "function",
      "constant": true
    },
    {
      "inputs": [],
      "name": "renounceOwnership",
      "outputs": [],
      "stateMutability": "nonpayable",
      "type": "function"
    },
    {
      "inputs": [
        {
          "internalType": "address",
          "name": "from",
          "type": "address"
        },
        {
          "internalType": "address",
          "name": "to",
          "type": "address"
        },
        {
          "internalType": "uint256",
          "name": "tokenId",
          "type": "uint256"
        }
      ],
      "name": "safeTransferFrom",
      "outputs": [],
      "stateMutability": "nonpayable",
      "type": "function"
    },
    {
      "inputs": [
        {
          "internalType": "address",
          "name": "from",
          "type": "address"
        },
        {
          "internalType": "address",
          "name": "to",
          "type": "address"
        },
        {
          "internalType": "uint256",
          "name": "tokenId",
          "type": "uint256"
        },
        {
          "internalType": "bytes",
          "name": "_data",
          "type": "bytes"
        }
      ],
      "name": "safeTransferFrom",
      "outputs": [],
      "stateMutability": "nonpayable",
      "type": "function"
    },
    {
      "inputs": [
        {
          "internalType": "address",
          "name": "operator",
          "type": "address"
        },
        {
          "internalType": "bool",
          "name": "approved",
          "type": "bool"
        }
      ],
      "name": "setApprovalForAll",
      "outputs": [],
      "stateMutability": "nonpayable",
      "type": "function"
    },
    {
      "inputs": [
        {
          "internalType": "bytes4",
          "name": "interfaceId",
          "type": "bytes4"
        }
      ],
      "name": "supportsInterface",
      "outputs": [
        {
          "internalType": "bool",
          "name": "",
          "type": "bool"
        }
      ],
      "stateMutability": "view",
      "type": "function",
      "constant": true
    },
    {
      "inputs": [],
      "name": "symbol",
      "outputs": [
        {
          "internalType": "string",
          "name": "",
          "type": "string"
        }
      ],
      "stateMutability": "view",
      "type": "function",
      "constant": true
    },
    {
      "inputs": [
        {
          "internalType": "uint256",
          "name": "index",
          "type": "uint256"
        }
      ],
      "name": "tokenByIndex",
      "outputs": [
        {
          "internalType": "uint256",
          "name": "",
          "type": "uint256"
        }
      ],
      "stateMutability": "view",
      "type": "function",
      "constant": true
    },
    {
      "inputs": [
        {
          "internalType": "address",
          "name": "owner",
          "type": "address"
        },
        {
          "internalType": "uint256",
          "name": "index",
          "type": "uint256"
        }
      ],
      "name": "tokenOfOwnerByIndex",
      "outputs": [
        {
          "internalType": "uint256",
          "name": "",
          "type": "uint256"
        }
      ],
      "stateMutability": "view",
      "type": "function",
      "constant": true
    },
    {
      "inputs": [],
      "name": "totalSupply",
      "outputs": [
        {
          "internalType": "uint256",
          "name": "",
          "type": "uint256"
        }
      ],
      "stateMutability": "view",
      "type": "function",
      "constant": true
    },
    {
      "inputs": [
        {
          "internalType": "address",
          "name": "from",
          "type": "address"
        },
        {
          "internalType": "address",
          "name": "to",
          "type": "address"
        },
        {
          "internalType": "uint256",
          "name": "tokenId",
          "type": "uint256"
        }
      ],
      "name": "transferFrom",
      "outputs": [],
      "stateMutability": "nonpayable",
      "type": "function"
    },
    {
      "inputs": [
        {
          "internalType": "address",
          "name": "newOwner",
          "type": "address"
        }
      ],
      "name": "transferOwnership",
      "outputs": [],
      "stateMutability": "nonpayable",
      "type": "function"
    },
    {
      "inputs": [],
      "name": "whiteListCost",
      "outputs": [
        {
          "internalType": "uint256",
          "name": "",
          "type": "uint256"
        }
      ],
      "stateMutability": "view",
      "type": "function",
      "constant": true
    },
    {
      "inputs": [
        {
          "internalType": "address",
          "name": "",
          "type": "address"
        }
      ],
      "name": "whitelistedAddresses",
      "outputs": [
        {
          "internalType": "bool",
          "name": "",
          "type": "bool"
        }
      ],
      "stateMutability": "view",
      "type": "function",
      "constant": true
    },
    {
      "inputs": [
        {
          "internalType": "address payable",
          "name": "payee",
          "type": "address"
        }
      ],
      "name": "withdrawPayments",
      "outputs": [],
      "stateMutability": "nonpayable",
      "type": "function"
    },
    {
      "inputs": [],
      "name": "getInfos",
      "outputs": [
        {
          "components": [
            {
              "internalType": "uint256",
              "name": "regularCost",
              "type": "uint256"
            },
            {
              "internalType": "uint256",
              "name": "memberCost",
              "type": "uint256"
            },
            {
              "internalType": "uint256",
              "name": "whitelistCost",
              "type": "uint256"
            },
            {
              "internalType": "uint256",
              "name": "maxSupply",
              "type": "uint256"
            },
            {
              "internalType": "uint256",
              "name": "totalSupply",
              "type": "uint256"
            },
            {
              "internalType": "uint256",
              "name": "maxMintPerAddress",
              "type": "uint256"
            },
            {
              "internalType": "uint256",
              "name": "maxMintPerTx",
              "type": "uint256"
            }
          ],
          "internalType": "struct MariesCyborgs.Infos",
          "name": "",
          "type": "tuple"
        }
      ],
      "stateMutability": "view",
      "type": "function",
      "constant": true
    },
    {
      "inputs": [
        {
          "internalType": "uint256",
          "name": "_mintAmount",
          "type": "uint256"
        }
      ],
      "name": "mint",
      "outputs": [],
      "stateMutability": "payable",
      "type": "function",
      "payable": true
    },
    {
      "inputs": [
        {
          "internalType": "address",
          "name": "_owner",
          "type": "address"
        }
      ],
      "name": "walletOfOwner",
      "outputs": [
        {
          "internalType": "uint256[]",
          "name": "",
          "type": "uint256[]"
        }
      ],
      "stateMutability": "view",
      "type": "function",
      "constant": true
    },
    {
      "inputs": [
        {
          "internalType": "uint256",
          "name": "tokenId",
          "type": "uint256"
        }
      ],
      "name": "tokenURI",
      "outputs": [
        {
          "internalType": "string",
          "name": "",
          "type": "string"
        }
      ],
      "stateMutability": "view",
      "type": "function",
      "constant": true
    },
    {
      "inputs": [
        {
          "internalType": "string",
          "name": "_newBaseURI",
          "type": "string"
        }
      ],
      "name": "setBaseURI",
      "outputs": [],
      "stateMutability": "nonpayable",
      "type": "function"
    },
    {
      "inputs": [
        {
          "internalType": "string",
          "name": "_newBaseExtension",
          "type": "string"
        }
      ],
      "name": "setBaseExtension",
      "outputs": [],
      "stateMutability": "nonpayable",
      "type": "function"
    },
    {
      "inputs": [
        {
          "internalType": "bool",
          "name": "_state",
          "type": "bool"
        }
      ],
      "name": "pause",
      "outputs": [],
      "stateMutability": "nonpayable",
      "type": "function"
    },
    {
      "inputs": [],
      "name": "withdraw",
      "outputs": [],
      "stateMutability": "payable",
      "type": "function",
      "payable": true
    },
    {
      "inputs": [
        {
          "internalType": "address[]",
          "name": "addresses",
          "type": "address[]"
        }
      ],
      "name": "setAllowList",
      "outputs": [],
      "stateMutability": "nonpayable",
      "type": "function"
    },
    {
      "inputs": [
        {
          "internalType": "address",
          "name": "_whitelistedAddress",
          "type": "address"
        }
      ],
      "name": "verifyUser",
      "outputs": [
        {
          "internalType": "bool",
          "name": "",
          "type": "bool"
        }
      ],
      "stateMutability": "view",
      "type": "function",
      "constant": true
    },
    {
      "inputs": [
        {
          "internalType": "bool",
          "name": "_state",
          "type": "bool"
        }
      ],
      "name": "setOnlyWhitelisted",
      "outputs": [],
      "stateMutability": "nonpayable",
      "type": "function"
    },
    {
      "inputs": [],
      "name": "getBalance",
      "outputs": [
        {
          "internalType": "uint256",
          "name": "",
          "type": "uint256"
        }
      ],
      "stateMutability": "view",
      "type": "function",
      "constant": true
    },
    {
      "inputs": [
        {
          "internalType": "address",
          "name": "_address",
          "type": "address"
        }
      ],
      "name": "isEbisusBayMember",
      "outputs": [
        {
          "internalType": "bool",
          "name": "",
          "type": "bool"
        }
      ],
      "stateMutability": "view",
      "type": "function",
      "constant": true
    },
    {
      "inputs": [
        {
          "internalType": "address",
          "name": "_address",
          "type": "address"
        }
      ],
      "name": "setMemberShipAddress",
      "outputs": [],
      "stateMutability": "nonpayable",
      "type": "function"
    },
    {
      "inputs": [
        {
          "internalType": "address",
          "name": "_address",
          "type": "address"
        }
      ],
      "name": "cost",
      "outputs": [
        {
          "internalType": "uint256",
          "name": "",
          "type": "uint256"
        }
      ],
      "stateMutability": "view",
      "type": "function",
      "constant": true
    },
    {
      "inputs": [
        {
          "internalType": "address",
          "name": "_address",
          "type": "address"
        }
      ],
      "name": "canMint",
      "outputs": [
        {
          "internalType": "uint256",
          "name": "",
          "type": "uint256"
        }
      ],
      "stateMutability": "view",
      "type": "function",
      "constant": true
    }
  ],
  "bytecode": "0x60a06040526040518060400160405280600581526020017f2e6a736f6e000000000000000000000000000000000000000000000000000000815250600c90805190602001906200005192919062000415565b506815af1d78b58c400000600d556812f939c99edab80000600e55681043561a8829300000600f556109c460105560196011556032601255600560135573454cfaa623a629cc0b4017aeb85d54c42e91479d601460006101000a81548173ffffffffffffffffffffffffffffffffffffffff021916908373ffffffffffffffffffffffffffffffffffffffff160217905550733f1590a5984c89e6d5831bfb76788f3517cdf034601560006101000a81548173ffffffffffffffffffffffffffffffffffffffff021916908373ffffffffffffffffffffffffffffffffffffffff1602179055506000601560146101000a81548160ff02191690831515021790555060006015806101000a81548160ff0219169083151502179055503480156200017a57600080fd5b50604051620070e5380380620070e58339818101604052810190620001a0919062000545565b82828160009080519060200190620001ba92919062000415565b508060019080519060200190620001d392919062000415565b505050620001f6620001ea6200027260201b60201c565b6200027a60201b60201c565b6040516200020490620004a6565b604051809103906000f08015801562000221573d6000803e3d6000fd5b5073ffffffffffffffffffffffffffffffffffffffff1660808173ffffffffffffffffffffffffffffffffffffffff1660601b8152505062000269816200034060201b60201c565b5050506200078c565b600033905090565b6000600a60009054906101000a900473ffffffffffffffffffffffffffffffffffffffff16905081600a60006101000a81548173ffffffffffffffffffffffffffffffffffffffff021916908373ffffffffffffffffffffffffffffffffffffffff1602179055508173ffffffffffffffffffffffffffffffffffffffff168173ffffffffffffffffffffffffffffffffffffffff167f8be0079c531659141344cd1fd0a4f28419497f9722a3daafe3b4186f6b6457e060405160405180910390a35050565b620003506200027260201b60201c565b73ffffffffffffffffffffffffffffffffffffffff1662000376620003eb60201b60201c565b73ffffffffffffffffffffffffffffffffffffffff1614620003cf576040517f08c379a0000000000000000000000000000000000000000000000000000000008152600401620003c69062000628565b60405180910390fd5b80600b9080519060200190620003e792919062000415565b5050565b6000600a60009054906101000a900473ffffffffffffffffffffffffffffffffffffffff16905090565b8280546200042390620006f8565b90600052602060002090601f01602090048101928262000447576000855562000493565b82601f106200046257805160ff191683800117855562000493565b8280016001018555821562000493579182015b828111156200049257825182559160200191906001019062000475565b5b509050620004a29190620004b4565b5090565b610ccd806200641883390190565b5b80821115620004cf576000816000905550600101620004b5565b5090565b6000620004ea620004e4846200067e565b6200064a565b9050828152602081018484840111156200050357600080fd5b62000510848285620006c2565b509392505050565b600082601f8301126200052a57600080fd5b81516200053c848260208601620004d3565b91505092915050565b6000806000606084860312156200055b57600080fd5b600084015167ffffffffffffffff8111156200057657600080fd5b620005848682870162000518565b935050602084015167ffffffffffffffff811115620005a257600080fd5b620005b08682870162000518565b925050604084015167ffffffffffffffff811115620005ce57600080fd5b620005dc8682870162000518565b9150509250925092565b6000620005f5602083620006b1565b91507f4f776e61626c653a2063616c6c6572206973206e6f7420746865206f776e65726000830152602082019050919050565b600060208201905081810360008301526200064381620005e6565b9050919050565b6000604051905081810181811067ffffffffffffffff821117156200067457620006736200075d565b5b8060405250919050565b600067ffffffffffffffff8211156200069c576200069b6200075d565b5b601f19601f8301169050602081019050919050565b600082825260208201905092915050565b60005b83811015620006e2578082015181840152602081019050620006c5565b83811115620006f2576000848401525b50505050565b600060028204905060018216806200071157607f821691505b602082108114156200072857620007276200072e565b5b50919050565b7f4e487b7100000000000000000000000000000000000000000000000000000000600052602260045260246000fd5b7f4e487b7100000000000000000000000000000000000000000000000000000000600052604160045260246000fd5b60805160601c615c5f620007b96000396000818161136701528181612a2001526132890152615c5f6000f3fe6080604052600436106102e45760003560e01c806363378f1d11610190578063a0712d68116100dc578063c87b56dd11610095578063da3ef23f1161006f578063da3ef23f14610b70578063e2982c2114610b99578063e985e9c514610bd6578063f2fde38b14610c13576102e4565b8063c87b56dd14610add578063cd8d999414610b1a578063d5abeb0114610b45576102e4565b8063a0712d68146109dc578063a22cb465146109f8578063b88d4fde14610a21578063ba7d2c7614610a4a578063c2ba474414610a75578063c668286214610ab2576102e4565b8063715018a6116101495780638da5cb5b116101235780638da5cb5b146109305780639257e0441461095b57806395d89b41146109865780639c70b512146109b1576102e4565b8063715018a6146108b15780637fe49e00146108c85780638693da2014610905576102e4565b806363378f1d1461078d5780636352211e146107b8578063643d6dc0146107f55780636447c35d146108205780636c0360eb1461084957806370a0823114610874576102e4565b806323b872dd1161024f578063438b6300116102085780634dd98b13116101e25780634dd98b13146106d15780634f6ccce7146106fc57806355f804b3146107395780635c975abb14610762576102e4565b8063438b63001461062c57806348bc5b91146106695780634d81312014610694576102e4565b806323b872dd146105415780632f745c591461056a57806331b3eb94146105a75780633c952764146105d05780633ccfd60b146105f957806342842e0e14610603576102e4565b80630e772618116102a15780630e7726181461041d57806312065fe01461044657806318160ddd1461047157806318cae2691461049c5780631c838bd0146104d9578063239c70ae14610516576102e4565b806301ffc9a7146102e957806302329a291461032657806306c933d81461034f57806306fdde031461038c578063081812fc146103b7578063095ea7b3146103f4575b600080fd5b3480156102f557600080fd5b50610310600480360381019061030b91906144b8565b610c3c565b60405161031d91906152fc565b60405180910390f35b34801561033257600080fd5b5061034d6004803603810190610348919061448f565b610cb6565b005b34801561035b57600080fd5b506103766004803603810190610371919061427a565b610d4f565b60405161038391906152fc565b60405180910390f35b34801561039857600080fd5b506103a1610d6f565b6040516103ae9190615317565b60405180910390f35b3480156103c357600080fd5b506103de60048036038101906103d9919061454b565b610e01565b6040516103eb9190615206565b60405180910390f35b34801561040057600080fd5b5061041b6004803603810190610416919061440e565b610e86565b005b34801561042957600080fd5b50610444600480360381019061043f919061427a565b610f9e565b005b34801561045257600080fd5b5061045b61105e565b60405161046891906156f4565b60405180910390f35b34801561047d57600080fd5b506104866110e2565b60405161049391906156f4565b60405180910390f35b3480156104a857600080fd5b506104c360048036038101906104be919061427a565b6110ef565b6040516104d091906156f4565b60405180910390f35b3480156104e557600080fd5b5061050060048036038101906104fb919061427a565b611107565b60405161050d91906152fc565b60405180910390f35b34801561052257600080fd5b5061052b61125a565b60405161053891906156f4565b60405180910390f35b34801561054d57600080fd5b5061056860048036038101906105639190614308565b611260565b005b34801561057657600080fd5b50610591600480360381019061058c919061440e565b6112c0565b60405161059e91906156f4565b60405180910390f35b3480156105b357600080fd5b506105ce60048036038101906105c991906142a3565b611365565b005b3480156105dc57600080fd5b506105f760048036038101906105f2919061448f565b6113f3565b005b61060161148b565b005b34801561060f57600080fd5b5061062a60048036038101906106259190614308565b611587565b005b34801561063857600080fd5b50610653600480360381019061064e919061427a565b6115a7565b60405161066091906152da565b60405180910390f35b34801561067557600080fd5b5061067e611711565b60405161068b9190615206565b60405180910390f35b3480156106a057600080fd5b506106bb60048036038101906106b6919061427a565b611737565b6040516106c891906152fc565b60405180910390f35b3480156106dd57600080fd5b506106e66117fc565b6040516106f391906156f4565b60405180910390f35b34801561070857600080fd5b50610723600480360381019061071e919061454b565b611802565b60405161073091906156f4565b60405180910390f35b34801561074557600080fd5b50610760600480360381019061075b919061450a565b611899565b005b34801561076e57600080fd5b5061077761192f565b60405161078491906152fc565b60405180910390f35b34801561079957600080fd5b506107a2611942565b6040516107af91906156f4565b60405180910390f35b3480156107c457600080fd5b506107df60048036038101906107da919061454b565b611948565b6040516107ec9190615206565b60405180910390f35b34801561080157600080fd5b5061080a6119fa565b60405161081791906156d9565b60405180910390f35b34801561082c57600080fd5b506108476004803603810190610842919061444a565b611a6a565b005b34801561085557600080fd5b5061085e611c6e565b60405161086b9190615317565b60405180910390f35b34801561088057600080fd5b5061089b6004803603810190610896919061427a565b611cfc565b6040516108a891906156f4565b60405180910390f35b3480156108bd57600080fd5b506108c6611db4565b005b3480156108d457600080fd5b506108ef60048036038101906108ea919061427a565b611e3c565b6040516108fc91906156f4565b60405180910390f35b34801561091157600080fd5b5061091a611ee8565b60405161092791906156f4565b60405180910390f35b34801561093c57600080fd5b50610945611eee565b6040516109529190615206565b60405180910390f35b34801561096757600080fd5b50610970611f18565b60405161097d91906156f4565b60405180910390f35b34801561099257600080fd5b5061099b611f1e565b6040516109a89190615317565b60405180910390f35b3480156109bd57600080fd5b506109c6611fb0565b6040516109d391906152fc565b60405180910390f35b6109f660048036038101906109f1919061454b565b611fc1565b005b348015610a0457600080fd5b50610a1f6004803603810190610a1a91906143d2565b612621565b005b348015610a2d57600080fd5b50610a486004803603810190610a439190614357565b612637565b005b348015610a5657600080fd5b50610a5f612699565b604051610a6c91906156f4565b60405180910390f35b348015610a8157600080fd5b50610a9c6004803603810190610a97919061427a565b61269f565b604051610aa991906156f4565b60405180910390f35b348015610abe57600080fd5b50610ac7612822565b604051610ad49190615317565b60405180910390f35b348015610ae957600080fd5b50610b046004803603810190610aff919061454b565b6128b0565b604051610b119190615317565b60405180910390f35b348015610b2657600080fd5b50610b2f61295a565b604051610b3c9190615206565b60405180910390f35b348015610b5157600080fd5b50610b5a612980565b604051610b6791906156f4565b60405180910390f35b348015610b7c57600080fd5b50610b976004803603810190610b92919061450a565b612986565b005b348015610ba557600080fd5b50610bc06004803603810190610bbb919061427a565b612a1c565b604051610bcd91906156f4565b60405180910390f35b348015610be257600080fd5b50610bfd6004803603810190610bf891906142cc565b612ace565b604051610c0a91906152fc565b60405180910390f35b348015610c1f57600080fd5b50610c3a6004803603810190610c35919061427a565b612b62565b005b60007f780e9d63000000000000000000000000000000000000000000000000000000007bffffffffffffffffffffffffffffffffffffffffffffffffffffffff1916827bffffffffffffffffffffffffffffffffffffffffffffffffffffffff19161480610caf5750610cae82612c5a565b5b9050919050565b610cbe612d3c565b73ffffffffffffffffffffffffffffffffffffffff16610cdc611eee565b73ffffffffffffffffffffffffffffffffffffffff1614610d32576040517f08c379a0000000000000000000000000000000000000000000000000000000008152600401610d2990615579565b60405180910390fd5b80601560146101000a81548160ff02191690831515021790555050565b60176020528060005260406000206000915054906101000a900460ff1681565b606060008054610d7e90615a3d565b80601f0160208091040260200160405190810160405280929190818152602001828054610daa90615a3d565b8015610df75780601f10610dcc57610100808354040283529160200191610df7565b820191906000526020600020905b815481529060010190602001808311610dda57829003601f168201915b5050505050905090565b6000610e0c82612d44565b610e4b576040517f08c379a0000000000000000000000000000000000000000000000000000000008152600401610e4290615559565b60405180910390fd5b6004600083815260200190815260200160002060009054906101000a900473ffffffffffffffffffffffffffffffffffffffff169050919050565b6000610e9182611948565b90508073ffffffffffffffffffffffffffffffffffffffff168373ffffffffffffffffffffffffffffffffffffffff161415610f02576040517f08c379a0000000000000000000000000000000000000000000000000000000008152600401610ef990615619565b60405180910390fd5b8073ffffffffffffffffffffffffffffffffffffffff16610f21612d3c565b73ffffffffffffffffffffffffffffffffffffffff161480610f505750610f4f81610f4a612d3c565b612ace565b5b610f8f576040517f08c379a0000000000000000000000000000000000000000000000000000000008152600401610f8690615459565b60405180910390fd5b610f998383612db0565b505050565b610fa6612d3c565b73ffffffffffffffffffffffffffffffffffffffff16610fc4611eee565b73ffffffffffffffffffffffffffffffffffffffff161461101a576040517f08c379a000000000000000000000000000000000000000000000000000000000815260040161101190615579565b60405180910390fd5b80601560006101000a81548173ffffffffffffffffffffffffffffffffffffffff021916908373ffffffffffffffffffffffffffffffffffffffff16021790555050565b6000611068612d3c565b73ffffffffffffffffffffffffffffffffffffffff16611086611eee565b73ffffffffffffffffffffffffffffffffffffffff16146110dc576040517f08c379a00000000000000000000000000000000000000000000000000000000081526004016110d390615579565b60405180910390fd5b47905090565b6000600880549050905090565b60166020528060005260406000206000915090505481565b600080601560009054906101000a900473ffffffffffffffffffffffffffffffffffffffff16905060008173ffffffffffffffffffffffffffffffffffffffff1662fdd58e8560016040518363ffffffff1660e01b815260040161116c929190615288565b60206040518083038186803b15801561118457600080fd5b505afa158015611198573d6000803e3d6000fd5b505050506040513d601f19601f820116820180604052508101906111bc9190614574565b1180611252575060008173ffffffffffffffffffffffffffffffffffffffff1662fdd58e8560026040518363ffffffff1660e01b81526004016112009291906152b1565b60206040518083038186803b15801561121857600080fd5b505afa15801561122c573d6000803e3d6000fd5b505050506040513d601f19601f820116820180604052508101906112509190614574565b115b915050919050565b60115481565b61127161126b612d3c565b82612e69565b6112b0576040517f08c379a00000000000000000000000000000000000000000000000000000000081526004016112a790615659565b60405180910390fd5b6112bb838383612f47565b505050565b60006112cb83611cfc565b821061130c576040517f08c379a000000000000000000000000000000000000000000000000000000000815260040161130390615359565b60405180910390fd5b600660008473ffffffffffffffffffffffffffffffffffffffff1673ffffffffffffffffffffffffffffffffffffffff168152602001908152602001600020600083815260200190815260200160002054905092915050565b7f000000000000000000000000000000000000000000000000000000000000000073ffffffffffffffffffffffffffffffffffffffff166351cff8d9826040518263ffffffff1660e01b81526004016113be9190615221565b600060405180830381600087803b1580156113d857600080fd5b505af11580156113ec573d6000803e3d6000fd5b5050505050565b6113fb612d3c565b73ffffffffffffffffffffffffffffffffffffffff16611419611eee565b73ffffffffffffffffffffffffffffffffffffffff161461146f576040517f08c379a000000000000000000000000000000000000000000000000000000000815260040161146690615579565b60405180910390fd5b806015806101000a81548160ff02191690831515021790555050565b611493612d3c565b73ffffffffffffffffffffffffffffffffffffffff166114b1611eee565b73ffffffffffffffffffffffffffffffffffffffff1614611507576040517f08c379a00000000000000000000000000000000000000000000000000000000081526004016114fe90615579565b60405180910390fd5b6000611511611eee565b73ffffffffffffffffffffffffffffffffffffffff1647604051611534906151f1565b60006040518083038185875af1925050503d8060008114611571576040519150601f19603f3d011682016040523d82523d6000602084013e611576565b606091505b505090508061158457600080fd5b50565b6115a283838360405180602001604052806000815250612637565b505050565b6060600073ffffffffffffffffffffffffffffffffffffffff168273ffffffffffffffffffffffffffffffffffffffff161415611619576040517f08c379a0000000000000000000000000000000000000000000000000000000008152600401611610906155f9565b60405180910390fd5b600061162483611cfc565b905060008167ffffffffffffffff811115611668577f4e487b7100000000000000000000000000000000000000000000000000000000600052604160045260246000fd5b6040519080825280602002602001820160405280156116965781602001602082028036833780820191505090505b50905060005b82811015611706576116ae85826112c0565b8282815181106116e7577f4e487b7100000000000000000000000000000000000000000000000000000000600052603260045260246000fd5b60200260200101818152505080806116fe90615a6f565b91505061169c565b508092505050919050565b601460009054906101000a900473ffffffffffffffffffffffffffffffffffffffff1681565b60008073ffffffffffffffffffffffffffffffffffffffff168273ffffffffffffffffffffffffffffffffffffffff1614156117a8576040517f08c379a000000000000000000000000000000000000000000000000000000000815260040161179f906155f9565b60405180910390fd5b601760008373ffffffffffffffffffffffffffffffffffffffff1673ffffffffffffffffffffffffffffffffffffffff16815260200190815260200160002060009054906101000a900460ff169050919050565b600e5481565b600061180c6110e2565b821061184d576040517f08c379a000000000000000000000000000000000000000000000000000000000815260040161184490615679565b60405180910390fd5b60088281548110611887577f4e487b7100000000000000000000000000000000000000000000000000000000600052603260045260246000fd5b90600052602060002001549050919050565b6118a1612d3c565b73ffffffffffffffffffffffffffffffffffffffff166118bf611eee565b73ffffffffffffffffffffffffffffffffffffffff1614611915576040517f08c379a000000000000000000000000000000000000000000000000000000000815260040161190c90615579565b60405180910390fd5b80600b908051906020019061192b929190613fed565b5050565b601560149054906101000a900460ff1681565b60135481565b6000806002600084815260200190815260200160002060009054906101000a900473ffffffffffffffffffffffffffffffffffffffff169050600073ffffffffffffffffffffffffffffffffffffffff168173ffffffffffffffffffffffffffffffffffffffff1614156119f1576040517f08c379a00000000000000000000000000000000000000000000000000000000081526004016119e890615499565b60405180910390fd5b80915050919050565b611a02614073565b611a0a614073565b600d54816000018181525050600e54816020018181525050600f54816040018181525050601054816060018181525050611a426110e2565b8160800181815250506012548160a00181815250506011548160c00181815250508091505090565b611a72612d3c565b73ffffffffffffffffffffffffffffffffffffffff16611a90611eee565b73ffffffffffffffffffffffffffffffffffffffff1614611ae6576040517f08c379a0000000000000000000000000000000000000000000000000000000008152600401611add90615579565b60405180910390fd5b60005b82829050811015611c6957600073ffffffffffffffffffffffffffffffffffffffff16838383818110611b45577f4e487b7100000000000000000000000000000000000000000000000000000000600052603260045260246000fd5b9050602002016020810190611b5a919061427a565b73ffffffffffffffffffffffffffffffffffffffff161415611bb1576040517f08c379a0000000000000000000000000000000000000000000000000000000008152600401611ba890615339565b60405180910390fd5b600160176000858585818110611bf0577f4e487b7100000000000000000000000000000000000000000000000000000000600052603260045260246000fd5b9050602002016020810190611c05919061427a565b73ffffffffffffffffffffffffffffffffffffffff1673ffffffffffffffffffffffffffffffffffffffff16815260200190815260200160002060006101000a81548160ff0219169083151502179055508080611c6190615a6f565b915050611ae9565b505050565b600b8054611c7b90615a3d565b80601f0160208091040260200160405190810160405280929190818152602001828054611ca790615a3d565b8015611cf45780601f10611cc957610100808354040283529160200191611cf4565b820191906000526020600020905b815481529060010190602001808311611cd757829003601f168201915b505050505081565b60008073ffffffffffffffffffffffffffffffffffffffff168273ffffffffffffffffffffffffffffffffffffffff161415611d6d576040517f08c379a0000000000000000000000000000000000000000000000000000000008152600401611d6490615479565b60405180910390fd5b600360008373ffffffffffffffffffffffffffffffffffffffff1673ffffffffffffffffffffffffffffffffffffffff168152602001908152602001600020549050919050565b611dbc612d3c565b73ffffffffffffffffffffffffffffffffffffffff16611dda611eee565b73ffffffffffffffffffffffffffffffffffffffff1614611e30576040517f08c379a0000000000000000000000000000000000000000000000000000000008152600401611e2790615579565b60405180910390fd5b611e3a60006131a3565b565b60008073ffffffffffffffffffffffffffffffffffffffff168273ffffffffffffffffffffffffffffffffffffffff161415611ead576040517f08c379a0000000000000000000000000000000000000000000000000000000008152600401611ea4906155f9565b60405180910390fd5b611eb682611737565b15611ec557600f549050611ee3565b611ece82611107565b15611edd57600e549050611ee3565b600d5490505b919050565b600d5481565b6000600a60009054906101000a900473ffffffffffffffffffffffffffffffffffffffff16905090565b600f5481565b606060018054611f2d90615a3d565b80601f0160208091040260200160405190810160405280929190818152602001828054611f5990615a3d565b8015611fa65780601f10611f7b57610100808354040283529160200191611fa6565b820191906000526020600020905b815481529060010190602001808311611f8957829003601f168201915b5050505050905090565b60158054906101000a900460ff1681565b601560149054906101000a900460ff1615612011576040517f08c379a000000000000000000000000000000000000000000000000000000000815260040161200890615599565b60405180910390fd5b600061201b6110e2565b905060008211612060576040517f08c379a0000000000000000000000000000000000000000000000000000000008152600401612057906156b9565b60405180910390fd5b6011548211156120a5576040517f08c379a000000000000000000000000000000000000000000000000000000000815260040161209c906154d9565b60405180910390fd5b60105482826120b4919061583c565b11156120f5576040517f08c379a00000000000000000000000000000000000000000000000000000000081526004016120ec906154b9565b60405180910390fd5b6120fd611eee565b73ffffffffffffffffffffffffffffffffffffffff163373ffffffffffffffffffffffffffffffffffffffff161461254c576001151560158054906101000a900460ff16151514156121925761215233611737565b612191576040517f08c379a000000000000000000000000000000000000000000000000000000000815260040161218890615699565b60405180910390fd5b5b6000601660003373ffffffffffffffffffffffffffffffffffffffff1673ffffffffffffffffffffffffffffffffffffffff16815260200190815260200160002054905060125483826121e5919061583c565b1115612226576040517f08c379a000000000000000000000000000000000000000000000000000000000815260040161221d906153d9565b60405180910390fd5b61222f33611737565b1561238457600f54341015612279576040517f08c379a000000000000000000000000000000000000000000000000000000000815260040161227090615639565b60405180910390fd5b600183146122bc576040517f08c379a00000000000000000000000000000000000000000000000000000000081526004016122b390615539565b60405180910390fd5b601660003373ffffffffffffffffffffffffffffffffffffffff1673ffffffffffffffffffffffffffffffffffffffff168152602001908152602001600020600081548092919061230c90615a6f565b919050555061232733600184612322919061583c565b613269565b6000601760003373ffffffffffffffffffffffffffffffffffffffff1673ffffffffffffffffffffffffffffffffffffffff16815260200190815260200160002060006101000a81548160ff021916908315150217905550612546565b600061238f33611107565b156124125783600e546123a291906158c3565b3410156123e4576040517f08c379a00000000000000000000000000000000000000000000000000000000081526004016123db90615639565b60405180910390fd5b606460135485600e546123f791906158c3565b61240191906158c3565b61240b9190615892565b905061248c565b83600d5461242091906158c3565b341015612462576040517f08c379a000000000000000000000000000000000000000000000000000000000815260040161245990615639565b60405180910390fd5b606460135485600d5461247591906158c3565b61247f91906158c3565b6124899190615892565b90505b6000600190505b84811161251757601660003373ffffffffffffffffffffffffffffffffffffffff1673ffffffffffffffffffffffffffffffffffffffff16815260200190815260200160002060008154809291906124ea90615a6f565b91905055506125043382866124ff919061583c565b613269565b808061250f90615a6f565b915050612493565b50612544601460009054906101000a900473ffffffffffffffffffffffffffffffffffffffff1682613287565b505b506125d9565b6000600190505b8281116125d757601660003373ffffffffffffffffffffffffffffffffffffffff1673ffffffffffffffffffffffffffffffffffffffff16815260200190815260200160002060008154809291906125aa90615a6f565b91905055506125c43382846125bf919061583c565b613269565b80806125cf90615a6f565b915050612553565b505b813373ffffffffffffffffffffffffffffffffffffffff167f3fffaa5804a26fcec0d70b1d0fb0a2d0031df3a5f9c8af2127c2f4360e97b46360405160405180910390a35050565b61263361262c612d3c565b8383613317565b5050565b612648612642612d3c565b83612e69565b612687576040517f08c379a000000000000000000000000000000000000000000000000000000000815260040161267e90615659565b60405180910390fd5b61269384848484613484565b50505050565b60125481565b60008073ffffffffffffffffffffffffffffffffffffffff168273ffffffffffffffffffffffffffffffffffffffff161415612710576040517f08c379a0000000000000000000000000000000000000000000000000000000008152600401612707906155f9565b60405180910390fd5b600061271a6110e2565b90506000811015612760576040517f08c379a000000000000000000000000000000000000000000000000000000000815260040161275790615519565b60405180910390fd5b61276983611737565b1561277857600191505061281d565b600080601660008673ffffffffffffffffffffffffffffffffffffffff1673ffffffffffffffffffffffffffffffffffffffff168152602001908152602001600020549050806012546127cb919061591d565b60115410156127de5760115491506127ef565b806012546127ec919061591d565b91505b6000836010546127ff919061591d565b905082811015612815578094505050505061281d565b829450505050505b919050565b600c805461282f90615a3d565b80601f016020809104026020016040519081016040528092919081815260200182805461285b90615a3d565b80156128a85780601f1061287d576101008083540402835291602001916128a8565b820191906000526020600020905b81548152906001019060200180831161288b57829003601f168201915b505050505081565b60606128bb82612d44565b6128fa576040517f08c379a00000000000000000000000000000000000000000000000000000000081526004016128f1906155d9565b60405180910390fd5b60006129046134e0565b905060008151116129245760405180602001604052806000815250612952565b8061292e84613572565b600c604051602001612942939291906151c0565b6040516020818303038152906040525b915050919050565b601560009054906101000a900473ffffffffffffffffffffffffffffffffffffffff1681565b60105481565b61298e612d3c565b73ffffffffffffffffffffffffffffffffffffffff166129ac611eee565b73ffffffffffffffffffffffffffffffffffffffff1614612a02576040517f08c379a00000000000000000000000000000000000000000000000000000000081526004016129f990615579565b60405180910390fd5b80600c9080519060200190612a18929190613fed565b5050565b60007f000000000000000000000000000000000000000000000000000000000000000073ffffffffffffffffffffffffffffffffffffffff1663e3a9db1a836040518263ffffffff1660e01b8152600401612a779190615206565b60206040518083038186803b158015612a8f57600080fd5b505afa158015612aa3573d6000803e3d6000fd5b505050506040513d601f19601f82011682018060405250810190612ac79190614574565b9050919050565b6000600560008473ffffffffffffffffffffffffffffffffffffffff1673ffffffffffffffffffffffffffffffffffffffff16815260200190815260200160002060008373ffffffffffffffffffffffffffffffffffffffff1673ffffffffffffffffffffffffffffffffffffffff16815260200190815260200160002060009054906101000a900460ff16905092915050565b612b6a612d3c565b73ffffffffffffffffffffffffffffffffffffffff16612b88611eee565b73ffffffffffffffffffffffffffffffffffffffff1614612bde576040517f08c379a0000000000000000000000000000000000000000000000000000000008152600401612bd590615579565b60405180910390fd5b600073ffffffffffffffffffffffffffffffffffffffff168173ffffffffffffffffffffffffffffffffffffffff161415612c4e576040517f08c379a0000000000000000000000000000000000000000000000000000000008152600401612c4590615399565b60405180910390fd5b612c57816131a3565b50565b60007f80ac58cd000000000000000000000000000000000000000000000000000000007bffffffffffffffffffffffffffffffffffffffffffffffffffffffff1916827bffffffffffffffffffffffffffffffffffffffffffffffffffffffff19161480612d2557507f5b5e139f000000000000000000000000000000000000000000000000000000007bffffffffffffffffffffffffffffffffffffffffffffffffffffffff1916827bffffffffffffffffffffffffffffffffffffffffffffffffffffffff1916145b80612d355750612d348261371f565b5b9050919050565b600033905090565b60008073ffffffffffffffffffffffffffffffffffffffff166002600084815260200190815260200160002060009054906101000a900473ffffffffffffffffffffffffffffffffffffffff1673ffffffffffffffffffffffffffffffffffffffff1614159050919050565b816004600083815260200190815260200160002060006101000a81548173ffffffffffffffffffffffffffffffffffffffff021916908373ffffffffffffffffffffffffffffffffffffffff160217905550808273ffffffffffffffffffffffffffffffffffffffff16612e2383611948565b73ffffffffffffffffffffffffffffffffffffffff167f8c5be1e5ebec7d5bd14f71427d1e84f3dd0314c0f7b2291e5b200ac8c7c3b92560405160405180910390a45050565b6000612e7482612d44565b612eb3576040517f08c379a0000000000000000000000000000000000000000000000000000000008152600401612eaa90615439565b60405180910390fd5b6000612ebe83611948565b90508073ffffffffffffffffffffffffffffffffffffffff168473ffffffffffffffffffffffffffffffffffffffff161480612f2d57508373ffffffffffffffffffffffffffffffffffffffff16612f1584610e01565b73ffffffffffffffffffffffffffffffffffffffff16145b80612f3e5750612f3d8185612ace565b5b91505092915050565b8273ffffffffffffffffffffffffffffffffffffffff16612f6782611948565b73ffffffffffffffffffffffffffffffffffffffff1614612fbd576040517f08c379a0000000000000000000000000000000000000000000000000000000008152600401612fb4906155b9565b60405180910390fd5b600073ffffffffffffffffffffffffffffffffffffffff168273ffffffffffffffffffffffffffffffffffffffff16141561302d576040517f08c379a0000000000000000000000000000000000000000000000000000000008152600401613024906153f9565b60405180910390fd5b613038838383613789565b613043600082612db0565b6001600360008573ffffffffffffffffffffffffffffffffffffffff1673ffffffffffffffffffffffffffffffffffffffff1681526020019081526020016000206000828254613093919061591d565b925050819055506001600360008473ffffffffffffffffffffffffffffffffffffffff1673ffffffffffffffffffffffffffffffffffffffff16815260200190815260200160002060008282546130ea919061583c565b92505081905550816002600083815260200190815260200160002060006101000a81548173ffffffffffffffffffffffffffffffffffffffff021916908373ffffffffffffffffffffffffffffffffffffffff160217905550808273ffffffffffffffffffffffffffffffffffffffff168473ffffffffffffffffffffffffffffffffffffffff167fddf252ad1be2c89b69c2b068fc378daa952ba7f163c4a11628f55a4df523b3ef60405160405180910390a4505050565b6000600a60009054906101000a900473ffffffffffffffffffffffffffffffffffffffff16905081600a60006101000a81548173ffffffffffffffffffffffffffffffffffffffff021916908373ffffffffffffffffffffffffffffffffffffffff1602179055508173ffffffffffffffffffffffffffffffffffffffff168173ffffffffffffffffffffffffffffffffffffffff167f8be0079c531659141344cd1fd0a4f28419497f9722a3daafe3b4186f6b6457e060405160405180910390a35050565b61328382826040518060200160405280600081525061389d565b5050565b7f000000000000000000000000000000000000000000000000000000000000000073ffffffffffffffffffffffffffffffffffffffff1663f340fa0182846040518363ffffffff1660e01b81526004016132e19190615206565b6000604051808303818588803b1580156132fa57600080fd5b505af115801561330e573d6000803e3d6000fd5b50505050505050565b8173ffffffffffffffffffffffffffffffffffffffff168373ffffffffffffffffffffffffffffffffffffffff161415613386576040517f08c379a000000000000000000000000000000000000000000000000000000000815260040161337d90615419565b60405180910390fd5b80600560008573ffffffffffffffffffffffffffffffffffffffff1673ffffffffffffffffffffffffffffffffffffffff16815260200190815260200160002060008473ffffffffffffffffffffffffffffffffffffffff1673ffffffffffffffffffffffffffffffffffffffff16815260200190815260200160002060006101000a81548160ff0219169083151502179055508173ffffffffffffffffffffffffffffffffffffffff168373ffffffffffffffffffffffffffffffffffffffff167f17307eab39ab6107e8899845ad3d59bd9653f200f220920489ca2b5937696c318360405161347791906152fc565b60405180910390a3505050565b61348f848484612f47565b61349b848484846138f8565b6134da576040517f08c379a00000000000000000000000000000000000000000000000000000000081526004016134d190615379565b60405180910390fd5b50505050565b6060600b80546134ef90615a3d565b80601f016020809104026020016040519081016040528092919081815260200182805461351b90615a3d565b80156135685780601f1061353d57610100808354040283529160200191613568565b820191906000526020600020905b81548152906001019060200180831161354b57829003601f168201915b5050505050905090565b606060008214156135ba576040518060400160405280600181526020017f3000000000000000000000000000000000000000000000000000000000000000815250905061371a565b600082905060005b600082146135ec5780806135d590615a6f565b915050600a826135e59190615892565b91506135c2565b60008167ffffffffffffffff81111561362e577f4e487b7100000000000000000000000000000000000000000000000000000000600052604160045260246000fd5b6040519080825280601f01601f1916602001820160405280156136605781602001600182028036833780820191505090505b5090505b6000851461371357600182613679919061591d565b9150600a856136889190615ab8565b6030613694919061583c565b60f81b8183815181106136d0577f4e487b7100000000000000000000000000000000000000000000000000000000600052603260045260246000fd5b60200101907effffffffffffffffffffffffffffffffffffffffffffffffffffffffffffff1916908160001a905350600a8561370c9190615892565b9450613664565b8093505050505b919050565b60007f01ffc9a7000000000000000000000000000000000000000000000000000000007bffffffffffffffffffffffffffffffffffffffffffffffffffffffff1916827bffffffffffffffffffffffffffffffffffffffffffffffffffffffff1916149050919050565b613794838383613a8f565b600073ffffffffffffffffffffffffffffffffffffffff168373ffffffffffffffffffffffffffffffffffffffff1614156137d7576137d281613a94565b613816565b8173ffffffffffffffffffffffffffffffffffffffff168373ffffffffffffffffffffffffffffffffffffffff1614613815576138148382613add565b5b5b600073ffffffffffffffffffffffffffffffffffffffff168273ffffffffffffffffffffffffffffffffffffffff1614156138595761385481613c4a565b613898565b8273ffffffffffffffffffffffffffffffffffffffff168273ffffffffffffffffffffffffffffffffffffffff1614613897576138968282613d8d565b5b5b505050565b6138a78383613e0c565b6138b460008484846138f8565b6138f3576040517f08c379a00000000000000000000000000000000000000000000000000000000081526004016138ea90615379565b60405180910390fd5b505050565b60006139198473ffffffffffffffffffffffffffffffffffffffff16613fda565b15613a82578373ffffffffffffffffffffffffffffffffffffffff1663150b7a02613942612d3c565b8786866040518563ffffffff1660e01b8152600401613964949392919061523c565b602060405180830381600087803b15801561397e57600080fd5b505af19250505080156139af57506040513d601f19601f820116820180604052508101906139ac91906144e1565b60015b613a32573d80600081146139df576040519150601f19603f3d011682016040523d82523d6000602084013e6139e4565b606091505b50600081511415613a2a576040517f08c379a0000000000000000000000000000000000000000000000000000000008152600401613a2190615379565b60405180910390fd5b805181602001fd5b63150b7a0260e01b7bffffffffffffffffffffffffffffffffffffffffffffffffffffffff1916817bffffffffffffffffffffffffffffffffffffffffffffffffffffffff191614915050613a87565b600190505b949350505050565b505050565b6008805490506009600083815260200190815260200160002081905550600881908060018154018082558091505060019003906000526020600020016000909190919091505550565b60006001613aea84611cfc565b613af4919061591d565b9050600060076000848152602001908152602001600020549050818114613bd9576000600660008673ffffffffffffffffffffffffffffffffffffffff1673ffffffffffffffffffffffffffffffffffffffff168152602001908152602001600020600084815260200190815260200160002054905080600660008773ffffffffffffffffffffffffffffffffffffffff1673ffffffffffffffffffffffffffffffffffffffff168152602001908152602001600020600084815260200190815260200160002081905550816007600083815260200190815260200160002081905550505b6007600084815260200190815260200160002060009055600660008573ffffffffffffffffffffffffffffffffffffffff1673ffffffffffffffffffffffffffffffffffffffff16815260200190815260200160002060008381526020019081526020016000206000905550505050565b60006001600880549050613c5e919061591d565b9050600060096000848152602001908152602001600020549050600060088381548110613cb4577f4e487b7100000000000000000000000000000000000000000000000000000000600052603260045260246000fd5b906000526020600020015490508060088381548110613cfc577f4e487b7100000000000000000000000000000000000000000000000000000000600052603260045260246000fd5b906000526020600020018190555081600960008381526020019081526020016000208190555060096000858152602001908152602001600020600090556008805480613d71577f4e487b7100000000000000000000000000000000000000000000000000000000600052603160045260246000fd5b6001900381819060005260206000200160009055905550505050565b6000613d9883611cfc565b905081600660008573ffffffffffffffffffffffffffffffffffffffff1673ffffffffffffffffffffffffffffffffffffffff168152602001908152602001600020600083815260200190815260200160002081905550806007600084815260200190815260200160002081905550505050565b600073ffffffffffffffffffffffffffffffffffffffff168273ffffffffffffffffffffffffffffffffffffffff161415613e7c576040517f08c379a0000000000000000000000000000000000000000000000000000000008152600401613e73906154f9565b60405180910390fd5b613e8581612d44565b15613ec5576040517f08c379a0000000000000000000000000000000000000000000000000000000008152600401613ebc906153b9565b60405180910390fd5b613ed160008383613789565b6001600360008473ffffffffffffffffffffffffffffffffffffffff1673ffffffffffffffffffffffffffffffffffffffff1681526020019081526020016000206000828254613f21919061583c565b92505081905550816002600083815260200190815260200160002060006101000a81548173ffffffffffffffffffffffffffffffffffffffff021916908373ffffffffffffffffffffffffffffffffffffffff160217905550808273ffffffffffffffffffffffffffffffffffffffff16600073ffffffffffffffffffffffffffffffffffffffff167fddf252ad1be2c89b69c2b068fc378daa952ba7f163c4a11628f55a4df523b3ef60405160405180910390a45050565b600080823b905060008111915050919050565b828054613ff990615a3d565b90600052602060002090601f01602090048101928261401b5760008555614062565b82601f1061403457805160ff1916838001178555614062565b82800160010185558215614062579182015b82811115614061578251825591602001919060010190614046565b5b50905061406f91906140b0565b5090565b6040518060e00160405280600081526020016000815260200160008152602001600081526020016000815260200160008152602001600081525090565b5b808211156140c95760008160009055506001016140b1565b5090565b60006140e06140db84615740565b61570f565b9050828152602081018484840111156140f857600080fd5b6141038482856159fb565b509392505050565b600061411e61411984615770565b61570f565b90508281526020810184848401111561413657600080fd5b6141418482856159fb565b509392505050565b60008135905061415881615bb6565b92915050565b60008135905061416d81615bcd565b92915050565b60008083601f84011261418557600080fd5b8235905067ffffffffffffffff81111561419e57600080fd5b6020830191508360208202830111156141b657600080fd5b9250929050565b6000813590506141cc81615be4565b92915050565b6000813590506141e181615bfb565b92915050565b6000815190506141f681615bfb565b92915050565b600082601f83011261420d57600080fd5b813561421d8482602086016140cd565b91505092915050565b600082601f83011261423757600080fd5b813561424784826020860161410b565b91505092915050565b60008135905061425f81615c12565b92915050565b60008151905061427481615c12565b92915050565b60006020828403121561428c57600080fd5b600061429a84828501614149565b91505092915050565b6000602082840312156142b557600080fd5b60006142c38482850161415e565b91505092915050565b600080604083850312156142df57600080fd5b60006142ed85828601614149565b92505060206142fe85828601614149565b9150509250929050565b60008060006060848603121561431d57600080fd5b600061432b86828701614149565b935050602061433c86828701614149565b925050604061434d86828701614250565b9150509250925092565b6000806000806080858703121561436d57600080fd5b600061437b87828801614149565b945050602061438c87828801614149565b935050604061439d87828801614250565b925050606085013567ffffffffffffffff8111156143ba57600080fd5b6143c6878288016141fc565b91505092959194509250565b600080604083850312156143e557600080fd5b60006143f385828601614149565b9250506020614404858286016141bd565b9150509250929050565b6000806040838503121561442157600080fd5b600061442f85828601614149565b925050602061444085828601614250565b9150509250929050565b6000806020838503121561445d57600080fd5b600083013567ffffffffffffffff81111561447757600080fd5b61448385828601614173565b92509250509250929050565b6000602082840312156144a157600080fd5b60006144af848285016141bd565b91505092915050565b6000602082840312156144ca57600080fd5b60006144d8848285016141d2565b91505092915050565b6000602082840312156144f357600080fd5b6000614501848285016141e7565b91505092915050565b60006020828403121561451c57600080fd5b600082013567ffffffffffffffff81111561453657600080fd5b61454284828501614226565b91505092915050565b60006020828403121561455d57600080fd5b600061456b84828501614250565b91505092915050565b60006020828403121561458657600080fd5b600061459484828501614265565b91505092915050565b60006145a983836151a2565b60208301905092915050565b6145be81615963565b82525050565b6145cd81615951565b82525050565b60006145de826157c5565b6145e881856157f3565b93506145f3836157a0565b8060005b8381101561462457815161460b888261459d565b9750614616836157e6565b9250506001810190506145f7565b5085935050505092915050565b61463a81615975565b82525050565b600061464b826157d0565b6146558185615804565b9350614665818560208601615a0a565b61466e81615ba5565b840191505092915050565b614682816159d7565b82525050565b614691816159e9565b82525050565b60006146a2826157db565b6146ac8185615820565b93506146bc818560208601615a0a565b6146c581615ba5565b840191505092915050565b60006146db826157db565b6146e58185615831565b93506146f5818560208601615a0a565b80840191505092915050565b6000815461470e81615a3d565b6147188186615831565b94506001821660008114614733576001811461474457614777565b60ff19831686528186019350614777565b61474d856157b0565b60005b8381101561476f57815481890152600182019150602081019050614750565b838801955050505b50505092915050565b600061478d600f83615820565b91507f496e76616c6964206164647265737300000000000000000000000000000000006000830152602082019050919050565b60006147cd602b83615820565b91507f455243373231456e756d657261626c653a206f776e657220696e646578206f7560008301527f74206f6620626f756e64730000000000000000000000000000000000000000006020830152604082019050919050565b6000614833603283615820565b91507f4552433732313a207472616e7366657220746f206e6f6e20455243373231526560008301527f63656976657220696d706c656d656e74657200000000000000000000000000006020830152604082019050919050565b6000614899602683615820565b91507f4f776e61626c653a206e6577206f776e657220697320746865207a65726f206160008301527f64647265737300000000000000000000000000000000000000000000000000006020830152604082019050919050565b60006148ff601c83615820565b91507f4552433732313a20746f6b656e20616c7265616479206d696e746564000000006000830152602082019050919050565b600061493f601c83615820565b91507f6d6178204e4654207065722061646472657373206578636565646564000000006000830152602082019050919050565b600061497f602483615820565b91507f4552433732313a207472616e7366657220746f20746865207a65726f2061646460008301527f72657373000000000000000000000000000000000000000000000000000000006020830152604082019050919050565b60006149e5601983615820565b91507f4552433732313a20617070726f766520746f2063616c6c6572000000000000006000830152602082019050919050565b6000614a25602c83615820565b91507f4552433732313a206f70657261746f7220717565727920666f72206e6f6e657860008301527f697374656e7420746f6b656e00000000000000000000000000000000000000006020830152604082019050919050565b6000614a8b603883615820565b91507f4552433732313a20617070726f76652063616c6c6572206973206e6f74206f7760008301527f6e6572206e6f7220617070726f76656420666f7220616c6c00000000000000006020830152604082019050919050565b6000614af1602a83615820565b91507f4552433732313a2062616c616e636520717565727920666f7220746865207a6560008301527f726f2061646472657373000000000000000000000000000000000000000000006020830152604082019050919050565b6000614b57602983615820565b91507f4552433732313a206f776e657220717565727920666f72206e6f6e657869737460008301527f656e7420746f6b656e00000000000000000000000000000000000000000000006020830152604082019050919050565b6000614bbd601683615820565b91507f6d6178204e4654206c696d6974206578636565646564000000000000000000006000830152602082019050919050565b6000614bfd602483615820565b91507f6d6178206d696e7420616d6f756e74207065722073657373696f6e206578636560008301527f65646564000000000000000000000000000000000000000000000000000000006020830152604082019050919050565b6000614c63602083615820565b91507f4552433732313a206d696e7420746f20746865207a65726f20616464726573736000830152602082019050919050565b6000614ca3600b83615820565b91507f6e6f206e6674206c6566740000000000000000000000000000000000000000006000830152602082019050919050565b6000614ce3601583615820565b91507f6f6e6c79203120666f722057686974652d4c69737400000000000000000000006000830152602082019050919050565b6000614d23602c83615820565b91507f4552433732313a20617070726f76656420717565727920666f72206e6f6e657860008301527f697374656e7420746f6b656e00000000000000000000000000000000000000006020830152604082019050919050565b6000614d89602083615820565b91507f4f776e61626c653a2063616c6c6572206973206e6f7420746865206f776e65726000830152602082019050919050565b6000614dc9601683615820565b91507f74686520636f6e747261637420697320706175736564000000000000000000006000830152602082019050919050565b6000614e09602983615820565b91507f4552433732313a207472616e73666572206f6620746f6b656e2074686174206960008301527f73206e6f74206f776e00000000000000000000000000000000000000000000006020830152604082019050919050565b6000614e6f602f83615820565b91507f4552433732314d657461646174613a2055524920717565727920666f72206e6f60008301527f6e6578697374656e7420746f6b656e00000000000000000000000000000000006020830152604082019050919050565b6000614ed5600d83615820565b91507f6e6f7420616464726573732030000000000000000000000000000000000000006000830152602082019050919050565b6000614f15602183615820565b91507f4552433732313a20617070726f76616c20746f2063757272656e74206f776e6560008301527f72000000000000000000000000000000000000000000000000000000000000006020830152604082019050919050565b6000614f7b600083615815565b9150600082019050919050565b6000614f95601283615820565b91507f696e73756666696369656e742066756e647300000000000000000000000000006000830152602082019050919050565b6000614fd5603183615820565b91507f4552433732313a207472616e736665722063616c6c6572206973206e6f74206f60008301527f776e6572206e6f7220617070726f7665640000000000000000000000000000006020830152604082019050919050565b600061503b602c83615820565b91507f455243373231456e756d657261626c653a20676c6f62616c20696e646578206f60008301527f7574206f6620626f756e647300000000000000000000000000000000000000006020830152604082019050919050565b60006150a1601783615820565b91507f75736572206973206e6f742077686974656c69737465640000000000000000006000830152602082019050919050565b60006150e1601b83615820565b91507f6e65656420746f206d696e74206174206c656173742031204e465400000000006000830152602082019050919050565b60e08201600082015161512a60008501826151a2565b50602082015161513d60208501826151a2565b50604082015161515060408501826151a2565b50606082015161516360608501826151a2565b50608082015161517660808501826151a2565b5060a082015161518960a08501826151a2565b5060c082015161519c60c08501826151a2565b50505050565b6151ab816159cd565b82525050565b6151ba816159cd565b82525050565b60006151cc82866146d0565b91506151d882856146d0565b91506151e48284614701565b9150819050949350505050565b60006151fc82614f6e565b9150819050919050565b600060208201905061521b60008301846145c4565b92915050565b600060208201905061523660008301846145b5565b92915050565b600060808201905061525160008301876145c4565b61525e60208301866145c4565b61526b60408301856151b1565b818103606083015261527d8184614640565b905095945050505050565b600060408201905061529d60008301856145c4565b6152aa6020830184614679565b9392505050565b60006040820190506152c660008301856145c4565b6152d36020830184614688565b9392505050565b600060208201905081810360008301526152f481846145d3565b905092915050565b60006020820190506153116000830184614631565b92915050565b600060208201905081810360008301526153318184614697565b905092915050565b6000602082019050818103600083015261535281614780565b9050919050565b60006020820190508181036000830152615372816147c0565b9050919050565b6000602082019050818103600083015261539281614826565b9050919050565b600060208201905081810360008301526153b28161488c565b9050919050565b600060208201905081810360008301526153d2816148f2565b9050919050565b600060208201905081810360008301526153f281614932565b9050919050565b6000602082019050818103600083015261541281614972565b9050919050565b60006020820190508181036000830152615432816149d8565b9050919050565b6000602082019050818103600083015261545281614a18565b9050919050565b6000602082019050818103600083015261547281614a7e565b9050919050565b6000602082019050818103600083015261549281614ae4565b9050919050565b600060208201905081810360008301526154b281614b4a565b9050919050565b600060208201905081810360008301526154d281614bb0565b9050919050565b600060208201905081810360008301526154f281614bf0565b9050919050565b6000602082019050818103600083015261551281614c56565b9050919050565b6000602082019050818103600083015261553281614c96565b9050919050565b6000602082019050818103600083015261555281614cd6565b9050919050565b6000602082019050818103600083015261557281614d16565b9050919050565b6000602082019050818103600083015261559281614d7c565b9050919050565b600060208201905081810360008301526155b281614dbc565b9050919050565b600060208201905081810360008301526155d281614dfc565b9050919050565b600060208201905081810360008301526155f281614e62565b9050919050565b6000602082019050818103600083015261561281614ec8565b9050919050565b6000602082019050818103600083015261563281614f08565b9050919050565b6000602082019050818103600083015261565281614f88565b9050919050565b6000602082019050818103600083015261567281614fc8565b9050919050565b600060208201905081810360008301526156928161502e565b9050919050565b600060208201905081810360008301526156b281615094565b9050919050565b600060208201905081810360008301526156d2816150d4565b9050919050565b600060e0820190506156ee6000830184615114565b92915050565b600060208201905061570960008301846151b1565b92915050565b6000604051905081810181811067ffffffffffffffff8211171561573657615735615b76565b5b8060405250919050565b600067ffffffffffffffff82111561575b5761575a615b76565b5b601f19601f8301169050602081019050919050565b600067ffffffffffffffff82111561578b5761578a615b76565b5b601f19601f8301169050602081019050919050565b6000819050602082019050919050565b60008190508160005260206000209050919050565b600081519050919050565b600081519050919050565b600081519050919050565b6000602082019050919050565b600082825260208201905092915050565b600082825260208201905092915050565b600081905092915050565b600082825260208201905092915050565b600081905092915050565b6000615847826159cd565b9150615852836159cd565b9250827fffffffffffffffffffffffffffffffffffffffffffffffffffffffffffffffff0382111561588757615886615ae9565b5b828201905092915050565b600061589d826159cd565b91506158a8836159cd565b9250826158b8576158b7615b18565b5b828204905092915050565b60006158ce826159cd565b91506158d9836159cd565b9250817fffffffffffffffffffffffffffffffffffffffffffffffffffffffffffffffff048311821515161561591257615911615ae9565b5b828202905092915050565b6000615928826159cd565b9150615933836159cd565b92508282101561594657615945615ae9565b5b828203905092915050565b600061595c826159ad565b9050919050565b600061596e826159ad565b9050919050565b60008115159050919050565b60007fffffffff0000000000000000000000000000000000000000000000000000000082169050919050565b600073ffffffffffffffffffffffffffffffffffffffff82169050919050565b6000819050919050565b60006159e2826159cd565b9050919050565b60006159f4826159cd565b9050919050565b82818337600083830152505050565b60005b83811015615a28578082015181840152602081019050615a0d565b83811115615a37576000848401525b50505050565b60006002820490506001821680615a5557607f821691505b60208210811415615a6957615a68615b47565b5b50919050565b6000615a7a826159cd565b91507fffffffffffffffffffffffffffffffffffffffffffffffffffffffffffffffff821415615aad57615aac615ae9565b5b600182019050919050565b6000615ac3826159cd565b9150615ace836159cd565b925082615ade57615add615b18565b5b828206905092915050565b7f4e487b7100000000000000000000000000000000000000000000000000000000600052601160045260246000fd5b7f4e487b7100000000000000000000000000000000000000000000000000000000600052601260045260246000fd5b7f4e487b7100000000000000000000000000000000000000000000000000000000600052602260045260246000fd5b7f4e487b7100000000000000000000000000000000000000000000000000000000600052604160045260246000fd5b6000601f19601f8301169050919050565b615bbf81615951565b8114615bca57600080fd5b50565b615bd681615963565b8114615be157600080fd5b50565b615bed81615975565b8114615bf857600080fd5b50565b615c0481615981565b8114615c0f57600080fd5b50565b615c1b816159cd565b8114615c2657600080fd5b5056fea264697066735822122055b8fae75fef31190e354e96ec5b1f753e8427f7dd61c1b40fd96b7d6eac2c4964736f6c63430008000033608060405234801561001057600080fd5b5061002d61002261003260201b60201c565b61003a60201b60201c565b6100fe565b600033905090565b60008060009054906101000a900473ffffffffffffffffffffffffffffffffffffffff169050816000806101000a81548173ffffffffffffffffffffffffffffffffffffffff021916908373ffffffffffffffffffffffffffffffffffffffff1602179055508173ffffffffffffffffffffffffffffffffffffffff168173ffffffffffffffffffffffffffffffffffffffff167f8be0079c531659141344cd1fd0a4f28419497f9722a3daafe3b4186f6b6457e060405160405180910390a35050565b610bc08061010d6000396000f3fe6080604052600436106100555760003560e01c806351cff8d91461005a578063715018a6146100835780638da5cb5b1461009a578063e3a9db1a146100c5578063f2fde38b14610102578063f340fa011461012b575b600080fd5b34801561006657600080fd5b50610081600480360381019061007c91906107f5565b610147565b005b34801561008f57600080fd5b506100986102c7565b005b3480156100a657600080fd5b506100af61034f565b6040516100bc91906109b7565b60405180910390f35b3480156100d157600080fd5b506100ec60048036038101906100e791906107cc565b610378565b6040516100f99190610a52565b60405180910390f35b34801561010e57600080fd5b50610129600480360381019061012491906107cc565b6103c1565b005b610145600480360381019061014091906107cc565b6104b9565b005b61014f6105e2565b73ffffffffffffffffffffffffffffffffffffffff1661016d61034f565b73ffffffffffffffffffffffffffffffffffffffff16146101c3576040517f08c379a00000000000000000000000000000000000000000000000000000000081526004016101ba90610a32565b60405180910390fd5b6000600160008373ffffffffffffffffffffffffffffffffffffffff1673ffffffffffffffffffffffffffffffffffffffff1681526020019081526020016000205490506000600160008473ffffffffffffffffffffffffffffffffffffffff1673ffffffffffffffffffffffffffffffffffffffff16815260200190815260200160002081905550610275818373ffffffffffffffffffffffffffffffffffffffff166105ea90919063ffffffff16565b8173ffffffffffffffffffffffffffffffffffffffff167f7084f5476618d8e60b11ef0d7d3f06914655adb8793e28ff7f018d4c76d505d5826040516102bb9190610a52565b60405180910390a25050565b6102cf6105e2565b73ffffffffffffffffffffffffffffffffffffffff166102ed61034f565b73ffffffffffffffffffffffffffffffffffffffff1614610343576040517f08c379a000000000000000000000000000000000000000000000000000000000815260040161033a90610a32565b60405180910390fd5b61034d60006106de565b565b60008060009054906101000a900473ffffffffffffffffffffffffffffffffffffffff16905090565b6000600160008373ffffffffffffffffffffffffffffffffffffffff1673ffffffffffffffffffffffffffffffffffffffff168152602001908152602001600020549050919050565b6103c96105e2565b73ffffffffffffffffffffffffffffffffffffffff166103e761034f565b73ffffffffffffffffffffffffffffffffffffffff161461043d576040517f08c379a000000000000000000000000000000000000000000000000000000000815260040161043490610a32565b60405180910390fd5b600073ffffffffffffffffffffffffffffffffffffffff168173ffffffffffffffffffffffffffffffffffffffff1614156104ad576040517f08c379a00000000000000000000000000000000000000000000000000000000081526004016104a4906109d2565b60405180910390fd5b6104b6816106de565b50565b6104c16105e2565b73ffffffffffffffffffffffffffffffffffffffff166104df61034f565b73ffffffffffffffffffffffffffffffffffffffff1614610535576040517f08c379a000000000000000000000000000000000000000000000000000000000815260040161052c90610a32565b60405180910390fd5b600034905080600160008473ffffffffffffffffffffffffffffffffffffffff1673ffffffffffffffffffffffffffffffffffffffff16815260200190815260200160002060008282546105899190610a89565b925050819055508173ffffffffffffffffffffffffffffffffffffffff167f2da466a7b24304f47e87fa2e1e5a81b9831ce54fec19055ce277ca2f39ba42c4826040516105d69190610a52565b60405180910390a25050565b600033905090565b8047101561062d576040517f08c379a000000000000000000000000000000000000000000000000000000000815260040161062490610a12565b60405180910390fd5b60008273ffffffffffffffffffffffffffffffffffffffff1682604051610653906109a2565b60006040518083038185875af1925050503d8060008114610690576040519150601f19603f3d011682016040523d82523d6000602084013e610695565b606091505b50509050806106d9576040517f08c379a00000000000000000000000000000000000000000000000000000000081526004016106d0906109f2565b60405180910390fd5b505050565b60008060009054906101000a900473ffffffffffffffffffffffffffffffffffffffff169050816000806101000a81548173ffffffffffffffffffffffffffffffffffffffff021916908373ffffffffffffffffffffffffffffffffffffffff1602179055508173ffffffffffffffffffffffffffffffffffffffff168173ffffffffffffffffffffffffffffffffffffffff167f8be0079c531659141344cd1fd0a4f28419497f9722a3daafe3b4186f6b6457e060405160405180910390a35050565b6000813590506107b181610b5c565b92915050565b6000813590506107c681610b73565b92915050565b6000602082840312156107de57600080fd5b60006107ec848285016107a2565b91505092915050565b60006020828403121561080757600080fd5b6000610815848285016107b7565b91505092915050565b61082781610adf565b82525050565b600061083a602683610a78565b91507f4f776e61626c653a206e6577206f776e657220697320746865207a65726f206160008301527f64647265737300000000000000000000000000000000000000000000000000006020830152604082019050919050565b60006108a0603a83610a78565b91507f416464726573733a20756e61626c6520746f2073656e642076616c75652c207260008301527f6563697069656e74206d617920686176652072657665727465640000000000006020830152604082019050919050565b6000610906601d83610a78565b91507f416464726573733a20696e73756666696369656e742062616c616e63650000006000830152602082019050919050565b6000610946602083610a78565b91507f4f776e61626c653a2063616c6c6572206973206e6f7420746865206f776e65726000830152602082019050919050565b6000610986600083610a6d565b9150600082019050919050565b61099c81610b23565b82525050565b60006109ad82610979565b9150819050919050565b60006020820190506109cc600083018461081e565b92915050565b600060208201905081810360008301526109eb8161082d565b9050919050565b60006020820190508181036000830152610a0b81610893565b9050919050565b60006020820190508181036000830152610a2b816108f9565b9050919050565b60006020820190508181036000830152610a4b81610939565b9050919050565b6000602082019050610a676000830184610993565b92915050565b600081905092915050565b600082825260208201905092915050565b6000610a9482610b23565b9150610a9f83610b23565b9250827fffffffffffffffffffffffffffffffffffffffffffffffffffffffffffffffff03821115610ad457610ad3610b2d565b5b828201905092915050565b6000610aea82610b03565b9050919050565b6000610afc82610b03565b9050919050565b600073ffffffffffffffffffffffffffffffffffffffff82169050919050565b6000819050919050565b7f4e487b7100000000000000000000000000000000000000000000000000000000600052601160045260246000fd5b610b6581610adf565b8114610b7057600080fd5b50565b610b7c81610af1565b8114610b8757600080fd5b5056fea26469706673582212204e8ab707adc9ee645b828ddc4f791bd246fea3a80e8eeba1ce50ca1d3c28c2cb64736f6c63430008000033",
  "immutableReferences": {
    "111": [
      {
        "length": 32,
        "start": 4967
      },
      {
        "length": 32,
        "start": 10784
      },
      {
        "length": 32,
        "start": 12937
      }
    ]
  },
  "source": "// SPDX-License-Identifier: GPL-3.0\n\npragma solidity >=0.4.22 <0.9.0;\n\nimport \"@openzeppelin/contracts/token/ERC721/extensions/ERC721Enumerable.sol\";\nimport \"@openzeppelin/contracts/access/Ownable.sol\";\nimport \"@openzeppelin/contracts/security/PullPayment.sol\";\nimport \"@openzeppelin/contracts/token/ERC1155/ERC1155.sol\";\n\ncontract MariesCyborgs is ERC721Enumerable, Ownable, PullPayment {\n    using Strings for uint256;\n\n    string public baseURI;\n    string public baseExtension = \".json\";\n\n    //Price\n    uint256 public publicCost = 400 ether;\n    uint256 public EbisusbayMemberPrice = 350 ether;\n    uint256 public whiteListCost = 300 ether;\n\n    //Restrictions\n    uint256 public maxSupply = 2500;\n    uint256 public maxMintAmount = 25;\n    uint256 public nftPerAddressLimit = 50;\n\n    //Ebisusbay FEE : 5%\n    uint256 public ebisusbayFee = 5;\n    // EbisusbayWallet\n    address public ebisusbayWallet = 0x454cfAa623A629CC0b4017aEb85d54C42e91479d;\n    address public memberShipAddress =\n        0x3F1590A5984C89e6d5831bFB76788F3517Cdf034;\n\n    bool public paused = false;\n    bool public onlyWhitelisted = false;\n\n    //Struct with all Infos\n    struct Infos {\n        uint256 regularCost;\n        uint256 memberCost;\n        uint256 whitelistCost;\n        uint256 maxSupply;\n        uint256 totalSupply;\n        uint256 maxMintPerAddress;\n        uint256 maxMintPerTx;\n    }\n\n    // Infos[] public infosArr;\n\n    mapping(address => uint256) public addressMintedBalance;\n    mapping(address => bool) public whitelistedAddresses;\n\n    constructor(\n        string memory _name,\n        string memory _symbol,\n        string memory _initBaseURI\n    ) ERC721(_name, _symbol) {\n        setBaseURI(_initBaseURI);\n    }\n\n    function getInfos() public view returns (Infos memory) {\n        Infos memory allInfos;\n        allInfos.regularCost = publicCost;\n        allInfos.memberCost = EbisusbayMemberPrice;\n        allInfos.whitelistCost = whiteListCost;\n        allInfos.maxSupply = maxSupply;\n        allInfos.totalSupply = totalSupply();\n        allInfos.maxMintPerAddress = nftPerAddressLimit;\n        allInfos.maxMintPerTx = maxMintAmount;\n\n        return allInfos;\n    }\n\n    // internal\n    function _baseURI() internal view virtual override returns (string memory) {\n        return baseURI;\n    }\n\n    // Mint Function for White-List and Public Sale\n    event MintEvent(address indexed _from, uint256 indexed mintAmount);\n\n    function mint(uint256 _mintAmount) public payable {\n        require(!paused, \"the contract is paused\");\n        uint256 supply = totalSupply();\n        require(_mintAmount > 0, \"need to mint at least 1 NFT\");\n        require(\n            _mintAmount <= maxMintAmount,\n            \"max mint amount per session exceeded\"\n        );\n        require((supply + _mintAmount) <= maxSupply, \"max NFT limit exceeded\");\n\n        if (msg.sender != owner()) {\n            if (onlyWhitelisted == true) {\n                require(verifyUser(msg.sender), \"user is not whitelisted\");\n            }\n\n            uint256 ownerMintedCount = addressMintedBalance[msg.sender];\n            require(\n                (ownerMintedCount + _mintAmount) <= nftPerAddressLimit,\n                \"max NFT per address exceeded\"\n            );\n\n            if (verifyUser(msg.sender)) {\n                require(msg.value >= whiteListCost, \"insufficient funds\");\n                require(_mintAmount == 1, \"only 1 for White-List\");\n                addressMintedBalance[msg.sender]++;\n                _safeMint(msg.sender, supply + 1);\n                whitelistedAddresses[msg.sender] = false;\n            } else {\n                uint256 amountFee;\n                if (isEbisusBayMember(msg.sender)) {\n                    require(\n                        msg.value >= (EbisusbayMemberPrice * _mintAmount),\n                        \"insufficient funds\"\n                    );\n                    amountFee =\n                        ((EbisusbayMemberPrice * _mintAmount) * ebisusbayFee) /\n                        100;\n                } else {\n                    require(\n                        msg.value >= (publicCost * _mintAmount),\n                        \"insufficient funds\"\n                    );\n                    amountFee =\n                        ((publicCost * _mintAmount) * ebisusbayFee) /\n                        100;\n                }\n\n                for (uint256 i = 1; i <= _mintAmount; i++) {\n                    addressMintedBalance[msg.sender]++;\n                    _safeMint(msg.sender, supply + i);\n                }\n                _asyncTransfer(ebisusbayWallet, amountFee);\n            }\n        } else {\n            for (uint256 i = 1; i <= _mintAmount; i++) {\n                addressMintedBalance[msg.sender]++;\n                _safeMint(msg.sender, supply + i);\n            }\n        }\n\n        emit MintEvent(msg.sender, _mintAmount);\n    }\n\n    function walletOfOwner(address _owner)\n        public\n        view\n        returns (uint256[] memory)\n    {\n        require(_owner != address(0), \"not address 0\");\n        uint256 ownerTokenCount = balanceOf(_owner);\n        uint256[] memory tokenIds = new uint256[](ownerTokenCount);\n        for (uint256 i; i < ownerTokenCount; i++) {\n            tokenIds[i] = tokenOfOwnerByIndex(_owner, i);\n        }\n        return tokenIds;\n    }\n\n    function tokenURI(uint256 tokenId)\n        public\n        view\n        virtual\n        override\n        returns (string memory)\n    {\n        require(\n            _exists(tokenId),\n            \"ERC721Metadata: URI query for nonexistent token\"\n        );\n\n        string memory currentBaseURI = _baseURI();\n        return\n            bytes(currentBaseURI).length > 0\n                ? string(\n                    abi.encodePacked(\n                        currentBaseURI,\n                        tokenId.toString(),\n                        baseExtension\n                    )\n                )\n                : \"\";\n    }\n\n    function setBaseURI(string memory _newBaseURI) public onlyOwner {\n        baseURI = _newBaseURI;\n    }\n\n    function setBaseExtension(string memory _newBaseExtension)\n        public\n        onlyOwner\n    {\n        baseExtension = _newBaseExtension;\n    }\n\n    function pause(bool _state) public onlyOwner {\n        paused = _state;\n    }\n\n    function withdraw() public payable onlyOwner {\n        (bool os, ) = payable(owner()).call{value: address(this).balance}(\"\");\n        require(os);\n    }\n\n    // White List\n\n    function setAllowList(address[] calldata addresses) public onlyOwner {\n        for (uint256 i = 0; i < addresses.length; i++) {\n            require(addresses[i] != address(0), \"Invalid address\");\n            whitelistedAddresses[addresses[i]] = true;\n        }\n    }\n\n    function verifyUser(address _whitelistedAddress)\n        public\n        view\n        returns (bool)\n    {\n        require(_whitelistedAddress != address(0), \"not address 0\");\n        return whitelistedAddresses[_whitelistedAddress];\n    }\n\n    function setOnlyWhitelisted(bool _state) public onlyOwner {\n        onlyWhitelisted = _state;\n    }\n\n    // End of White List;\n\n    function getBalance() public view onlyOwner returns (uint256) {\n        return address(this).balance;\n    }\n\n    // Ebisusbay Member\n\n    function isEbisusBayMember(address _address) public view returns (bool) {\n        ERC1155 memberships = ERC1155(memberShipAddress);\n        return\n            memberships.balanceOf(_address, 1) > 0 ||\n            memberships.balanceOf(_address, 2) > 0;\n    }\n\n    function setMemberShipAddress(address _address) public onlyOwner {\n        memberShipAddress = _address;\n    }\n\n    //Get NFT Cost\n    function cost(address _address) public view returns (uint256) {\n        require(_address != address(0), \"not address 0\");\n        if (verifyUser(_address)) {\n            return whiteListCost;\n        }\n\n        if (isEbisusBayMember(_address)) {\n            return EbisusbayMemberPrice;\n        }\n\n        return publicCost;\n    }\n\n    // Can Mint Function\n  function canMint(address _address) public view returns(uint256){\n           require(_address != address(0), \"not address 0\");\n\n             uint256 supply = totalSupply();\n          require(supply >= 0, \"no nft left\");\n\n           if(verifyUser(_address)){\n               return 1;\n           }\n\n            uint256 _amount;\n            uint256 ownerMintedCount = addressMintedBalance[_address];\n\n            if(maxMintAmount < ( nftPerAddressLimit - ownerMintedCount) ){\n                _amount = maxMintAmount;\n            } else {\n                _amount =  (nftPerAddressLimit - ownerMintedCount);\n            }\n\n            uint256 _nftLeft = maxSupply - supply;\n\n            if(_nftLeft < _amount){\n                return _nftLeft;\n            } else {\n                return _amount;\n            }\n\n                \n    }\n    \n}\n",
  "sourcePath": "/home/romain/dev/marieNft/contracts/MariesCyborgs.sol",
  "compiler": {
    "name": "solc",
    "version": "0.8.0+commit.c7dfd78e.Emscripten.clang"
  },
  "schemaVersion": "3.4.4",
  "updatedAt": "2022-01-27T19:47:26.225Z",
  "networkType": "ethereum",
  "devdoc": {
    "kind": "dev",
    "methods": {
      "approve(address,uint256)": {
        "details": "See {IERC721-approve}."
      },
      "balanceOf(address)": {
        "details": "See {IERC721-balanceOf}."
      },
      "getApproved(uint256)": {
        "details": "See {IERC721-getApproved}."
      },
      "isApprovedForAll(address,address)": {
        "details": "See {IERC721-isApprovedForAll}."
      },
      "name()": {
        "details": "See {IERC721Metadata-name}."
      },
      "owner()": {
        "details": "Returns the address of the current owner."
      },
      "ownerOf(uint256)": {
        "details": "See {IERC721-ownerOf}."
      },
      "payments(address)": {
        "details": "Returns the payments owed to an address.",
        "params": {
          "dest": "The creditor's address."
        }
      },
      "renounceOwnership()": {
        "details": "Leaves the contract without owner. It will not be possible to call `onlyOwner` functions anymore. Can only be called by the current owner. NOTE: Renouncing ownership will leave the contract without an owner, thereby removing any functionality that is only available to the owner."
      },
      "safeTransferFrom(address,address,uint256)": {
        "details": "See {IERC721-safeTransferFrom}."
      },
      "safeTransferFrom(address,address,uint256,bytes)": {
        "details": "See {IERC721-safeTransferFrom}."
      },
      "setApprovalForAll(address,bool)": {
        "details": "See {IERC721-setApprovalForAll}."
      },
      "supportsInterface(bytes4)": {
        "details": "See {IERC165-supportsInterface}."
      },
      "symbol()": {
        "details": "See {IERC721Metadata-symbol}."
      },
      "tokenByIndex(uint256)": {
        "details": "See {IERC721Enumerable-tokenByIndex}."
      },
      "tokenOfOwnerByIndex(address,uint256)": {
        "details": "See {IERC721Enumerable-tokenOfOwnerByIndex}."
      },
      "tokenURI(uint256)": {
        "details": "See {IERC721Metadata-tokenURI}."
      },
      "totalSupply()": {
        "details": "See {IERC721Enumerable-totalSupply}."
      },
      "transferFrom(address,address,uint256)": {
        "details": "See {IERC721-transferFrom}."
      },
      "transferOwnership(address)": {
        "details": "Transfers ownership of the contract to a new account (`newOwner`). Can only be called by the current owner."
      },
      "withdrawPayments(address)": {
        "details": "Withdraw accumulated payments, forwarding all gas to the recipient. Note that _any_ account can call this function, not just the `payee`. This means that contracts unaware of the `PullPayment` protocol can still receive funds this way, by having a separate account call {withdrawPayments}. WARNING: Forwarding all gas opens the door to reentrancy vulnerabilities. Make sure you trust the recipient, or are either following the checks-effects-interactions pattern or using {ReentrancyGuard}.",
        "params": {
          "payee": "Whose payments will be withdrawn."
        }
      }
    },
    "version": 1
  },
  "userdoc": {
    "kind": "user",
    "methods": {},
    "version": 1
  }
}