{
  "_format": "hh-sol-artifact-1",
  "contractName": "EbisusBayMembership",
  "sourceName": "contracts/EBMembership.sol",
  "abi": [
    {
      "inputs": [],
      "stateMutability": "nonpayable",
      "type": "constructor"
    },
    {
      "anonymous": false,
      "inputs": [
        {
          "indexed": true,
          "internalType": "address",
          "name": "account",
          "type": "address"
        },
        {
          "indexed": true,
          "internalType": "address",
          "name": "operator",
          "type": "address"
        },
        {
          "indexed": false,
          "internalType": "bool",
          "name": "approved",
          "type": "bool"
        }
      ],
      "name": "ApprovalForAll",
      "type": "event"
    },
    {
      "anonymous": false,
      "inputs": [
        {
          "indexed": true,
          "internalType": "address",
          "name": "previousOwner",
          "type": "address"
        },
        {
          "indexed": true,
          "internalType": "address",
          "name": "newOwner",
          "type": "address"
        }
      ],
      "name": "OwnershipTransferred",
      "type": "event"
    },
    {
      "anonymous": false,
      "inputs": [
        {
          "indexed": false,
          "internalType": "address",
          "name": "account",
          "type": "address"
        }
      ],
      "name": "Paused",
      "type": "event"
    },
    {
      "anonymous": false,
      "inputs": [
        {
          "indexed": false,
          "internalType": "address",
          "name": "referrer",
          "type": "address"
        },
        {
          "indexed": false,
          "internalType": "bytes32",
          "name": "code",
          "type": "bytes32"
        }
      ],
      "name": "Registered",
      "type": "event"
    },
    {
      "anonymous": false,
      "inputs": [
        {
          "indexed": true,
          "internalType": "address",
          "name": "operator",
          "type": "address"
        },
        {
          "indexed": true,
          "internalType": "address",
          "name": "from",
          "type": "address"
        },
        {
          "indexed": true,
          "internalType": "address",
          "name": "to",
          "type": "address"
        },
        {
          "indexed": false,
          "internalType": "uint256[]",
          "name": "ids",
          "type": "uint256[]"
        },
        {
          "indexed": false,
          "internalType": "uint256[]",
          "name": "values",
          "type": "uint256[]"
        }
      ],
      "name": "TransferBatch",
      "type": "event"
    },
    {
      "anonymous": false,
      "inputs": [
        {
          "indexed": true,
          "internalType": "address",
          "name": "operator",
          "type": "address"
        },
        {
          "indexed": true,
          "internalType": "address",
          "name": "from",
          "type": "address"
        },
        {
          "indexed": true,
          "internalType": "address",
          "name": "to",
          "type": "address"
        },
        {
          "indexed": false,
          "internalType": "uint256",
          "name": "id",
          "type": "uint256"
        },
        {
          "indexed": false,
          "internalType": "uint256",
          "name": "value",
          "type": "uint256"
        }
      ],
      "name": "TransferSingle",
      "type": "event"
    },
    {
      "anonymous": false,
      "inputs": [
        {
          "indexed": false,
          "internalType": "string",
          "name": "value",
          "type": "string"
        },
        {
          "indexed": true,
          "internalType": "uint256",
          "name": "id",
          "type": "uint256"
        }
      ],
      "name": "URI",
      "type": "event"
    },
    {
      "anonymous": false,
      "inputs": [
        {
          "indexed": false,
          "internalType": "address",
          "name": "account",
          "type": "address"
        }
      ],
      "name": "Unpaused",
      "type": "event"
    },
    {
      "inputs": [],
      "name": "FOUNDER",
      "outputs": [
        {
          "internalType": "uint64",
          "name": "",
          "type": "uint64"
        }
      ],
      "stateMutability": "view",
      "type": "function"
    },
    {
      "inputs": [],
      "name": "MAX_FOUNDER",
      "outputs": [
        {
          "internalType": "uint16",
          "name": "",
          "type": "uint16"
        }
      ],
      "stateMutability": "view",
      "type": "function"
    },
    {
      "inputs": [],
      "name": "MAX_VIP",
      "outputs": [
        {
          "internalType": "uint16",
          "name": "",
          "type": "uint16"
        }
      ],
      "stateMutability": "view",
      "type": "function"
    },
    {
      "inputs": [],
      "name": "MAX_VVIP",
      "outputs": [
        {
          "internalType": "uint16",
          "name": "",
          "type": "uint16"
        }
      ],
      "stateMutability": "view",
      "type": "function"
    },
    {
      "inputs": [],
      "name": "VIP",
      "outputs": [
        {
          "internalType": "uint64",
          "name": "",
          "type": "uint64"
        }
      ],
      "stateMutability": "view",
      "type": "function"
    },
    {
      "inputs": [],
      "name": "VVIP",
      "outputs": [
        {
          "internalType": "uint64",
          "name": "",
          "type": "uint64"
        }
      ],
      "stateMutability": "view",
      "type": "function"
    },
    {
      "inputs": [
        {
          "internalType": "address",
          "name": "account",
          "type": "address"
        },
        {
          "internalType": "uint256",
          "name": "id",
          "type": "uint256"
        }
      ],
      "name": "balanceOf",
      "outputs": [
        {
          "internalType": "uint256",
          "name": "",
          "type": "uint256"
        }
      ],
      "stateMutability": "view",
      "type": "function"
    },
    {
      "inputs": [
        {
          "internalType": "address[]",
          "name": "accounts",
          "type": "address[]"
        },
        {
          "internalType": "uint256[]",
          "name": "ids",
          "type": "uint256[]"
        }
      ],
      "name": "balanceOfBatch",
      "outputs": [
        {
          "internalType": "uint256[]",
          "name": "",
          "type": "uint256[]"
        }
      ],
      "stateMutability": "view",
      "type": "function"
    },
    {
      "inputs": [
        {
          "internalType": "address",
          "name": "account",
          "type": "address"
        },
        {
          "internalType": "uint256",
          "name": "id",
          "type": "uint256"
        },
        {
          "internalType": "uint256",
          "name": "value",
          "type": "uint256"
        }
      ],
      "name": "burn",
      "outputs": [],
      "stateMutability": "nonpayable",
      "type": "function"
    },
    {
      "inputs": [
        {
          "internalType": "address",
          "name": "account",
          "type": "address"
        },
        {
          "internalType": "uint256[]",
          "name": "ids",
          "type": "uint256[]"
        },
        {
          "internalType": "uint256[]",
          "name": "values",
          "type": "uint256[]"
        }
      ],
      "name": "burnBatch",
      "outputs": [],
      "stateMutability": "nonpayable",
      "type": "function"
    },
    {
      "inputs": [
        {
          "internalType": "address",
          "name": "",
          "type": "address"
        }
      ],
      "name": "codes",
      "outputs": [
        {
          "internalType": "bytes32",
          "name": "",
          "type": "bytes32"
        }
      ],
      "stateMutability": "view",
      "type": "function"
    },
    {
      "inputs": [],
      "name": "founderCount",
      "outputs": [
        {
          "internalType": "uint256",
          "name": "",
          "type": "uint256"
        }
      ],
      "stateMutability": "view",
      "type": "function"
    },
    {
      "inputs": [],
      "name": "founderPrice",
      "outputs": [
        {
          "internalType": "uint256",
          "name": "",
          "type": "uint256"
        }
      ],
      "stateMutability": "view",
      "type": "function"
    },
    {
      "inputs": [],
      "name": "founderReferralDiscount",
      "outputs": [
        {
          "internalType": "uint256",
          "name": "",
          "type": "uint256"
        }
      ],
      "stateMutability": "view",
      "type": "function"
    },
    {
      "inputs": [
        {
          "internalType": "address",
          "name": "account",
          "type": "address"
        },
        {
          "internalType": "address",
          "name": "operator",
          "type": "address"
        }
      ],
      "name": "isApprovedForAll",
      "outputs": [
        {
          "internalType": "bool",
          "name": "",
          "type": "bool"
        }
      ],
      "stateMutability": "view",
      "type": "function"
    },
    {
      "inputs": [
        {
          "internalType": "uint256",
          "name": "_id",
          "type": "uint256"
        },
        {
          "internalType": "uint256",
          "name": "_amount",
          "type": "uint256"
        },
        {
          "internalType": "bytes",
          "name": "_data",
          "type": "bytes"
        }
      ],
      "name": "mint",
      "outputs": [],
      "stateMutability": "payable",
      "type": "function"
    },
    {
      "inputs": [],
      "name": "owner",
      "outputs": [
        {
          "internalType": "address",
          "name": "",
          "type": "address"
        }
      ],
      "stateMutability": "view",
      "type": "function"
    },
    {
      "inputs": [],
      "name": "pause",
      "outputs": [],
      "stateMutability": "nonpayable",
      "type": "function"
    },
    {
      "inputs": [],
      "name": "paused",
      "outputs": [
        {
          "internalType": "bool",
          "name": "",
          "type": "bool"
        }
      ],
      "stateMutability": "view",
      "type": "function"
    },
    {
      "inputs": [
        {
          "internalType": "address",
          "name": "dest",
          "type": "address"
        }
      ],
      "name": "payments",
      "outputs": [
        {
          "internalType": "uint256",
          "name": "",
          "type": "uint256"
        }
      ],
      "stateMutability": "view",
      "type": "function"
    },
    {
      "inputs": [
        {
          "internalType": "bytes32",
          "name": "_code",
          "type": "bytes32"
        }
      ],
      "name": "register",
      "outputs": [],
      "stateMutability": "nonpayable",
      "type": "function"
    },
    {
      "inputs": [
        {
          "internalType": "address",
          "name": "_referrer",
          "type": "address"
        },
        {
          "internalType": "bytes32",
          "name": "_code",
          "type": "bytes32"
        }
      ],
      "name": "registerUser",
      "outputs": [],
      "stateMutability": "nonpayable",
      "type": "function"
    },
    {
      "inputs": [],
      "name": "renounceOwnership",
      "outputs": [],
      "stateMutability": "nonpayable",
      "type": "function"
    },
    {
      "inputs": [
        {
          "internalType": "address",
          "name": "from",
          "type": "address"
        },
        {
          "internalType": "address",
          "name": "to",
          "type": "address"
        },
        {
          "internalType": "uint256[]",
          "name": "ids",
          "type": "uint256[]"
        },
        {
          "internalType": "uint256[]",
          "name": "amounts",
          "type": "uint256[]"
        },
        {
          "internalType": "bytes",
          "name": "data",
          "type": "bytes"
        }
      ],
      "name": "safeBatchTransferFrom",
      "outputs": [],
      "stateMutability": "nonpayable",
      "type": "function"
    },
    {
      "inputs": [
        {
          "internalType": "address",
          "name": "from",
          "type": "address"
        },
        {
          "internalType": "address",
          "name": "to",
          "type": "address"
        },
        {
          "internalType": "uint256",
          "name": "id",
          "type": "uint256"
        },
        {
          "internalType": "uint256",
          "name": "amount",
          "type": "uint256"
        },
        {
          "internalType": "bytes",
          "name": "data",
          "type": "bytes"
        }
      ],
      "name": "safeTransferFrom",
      "outputs": [],
      "stateMutability": "nonpayable",
      "type": "function"
    },
    {
      "inputs": [
        {
          "internalType": "address",
          "name": "operator",
          "type": "address"
        },
        {
          "internalType": "bool",
          "name": "approved",
          "type": "bool"
        }
      ],
      "name": "setApprovalForAll",
      "outputs": [],
      "stateMutability": "nonpayable",
      "type": "function"
    },
    {
      "inputs": [
        {
          "internalType": "string",
          "name": "_newuri",
          "type": "string"
        },
        {
          "internalType": "uint16",
          "name": "_id",
          "type": "uint16"
        }
      ],
      "name": "setURI",
      "outputs": [],
      "stateMutability": "nonpayable",
      "type": "function"
    },
    {
      "inputs": [
        {
          "internalType": "bytes4",
          "name": "interfaceId",
          "type": "bytes4"
        }
      ],
      "name": "supportsInterface",
      "outputs": [
        {
          "internalType": "bool",
          "name": "",
          "type": "bool"
        }
      ],
      "stateMutability": "view",
      "type": "function"
    },
    {
      "inputs": [
        {
          "internalType": "address",
          "name": "newOwner",
          "type": "address"
        }
      ],
      "name": "transferOwnership",
      "outputs": [],
      "stateMutability": "nonpayable",
      "type": "function"
    },
    {
      "inputs": [],
      "name": "unpause",
      "outputs": [],
      "stateMutability": "nonpayable",
      "type": "function"
    },
    {
      "inputs": [
        {
          "internalType": "uint256",
          "name": "_price",
          "type": "uint256"
        },
        {
          "internalType": "uint256",
          "name": "_discount",
          "type": "uint256"
        },
        {
          "internalType": "uint64",
          "name": "_id",
          "type": "uint64"
        }
      ],
      "name": "updatePrice",
      "outputs": [],
      "stateMutability": "nonpayable",
      "type": "function"
    },
    {
      "inputs": [
        {
          "internalType": "uint256",
          "name": "_id",
          "type": "uint256"
        }
      ],
      "name": "uri",
      "outputs": [
        {
          "internalType": "string",
          "name": "",
          "type": "string"
        }
      ],
      "stateMutability": "view",
      "type": "function"
    },
    {
      "inputs": [],
      "name": "vipCount",
      "outputs": [
        {
          "internalType": "uint256",
          "name": "",
          "type": "uint256"
        }
      ],
      "stateMutability": "view",
      "type": "function"
    },
    {
      "inputs": [],
      "name": "vipPrice",
      "outputs": [
        {
          "internalType": "uint256",
          "name": "",
          "type": "uint256"
        }
      ],
      "stateMutability": "view",
      "type": "function"
    },
    {
      "inputs": [],
      "name": "vipReferralDiscount",
      "outputs": [
        {
          "internalType": "uint256",
          "name": "",
          "type": "uint256"
        }
      ],
      "stateMutability": "view",
      "type": "function"
    },
    {
      "inputs": [],
      "name": "vvipCount",
      "outputs": [
        {
          "internalType": "uint256",
          "name": "",
          "type": "uint256"
        }
      ],
      "stateMutability": "view",
      "type": "function"
    },
    {
      "inputs": [],
      "name": "vvipPrice",
      "outputs": [
        {
          "internalType": "uint256",
          "name": "",
          "type": "uint256"
        }
      ],
      "stateMutability": "view",
      "type": "function"
    },
    {
      "inputs": [],
      "name": "vvipReferralDiscount",
      "outputs": [
        {
          "internalType": "uint256",
          "name": "",
          "type": "uint256"
        }
      ],
      "stateMutability": "view",
      "type": "function"
    },
    {
      "inputs": [],
      "name": "withdraw",
      "outputs": [],
      "stateMutability": "payable",
      "type": "function"
    },
    {
      "inputs": [
        {
          "internalType": "address payable",
          "name": "payee",
          "type": "address"
        }
      ],
      "name": "withdrawPayments",
      "outputs": [],
      "stateMutability": "nonpayable",
      "type": "function"
    }
  ],
  "bytecode": "0x60a060405260006009556000600a556000600b55680d8d726b7177a80000600c5567ad78ebc5ac620000600d55683635c9adc5dea00000600e556802b5e3af16b1880000600f5569021e19e0c9bab2400000601055681b1ae4d6e2ef5000006011553480156200006e57600080fd5b50604051806020016040528060008152506200009081620004bd60201b60201c565b50620000b1620000a5620004d960201b60201c565b620004e160201b60201c565b6000600360146101000a81548160ff021916908315150217905550604051620000da9062000ca0565b604051809103906000f080158015620000f7573d6000803e3d6000fd5b5073ffffffffffffffffffffffffffffffffffffffff1660808173ffffffffffffffffffffffffffffffffffffffff1660601b8152505060016008819055506000600367ffffffffffffffff8111156200017a577f4e487b7100000000000000000000000000000000000000000000000000000000600052604160045260246000fd5b604051908082528060200260200182016040528015620001a95781602001602082028036833780820191505090505b509050600167ffffffffffffffff1681600081518110620001f3577f4e487b7100000000000000000000000000000000000000000000000000000000600052603260045260246000fd5b602002602001018181525050600267ffffffffffffffff168160018151811062000246577f4e487b7100000000000000000000000000000000000000000000000000000000600052603260045260246000fd5b602002602001018181525050600367ffffffffffffffff168160028151811062000299577f4e487b7100000000000000000000000000000000000000000000000000000000600052603260045260246000fd5b6020026020010181815250506000600367ffffffffffffffff811115620002e9577f4e487b7100000000000000000000000000000000000000000000000000000000600052604160045260246000fd5b604051908082528060200260200182016040528015620003185781602001602082028036833780820191505090505b50905060c88160008151811062000358577f4e487b7100000000000000000000000000000000000000000000000000000000600052603260045260246000fd5b602002602001018181525050601481600181518110620003a1577f4e487b7100000000000000000000000000000000000000000000000000000000600052603260045260246000fd5b602002602001018181525050600181600281518110620003ea577f4e487b7100000000000000000000000000000000000000000000000000000000600052603260045260246000fd5b6020026020010181815250506200041933838360405180602001604052806000815250620005a760201b60201c565b60c86009819055506014600a819055506001600b819055506200045d60405180606001604052806035815260200162007db26035913960016200083960201b60201c565b6200048960405180606001604052806035815260200162007d7d6035913960026200083960201b60201c565b620004b560405180606001604052806035815260200162007de76035913960036200083960201b60201c565b50506200170e565b8060029080519060200190620004d592919062000cae565b5050565b600033905090565b6000600360009054906101000a900473ffffffffffffffffffffffffffffffffffffffff16905081600360006101000a81548173ffffffffffffffffffffffffffffffffffffffff021916908373ffffffffffffffffffffffffffffffffffffffff1602179055508173ffffffffffffffffffffffffffffffffffffffff168173ffffffffffffffffffffffffffffffffffffffff167f8be0079c531659141344cd1fd0a4f28419497f9722a3daafe3b4186f6b6457e060405160405180910390a35050565b600073ffffffffffffffffffffffffffffffffffffffff168473ffffffffffffffffffffffffffffffffffffffff1614156200061a576040517f08c379a0000000000000000000000000000000000000000000000000000000008152600401620006119062001177565b60405180910390fd5b815183511462000661576040517f08c379a0000000000000000000000000000000000000000000000000000000008152600401620006589062001155565b60405180910390fd5b600062000673620004d960201b60201c565b90506200068c81600087878787620009c460201b60201c565b60005b84518110156200079957838181518110620006d3577f4e487b7100000000000000000000000000000000000000000000000000000000600052603260045260246000fd5b602002602001015160008087848151811062000718577f4e487b7100000000000000000000000000000000000000000000000000000000600052603260045260246000fd5b6020026020010151815260200190815260200160002060008873ffffffffffffffffffffffffffffffffffffffff1673ffffffffffffffffffffffffffffffffffffffff16815260200190815260200160002060008282546200077c919062001214565b92505081905550808062000790906200137d565b9150506200068f565b508473ffffffffffffffffffffffffffffffffffffffff16600073ffffffffffffffffffffffffffffffffffffffff168273ffffffffffffffffffffffffffffffffffffffff167f4a39dc06d4c0dbc64b70af90fd698a233a518aa5d07e595d983b8c0526c8f7fb8787604051620008139291906200104c565b60405180910390a4620008328160008787878762000a3a60201b60201c565b5050505050565b62000849620004d960201b60201c565b73ffffffffffffffffffffffffffffffffffffffff166200086f62000c4460201b60201c565b73ffffffffffffffffffffffffffffffffffffffff1614620008c8576040517f08c379a0000000000000000000000000000000000000000000000000000000008152600401620008bf9062001133565b60405180910390fd5b8061ffff16600167ffffffffffffffff16811480620008f15750600267ffffffffffffffff1681145b80620009075750600367ffffffffffffffff1681145b62000949576040517f08c379a00000000000000000000000000000000000000000000000000000000081526004016200094090620010ef565b60405180910390fd5b82601260008461ffff1667ffffffffffffffff16815260200190815260200160002090805190602001906200098092919062000cae565b508161ffff167f6bb7ff708619ba0610cba295a58592e0451dee2622938c8755667688daf3529b84604051620009b7919062001087565b60405180910390a2505050565b620009d462000c6e60201b60201c565b1562000a17576040517f08c379a000000000000000000000000000000000000000000000000000000000815260040162000a0e9062001111565b60405180910390fd5b62000a3286868686868662000c8560201b620020781760201c565b505050505050565b62000a668473ffffffffffffffffffffffffffffffffffffffff1662000c8d60201b620020801760201c565b1562000c3c578373ffffffffffffffffffffffffffffffffffffffff1663bc197c8187878686866040518663ffffffff1660e01b815260040162000aaf95949392919062000fda565b602060405180830381600087803b15801562000aca57600080fd5b505af192505050801562000afe57506040513d601f19601f8201168201806040525081019062000afb919062000d75565b60015b62000bb05762000b0d62001458565b806308c379a0141562000b71575062000b2562001652565b8062000b32575062000b73565b806040517f08c379a000000000000000000000000000000000000000000000000000000000815260040162000b68919062001087565b60405180910390fd5b505b6040517f08c379a000000000000000000000000000000000000000000000000000000000815260040162000ba790620010ab565b60405180910390fd5b63bc197c8160e01b7bffffffffffffffffffffffffffffffffffffffffffffffffffffffff1916817bffffffffffffffffffffffffffffffffffffffffffffffffffffffff19161462000c3a576040517f08c379a000000000000000000000000000000000000000000000000000000000815260040162000c3190620010cd565b60405180910390fd5b505b505050505050565b6000600360009054906101000a900473ffffffffffffffffffffffffffffffffffffffff16905090565b6000600360149054906101000a900460ff16905090565b505050505050565b600080823b905060008111915050919050565b610d09806200707483390190565b82805462000cbc9062001311565b90600052602060002090601f01602090048101928262000ce0576000855562000d2c565b82601f1062000cfb57805160ff191683800117855562000d2c565b8280016001018555821562000d2c579182015b8281111562000d2b57825182559160200191906001019062000d0e565b5b50905062000d3b919062000d3f565b5090565b5b8082111562000d5a57600081600090555060010162000d40565b5090565b60008151905062000d6f81620016f4565b92915050565b60006020828403121562000d8857600080fd5b600062000d988482850162000d5e565b91505092915050565b600062000daf838362000fc9565b60208301905092915050565b62000dc68162001271565b82525050565b600062000dd982620011b3565b62000de58185620011e1565b935062000df283620011a3565b8060005b8381101562000e2957815162000e0d888262000da1565b975062000e1a83620011d4565b92505060018101905062000df6565b5085935050505092915050565b600062000e4382620011be565b62000e4f8185620011f2565b935062000e61818560208601620012db565b62000e6c816200147d565b840191505092915050565b600062000e8482620011c9565b62000e90818562001203565b935062000ea2818560208601620012db565b62000ead816200147d565b840191505092915050565b600062000ec760348362001203565b915062000ed4826200149b565b604082019050919050565b600062000eee60288362001203565b915062000efb82620014ea565b604082019050919050565b600062000f15600a8362001203565b915062000f228262001539565b602082019050919050565b600062000f3c60108362001203565b915062000f498262001562565b602082019050919050565b600062000f6360208362001203565b915062000f70826200158b565b602082019050919050565b600062000f8a60288362001203565b915062000f9782620015b4565b604082019050919050565b600062000fb160218362001203565b915062000fbe8262001603565b604082019050919050565b62000fd481620012d1565b82525050565b600060a08201905062000ff1600083018862000dbb565b62001000602083018762000dbb565b818103604083015262001014818662000dcc565b905081810360608301526200102a818562000dcc565b9050818103608083015262001040818462000e36565b90509695505050505050565b6000604082019050818103600083015262001068818562000dcc565b905081810360208301526200107e818462000dcc565b90509392505050565b60006020820190508181036000830152620010a3818462000e77565b905092915050565b60006020820190508181036000830152620010c68162000eb8565b9050919050565b60006020820190508181036000830152620010e88162000edf565b9050919050565b600060208201905081810360008301526200110a8162000f06565b9050919050565b600060208201905081810360008301526200112c8162000f2d565b9050919050565b600060208201905081810360008301526200114e8162000f54565b9050919050565b60006020820190508181036000830152620011708162000f7b565b9050919050565b60006020820190508181036000830152620011928162000fa2565b9050919050565b6000604051905090565b6000819050602082019050919050565b600081519050919050565b600081519050919050565b600081519050919050565b6000602082019050919050565b600082825260208201905092915050565b600082825260208201905092915050565b600082825260208201905092915050565b60006200122182620012d1565b91506200122e83620012d1565b9250827fffffffffffffffffffffffffffffffffffffffffffffffffffffffffffffffff03821115620012665762001265620013cb565b5b828201905092915050565b60006200127e82620012b1565b9050919050565b60007fffffffff0000000000000000000000000000000000000000000000000000000082169050919050565b600073ffffffffffffffffffffffffffffffffffffffff82169050919050565b6000819050919050565b60005b83811015620012fb578082015181840152602081019050620012de565b838111156200130b576000848401525b50505050565b600060028204905060018216806200132a57607f821691505b60208210811415620013415762001340620013fa565b5b50919050565b62001352826200147d565b810181811067ffffffffffffffff8211171562001374576200137362001429565b5b80604052505050565b60006200138a82620012d1565b91507fffffffffffffffffffffffffffffffffffffffffffffffffffffffffffffffff821415620013c057620013bf620013cb565b5b600182019050919050565b7f4e487b7100000000000000000000000000000000000000000000000000000000600052601160045260246000fd5b7f4e487b7100000000000000000000000000000000000000000000000000000000600052602260045260246000fd5b7f4e487b7100000000000000000000000000000000000000000000000000000000600052604160045260246000fd5b600060033d11156200147a5760046000803e620014776000516200148e565b90505b90565b6000601f19601f8301169050919050565b60008160e01c9050919050565b7f455243313135353a207472616e7366657220746f206e6f6e204552433131353560008201527f526563656976657220696d706c656d656e746572000000000000000000000000602082015250565b7f455243313135353a204552433131353552656365697665722072656a6563746560008201527f6420746f6b656e73000000000000000000000000000000000000000000000000602082015250565b7f696e76616c696420696400000000000000000000000000000000000000000000600082015250565b7f5061757361626c653a2070617573656400000000000000000000000000000000600082015250565b7f4f776e61626c653a2063616c6c6572206973206e6f7420746865206f776e6572600082015250565b7f455243313135353a2069647320616e6420616d6f756e7473206c656e6774682060008201527f6d69736d61746368000000000000000000000000000000000000000000000000602082015250565b7f455243313135353a206d696e7420746f20746865207a65726f2061646472657360008201527f7300000000000000000000000000000000000000000000000000000000000000602082015250565b600060443d10156200166457620016f1565b6200166e62001199565b60043d036004823e80513d602482011167ffffffffffffffff8211171562001698575050620016f1565b808201805167ffffffffffffffff811115620016b85750505050620016f1565b80602083010160043d038501811115620016d7575050505050620016f1565b620016e88260200185018662001347565b82955050505050505b90565b620016ff8162001285565b81146200170b57600080fd5b50565b60805160601c6159396200173b60003960008181611cfa015281816123a0015261279801526159396000f3fe60806040526004361061023a5760003560e01c8063773e33091161012e578063ca58f2d3116100ab578063e2e9f3e61161006f578063e2e9f3e614610810578063e985e9c51461083b578063f242432a14610878578063f2fde38b146108a1578063f5298aca146108ca5761023a565b8063ca58f2d31461072b578063d7e0b6e314610756578063e02906191461077f578063e1fa8e84146107aa578063e2982c21146107d35761023a565b8063a22cb465116100f2578063a22cb46514610644578063aae6fc361461066d578063b35569dd14610698578063b8a2b32c146106d5578063c90cea0e146107005761023a565b8063773e3309146105815780638456cb59146105ac57806389c5e469146105c35780638da5cb5b146105ee578063948a611f146106195761023a565b80633ccfd60b116101bc5780635200c7ad116101805780635200c7ad146104c25780635c975abb146104ed578063613e64be146105185780636b20c45414610541578063715018a61461056a5761023a565b80633ccfd60b146104105780633f4ba83a1461041a57806340705eb61461043157806345ccadb01461045a5780634e1273f4146104855761023a565b80631acb0137116102035780631acb01371461033d5780632a1add4f146103685780632eb2c2d61461039357806331b3eb94146103bc5780633711b23f146103e55761023a565b8062fdd58e1461023f57806301ffc9a71461027c57806308963e00146102b957806308dc9f42146102e45780630e89341c14610300575b600080fd5b34801561024b57600080fd5b5061026660048036038101906102619190613eb6565b6108f3565b6040516102739190614c1a565b60405180910390f35b34801561028857600080fd5b506102a3600480360381019061029e9190613fd6565b6109bc565b6040516102b09190614847565b60405180910390f35b3480156102c557600080fd5b506102ce610a9e565b6040516102db9190614c1a565b60405180910390f35b6102fe60048036038101906102f991906140ce565b610aa4565b005b34801561030c57600080fd5b506103276004803603810190610322919061407c565b610d9c565b604051610334919061487d565b60405180910390f35b34801561034957600080fd5b50610352610ece565b60405161035f9190614c1a565b60405180910390f35b34801561037457600080fd5b5061037d610ed4565b60405161038a9190614bff565b60405180910390f35b34801561039f57600080fd5b506103ba60048036038101906103b59190613c71565b610eda565b005b3480156103c857600080fd5b506103e360048036038101906103de9190613c0c565b610f7b565b005b3480156103f157600080fd5b506103fa610fdd565b6040516104079190614c1a565b60405180910390f35b610418610fe3565b005b34801561042657600080fd5b5061042f61108a565b005b34801561043d57600080fd5b5061045860048036038101906104539190614028565b611110565b005b34801561046657600080fd5b5061046f61127f565b60405161047c9190614c1a565b60405180910390f35b34801561049157600080fd5b506104ac60048036038101906104a79190613f41565b611285565b6040516104b991906147ee565b60405180910390f35b3480156104ce57600080fd5b506104d7611436565b6040516104e49190614c1a565b60405180910390f35b3480156104f957600080fd5b5061050261143c565b60405161050f9190614847565b60405180910390f35b34801561052457600080fd5b5061053f600480360381019061053a9190614135565b611453565b005b34801561054d57600080fd5b5061056860048036038101906105639190613dbf565b6115e5565b005b34801561057657600080fd5b5061057f611682565b005b34801561058d57600080fd5b5061059661170a565b6040516105a39190614c1a565b60405180910390f35b3480156105b857600080fd5b506105c1611710565b005b3480156105cf57600080fd5b506105d8611796565b6040516105e59190614c5e565b60405180910390f35b3480156105fa57600080fd5b5061060361179b565b60405161061091906146cd565b60405180910390f35b34801561062557600080fd5b5061062e6117c5565b60405161063b9190614c1a565b60405180910390f35b34801561065057600080fd5b5061066b60048036038101906106669190613e3e565b6117cb565b005b34801561067957600080fd5b5061068261194c565b60405161068f9190614bff565b60405180910390f35b3480156106a457600080fd5b506106bf60048036038101906106ba9190613be3565b611951565b6040516106cc9190614862565b60405180910390f35b3480156106e157600080fd5b506106ea611969565b6040516106f79190614c5e565b60405180910390f35b34801561070c57600080fd5b5061071561196e565b6040516107229190614c1a565b60405180910390f35b34801561073757600080fd5b50610740611974565b60405161074d9190614c5e565b60405180910390f35b34801561076257600080fd5b5061077d60048036038101906107789190613e7a565b611979565b005b34801561078b57600080fd5b50610794611b31565b6040516107a19190614bff565b60405180910390f35b3480156107b657600080fd5b506107d160048036038101906107cc9190613fad565b611b37565b005b3480156107df57600080fd5b506107fa60048036038101906107f59190613be3565b611cf6565b6040516108079190614c1a565b60405180910390f35b34801561081c57600080fd5b50610825611da8565b6040516108329190614c1a565b60405180910390f35b34801561084757600080fd5b50610862600480360381019061085d9190613c35565b611dae565b60405161086f9190614847565b60405180910390f35b34801561088457600080fd5b5061089f600480360381019061089a9190613d30565b611e42565b005b3480156108ad57600080fd5b506108c860048036038101906108c39190613be3565b611ee3565b005b3480156108d657600080fd5b506108f160048036038101906108ec9190613ef2565b611fdb565b005b60008073ffffffffffffffffffffffffffffffffffffffff168373ffffffffffffffffffffffffffffffffffffffff161415610964576040517f08c379a000000000000000000000000000000000000000000000000000000000815260040161095b906148ff565b60405180910390fd5b60008083815260200190815260200160002060008473ffffffffffffffffffffffffffffffffffffffff1673ffffffffffffffffffffffffffffffffffffffff16815260200190815260200160002054905092915050565b60007fd9b67a26000000000000000000000000000000000000000000000000000000007bffffffffffffffffffffffffffffffffffffffffffffffffffffffff1916827bffffffffffffffffffffffffffffffffffffffffffffffffffffffff19161480610a8757507f0e89341c000000000000000000000000000000000000000000000000000000007bffffffffffffffffffffffffffffffffffffffffffffffffffffffff1916827bffffffffffffffffffffffffffffffffffffffffffffffffffffffff1916145b80610a975750610a9682612093565b5b9050919050565b600c5481565b82600167ffffffffffffffff16811480610ac85750600267ffffffffffffffff1681145b80610add5750600367ffffffffffffffff1681145b610b1c576040517f08c379a0000000000000000000000000000000000000000000000000000000008152600401610b139061495f565b60405180910390fd5b60008311610b5f576040517f08c379a0000000000000000000000000000000000000000000000000000000008152600401610b56906149bf565b60405180910390fd5b6000602083015190506000806000600167ffffffffffffffff16881415610bec57600c549250600d549150610b96600954886120fd565b60098190555061271061ffff166009541115610be7576040517f08c379a0000000000000000000000000000000000000000000000000000000008152600401610bde9061497f565b60405180910390fd5b610ce7565b600267ffffffffffffffff16881415610c6b57600e549250600f549150610c15600a54886120fd565b600a819055506103e861ffff16600a541115610c66576040517f08c379a0000000000000000000000000000000000000000000000000000000008152600401610c5d9061497f565b60405180910390fd5b610ce6565b600367ffffffffffffffff16881415610ce55760105492506011549150610c94600b54886120fd565b600b81905550600a61ffff16600b541115610ce4576040517f08c379a0000000000000000000000000000000000000000000000000000000008152600401610cdb9061497f565b60405180910390fd5b5b5b5b6000801b841415610cfb5760009150610d07565b610d0484612113565b90505b6000610d1e8385610d189190614e84565b896121f2565b905080341015610d63576040517f08c379a0000000000000000000000000000000000000000000000000000000008152600401610d5a90614b3f565b60405180910390fd5b610d7e338a8a60405180602001604052806000815250612208565b610d9182610d8c858b6121f2565b61239e565b505050505050505050565b606081600167ffffffffffffffff16811480610dc25750600267ffffffffffffffff1681145b80610dd75750600367ffffffffffffffff1681145b610e16576040517f08c379a0000000000000000000000000000000000000000000000000000000008152600401610e0d9061495f565b60405180910390fd5b601260008467ffffffffffffffff1667ffffffffffffffff1681526020019081526020016000208054610e4890614fac565b80601f0160208091040260200160405190810160405280929190818152602001828054610e7490614fac565b8015610ec15780601f10610e9657610100808354040283529160200191610ec1565b820191906000526020600020905b815481529060010190602001808311610ea457829003601f168201915b5050505050915050919050565b60105481565b61271081565b610ee261242e565b73ffffffffffffffffffffffffffffffffffffffff168573ffffffffffffffffffffffffffffffffffffffff161480610f285750610f2785610f2261242e565b611dae565b5b610f67576040517f08c379a0000000000000000000000000000000000000000000000000000000008152600401610f5e90614a9f565b60405180910390fd5b610f748585858585612436565b5050505050565b60026008541415610fc1576040517f08c379a0000000000000000000000000000000000000000000000000000000008152600401610fb890614bdf565b60405180910390fd5b6002600881905550610fd281612796565b600160088190555050565b600e5481565b610feb61242e565b73ffffffffffffffffffffffffffffffffffffffff1661100961179b565b73ffffffffffffffffffffffffffffffffffffffff161461105f576040517f08c379a000000000000000000000000000000000000000000000000000000000815260040161105690614b1f565b60405180910390fd5b611088473373ffffffffffffffffffffffffffffffffffffffff1661282490919063ffffffff16565b565b61109261242e565b73ffffffffffffffffffffffffffffffffffffffff166110b061179b565b73ffffffffffffffffffffffffffffffffffffffff1614611106576040517f08c379a00000000000000000000000000000000000000000000000000000000081526004016110fd90614b1f565b60405180910390fd5b61110e612918565b565b61111861242e565b73ffffffffffffffffffffffffffffffffffffffff1661113661179b565b73ffffffffffffffffffffffffffffffffffffffff161461118c576040517f08c379a000000000000000000000000000000000000000000000000000000000815260040161118390614b1f565b60405180910390fd5b8061ffff16600167ffffffffffffffff168114806111b45750600267ffffffffffffffff1681145b806111c95750600367ffffffffffffffff1681145b611208576040517f08c379a00000000000000000000000000000000000000000000000000000000081526004016111ff9061495f565b60405180910390fd5b82601260008461ffff1667ffffffffffffffff168152602001908152602001600020908051906020019061123d929190613872565b508161ffff167f6bb7ff708619ba0610cba295a58592e0451dee2622938c8755667688daf3529b84604051611272919061487d565b60405180910390a2505050565b600a5481565b606081518351146112cb576040517f08c379a00000000000000000000000000000000000000000000000000000000081526004016112c290614b7f565b60405180910390fd5b6000835167ffffffffffffffff81111561130e577f4e487b7100000000000000000000000000000000000000000000000000000000600052604160045260246000fd5b60405190808252806020026020018201604052801561133c5781602001602082028036833780820191505090505b50905060005b845181101561142b576113d5858281518110611387577f4e487b7100000000000000000000000000000000000000000000000000000000600052603260045260246000fd5b60200260200101518583815181106113c8577f4e487b7100000000000000000000000000000000000000000000000000000000600052603260045260246000fd5b60200260200101516108f3565b82828151811061140e577f4e487b7100000000000000000000000000000000000000000000000000000000600052603260045260246000fd5b602002602001018181525050806114249061500f565b9050611342565b508091505092915050565b600f5481565b6000600360149054906101000a900460ff16905090565b61145b61242e565b73ffffffffffffffffffffffffffffffffffffffff1661147961179b565b73ffffffffffffffffffffffffffffffffffffffff16146114cf576040517f08c379a00000000000000000000000000000000000000000000000000000000081526004016114c690614b1f565b60405180910390fd5b8067ffffffffffffffff16600167ffffffffffffffff168114806114fd5750600267ffffffffffffffff1681145b806115125750600367ffffffffffffffff1681145b611551576040517f08c379a00000000000000000000000000000000000000000000000000000000081526004016115489061495f565b60405180910390fd5b600167ffffffffffffffff168267ffffffffffffffff1614156115815783600c8190555082600d819055506115df565b600267ffffffffffffffff168267ffffffffffffffff1614156115b15783600e8190555082600f819055506115de565b600367ffffffffffffffff168267ffffffffffffffff1614156115dd5783601081905550826011819055505b5b5b50505050565b6115ed61242e565b73ffffffffffffffffffffffffffffffffffffffff168373ffffffffffffffffffffffffffffffffffffffff16148061163357506116328361162d61242e565b611dae565b5b611672576040517f08c379a00000000000000000000000000000000000000000000000000000000081526004016116699061499f565b60405180910390fd5b61167d8383836129ba565b505050565b61168a61242e565b73ffffffffffffffffffffffffffffffffffffffff166116a861179b565b73ffffffffffffffffffffffffffffffffffffffff16146116fe576040517f08c379a00000000000000000000000000000000000000000000000000000000081526004016116f590614b1f565b60405180910390fd5b6117086000612cb7565b565b60095481565b61171861242e565b73ffffffffffffffffffffffffffffffffffffffff1661173661179b565b73ffffffffffffffffffffffffffffffffffffffff161461178c576040517f08c379a000000000000000000000000000000000000000000000000000000000815260040161178390614b1f565b60405180910390fd5b611794612d7d565b565b600281565b6000600360009054906101000a900473ffffffffffffffffffffffffffffffffffffffff16905090565b600d5481565b8173ffffffffffffffffffffffffffffffffffffffff166117ea61242e565b73ffffffffffffffffffffffffffffffffffffffff161415611841576040517f08c379a000000000000000000000000000000000000000000000000000000000815260040161183890614b5f565b60405180910390fd5b806001600061184e61242e565b73ffffffffffffffffffffffffffffffffffffffff1673ffffffffffffffffffffffffffffffffffffffff16815260200190815260200160002060008473ffffffffffffffffffffffffffffffffffffffff1673ffffffffffffffffffffffffffffffffffffffff16815260200190815260200160002060006101000a81548160ff0219169083151502179055508173ffffffffffffffffffffffffffffffffffffffff166118fb61242e565b73ffffffffffffffffffffffffffffffffffffffff167f17307eab39ab6107e8899845ad3d59bd9653f200f220920489ca2b5937696c31836040516119409190614847565b60405180910390a35050565b600a81565b60066020528060005260406000206000915090505481565b600381565b600b5481565b600181565b61198161242e565b73ffffffffffffffffffffffffffffffffffffffff1661199f61179b565b73ffffffffffffffffffffffffffffffffffffffff16146119f5576040517f08c379a00000000000000000000000000000000000000000000000000000000081526004016119ec90614b1f565b60405180910390fd5b611a09816004612e2090919063ffffffff16565b15611a49576040517f08c379a0000000000000000000000000000000000000000000000000000000008152600401611a4090614a5f565b60405180910390fd5b611a5d816004612e3790919063ffffffff16565b5080600660008473ffffffffffffffffffffffffffffffffffffffff1673ffffffffffffffffffffffffffffffffffffffff16815260200190815260200160002081905550816007600083815260200190815260200160002060006101000a81548173ffffffffffffffffffffffffffffffffffffffff021916908373ffffffffffffffffffffffffffffffffffffffff1602179055507fb8142d42f05d95abf0a6570799774d59276e49ea32a04d9a4ec316ea4a6886bc8282604051611b259291906147c5565b60405180910390a15050565b6103e881565b6000801b600660003373ffffffffffffffffffffffffffffffffffffffff1673ffffffffffffffffffffffffffffffffffffffff1681526020019081526020016000205414611bbb576040517f08c379a0000000000000000000000000000000000000000000000000000000008152600401611bb2906149df565b60405180910390fd5b611bcf816004612e2090919063ffffffff16565b15611c0f576040517f08c379a0000000000000000000000000000000000000000000000000000000008152600401611c0690614a5f565b60405180910390fd5b611c23816004612e3790919063ffffffff16565b5080600660003373ffffffffffffffffffffffffffffffffffffffff1673ffffffffffffffffffffffffffffffffffffffff16815260200190815260200160002081905550336007600083815260200190815260200160002060006101000a81548173ffffffffffffffffffffffffffffffffffffffff021916908373ffffffffffffffffffffffffffffffffffffffff1602179055507fb8142d42f05d95abf0a6570799774d59276e49ea32a04d9a4ec316ea4a6886bc3382604051611ceb9291906147c5565b60405180910390a150565b60007f000000000000000000000000000000000000000000000000000000000000000073ffffffffffffffffffffffffffffffffffffffff1663e3a9db1a836040518263ffffffff1660e01b8152600401611d5191906146cd565b60206040518083038186803b158015611d6957600080fd5b505afa158015611d7d573d6000803e3d6000fd5b505050506040513d601f19601f82011682018060405250810190611da191906140a5565b9050919050565b60115481565b6000600160008473ffffffffffffffffffffffffffffffffffffffff1673ffffffffffffffffffffffffffffffffffffffff16815260200190815260200160002060008373ffffffffffffffffffffffffffffffffffffffff1673ffffffffffffffffffffffffffffffffffffffff16815260200190815260200160002060009054906101000a900460ff16905092915050565b611e4a61242e565b73ffffffffffffffffffffffffffffffffffffffff168573ffffffffffffffffffffffffffffffffffffffff161480611e905750611e8f85611e8a61242e565b611dae565b5b611ecf576040517f08c379a0000000000000000000000000000000000000000000000000000000008152600401611ec69061499f565b60405180910390fd5b611edc8585858585612e4e565b5050505050565b611eeb61242e565b73ffffffffffffffffffffffffffffffffffffffff16611f0961179b565b73ffffffffffffffffffffffffffffffffffffffff1614611f5f576040517f08c379a0000000000000000000000000000000000000000000000000000000008152600401611f5690614b1f565b60405180910390fd5b600073ffffffffffffffffffffffffffffffffffffffff168173ffffffffffffffffffffffffffffffffffffffff161415611fcf576040517f08c379a0000000000000000000000000000000000000000000000000000000008152600401611fc69061491f565b60405180910390fd5b611fd881612cb7565b50565b611fe361242e565b73ffffffffffffffffffffffffffffffffffffffff168373ffffffffffffffffffffffffffffffffffffffff16148061202957506120288361202361242e565b611dae565b5b612068576040517f08c379a000000000000000000000000000000000000000000000000000000000815260040161205f9061499f565b60405180910390fd5b6120738383836130d0565b505050565b505050505050565b600080823b905060008111915050919050565b60007f01ffc9a7000000000000000000000000000000000000000000000000000000007bffffffffffffffffffffffffffffffffffffffffffffffffffffffff1916827bffffffffffffffffffffffffffffffffffffffffffffffffffffffff1916149050919050565b6000818361210b9190614dd4565b905092915050565b60008073ffffffffffffffffffffffffffffffffffffffff166007600084815260200190815260200160002060009054906101000a900473ffffffffffffffffffffffffffffffffffffffff1673ffffffffffffffffffffffffffffffffffffffff1614156121b7576040517f08c379a00000000000000000000000000000000000000000000000000000000081526004016121ae90614abf565b60405180910390fd5b6007600083815260200190815260200160002060009054906101000a900473ffffffffffffffffffffffffffffffffffffffff169050919050565b600081836122009190614e2a565b905092915050565b600073ffffffffffffffffffffffffffffffffffffffff168473ffffffffffffffffffffffffffffffffffffffff161415612278576040517f08c379a000000000000000000000000000000000000000000000000000000000815260040161226f90614bbf565b60405180910390fd5b600061228261242e565b90506122a381600087612294886132ed565b61229d886132ed565b876133b3565b8260008086815260200190815260200160002060008773ffffffffffffffffffffffffffffffffffffffff1673ffffffffffffffffffffffffffffffffffffffff16815260200190815260200160002060008282546123029190614dd4565b925050819055508473ffffffffffffffffffffffffffffffffffffffff16600073ffffffffffffffffffffffffffffffffffffffff168273ffffffffffffffffffffffffffffffffffffffff167fc3d58168c5ae7397731d063d5bbf3d657854427343f4c083240f7aacaa2d0f628787604051612380929190614c35565b60405180910390a461239781600087878787613411565b5050505050565b7f000000000000000000000000000000000000000000000000000000000000000073ffffffffffffffffffffffffffffffffffffffff1663f340fa0182846040518363ffffffff1660e01b81526004016123f891906146cd565b6000604051808303818588803b15801561241157600080fd5b505af1158015612425573d6000803e3d6000fd5b50505050505050565b600033905090565b815183511461247a576040517f08c379a000000000000000000000000000000000000000000000000000000000815260040161247190614b9f565b60405180910390fd5b600073ffffffffffffffffffffffffffffffffffffffff168473ffffffffffffffffffffffffffffffffffffffff1614156124ea576040517f08c379a00000000000000000000000000000000000000000000000000000000081526004016124e190614a7f565b60405180910390fd5b60006124f461242e565b90506125048187878787876133b3565b60005b845181101561270157600085828151811061254b577f4e487b7100000000000000000000000000000000000000000000000000000000600052603260045260246000fd5b602002602001015190506000858381518110612590577f4e487b7100000000000000000000000000000000000000000000000000000000600052603260045260246000fd5b60200260200101519050600080600084815260200190815260200160002060008b73ffffffffffffffffffffffffffffffffffffffff1673ffffffffffffffffffffffffffffffffffffffff16815260200190815260200160002054905081811015612631576040517f08c379a000000000000000000000000000000000000000000000000000000000815260040161262890614aff565b60405180910390fd5b81810360008085815260200190815260200160002060008c73ffffffffffffffffffffffffffffffffffffffff1673ffffffffffffffffffffffffffffffffffffffff168152602001908152602001600020819055508160008085815260200190815260200160002060008b73ffffffffffffffffffffffffffffffffffffffff1673ffffffffffffffffffffffffffffffffffffffff16815260200190815260200160002060008282546126e69190614dd4565b92505081905550505050806126fa9061500f565b9050612507565b508473ffffffffffffffffffffffffffffffffffffffff168673ffffffffffffffffffffffffffffffffffffffff168273ffffffffffffffffffffffffffffffffffffffff167f4a39dc06d4c0dbc64b70af90fd698a233a518aa5d07e595d983b8c0526c8f7fb8787604051612778929190614810565b60405180910390a461278e8187878787876135f8565b505050505050565b7f000000000000000000000000000000000000000000000000000000000000000073ffffffffffffffffffffffffffffffffffffffff166351cff8d9826040518263ffffffff1660e01b81526004016127ef91906146e8565b600060405180830381600087803b15801561280957600080fd5b505af115801561281d573d6000803e3d6000fd5b5050505050565b80471015612867576040517f08c379a000000000000000000000000000000000000000000000000000000000815260040161285e90614a1f565b60405180910390fd5b60008273ffffffffffffffffffffffffffffffffffffffff168260405161288d906146b8565b60006040518083038185875af1925050503d80600081146128ca576040519150601f19603f3d011682016040523d82523d6000602084013e6128cf565b606091505b5050905080612913576040517f08c379a000000000000000000000000000000000000000000000000000000000815260040161290a906149ff565b60405180910390fd5b505050565b61292061143c565b61295f576040517f08c379a0000000000000000000000000000000000000000000000000000000008152600401612956906148df565b60405180910390fd5b6000600360146101000a81548160ff0219169083151502179055507f5db9ee0a495bf2e6ff9c91a7834c1ba4fdd244a5e8aa4e537bd38aeae4b073aa6129a361242e565b6040516129b091906146cd565b60405180910390a1565b600073ffffffffffffffffffffffffffffffffffffffff168373ffffffffffffffffffffffffffffffffffffffff161415612a2a576040517f08c379a0000000000000000000000000000000000000000000000000000000008152600401612a2190614adf565b60405180910390fd5b8051825114612a6e576040517f08c379a0000000000000000000000000000000000000000000000000000000008152600401612a6590614b9f565b60405180910390fd5b6000612a7861242e565b9050612a98818560008686604051806020016040528060008152506133b3565b60005b8351811015612c31576000848281518110612adf577f4e487b7100000000000000000000000000000000000000000000000000000000600052603260045260246000fd5b602002602001015190506000848381518110612b24577f4e487b7100000000000000000000000000000000000000000000000000000000600052603260045260246000fd5b60200260200101519050600080600084815260200190815260200160002060008973ffffffffffffffffffffffffffffffffffffffff1673ffffffffffffffffffffffffffffffffffffffff16815260200190815260200160002054905081811015612bc5576040517f08c379a0000000000000000000000000000000000000000000000000000000008152600401612bbc9061493f565b60405180910390fd5b81810360008085815260200190815260200160002060008a73ffffffffffffffffffffffffffffffffffffffff1673ffffffffffffffffffffffffffffffffffffffff168152602001908152602001600020819055505050508080612c299061500f565b915050612a9b565b50600073ffffffffffffffffffffffffffffffffffffffff168473ffffffffffffffffffffffffffffffffffffffff168273ffffffffffffffffffffffffffffffffffffffff167f4a39dc06d4c0dbc64b70af90fd698a233a518aa5d07e595d983b8c0526c8f7fb8686604051612ca9929190614810565b60405180910390a450505050565b6000600360009054906101000a900473ffffffffffffffffffffffffffffffffffffffff16905081600360006101000a81548173ffffffffffffffffffffffffffffffffffffffff021916908373ffffffffffffffffffffffffffffffffffffffff1602179055508173ffffffffffffffffffffffffffffffffffffffff168173ffffffffffffffffffffffffffffffffffffffff167f8be0079c531659141344cd1fd0a4f28419497f9722a3daafe3b4186f6b6457e060405160405180910390a35050565b612d8561143c565b15612dc5576040517f08c379a0000000000000000000000000000000000000000000000000000000008152600401612dbc90614a3f565b60405180910390fd5b6001600360146101000a81548160ff0219169083151502179055507f62e78cea01bee320cd4e420270b5ea74000d11b0c9f74754ebdbfc544b05a258612e0961242e565b604051612e1691906146cd565b60405180910390a1565b6000612e2f83600001836137df565b905092915050565b6000612e468360000183613802565b905092915050565b600073ffffffffffffffffffffffffffffffffffffffff168473ffffffffffffffffffffffffffffffffffffffff161415612ebe576040517f08c379a0000000000000000000000000000000000000000000000000000000008152600401612eb590614a7f565b60405180910390fd5b6000612ec861242e565b9050612ee8818787612ed9886132ed565b612ee2886132ed565b876133b3565b600080600086815260200190815260200160002060008873ffffffffffffffffffffffffffffffffffffffff1673ffffffffffffffffffffffffffffffffffffffff16815260200190815260200160002054905083811015612f7f576040517f08c379a0000000000000000000000000000000000000000000000000000000008152600401612f7690614aff565b60405180910390fd5b83810360008087815260200190815260200160002060008973ffffffffffffffffffffffffffffffffffffffff1673ffffffffffffffffffffffffffffffffffffffff168152602001908152602001600020819055508360008087815260200190815260200160002060008873ffffffffffffffffffffffffffffffffffffffff1673ffffffffffffffffffffffffffffffffffffffff16815260200190815260200160002060008282546130349190614dd4565b925050819055508573ffffffffffffffffffffffffffffffffffffffff168773ffffffffffffffffffffffffffffffffffffffff168373ffffffffffffffffffffffffffffffffffffffff167fc3d58168c5ae7397731d063d5bbf3d657854427343f4c083240f7aacaa2d0f6288886040516130b1929190614c35565b60405180910390a46130c7828888888888613411565b50505050505050565b600073ffffffffffffffffffffffffffffffffffffffff168373ffffffffffffffffffffffffffffffffffffffff161415613140576040517f08c379a000000000000000000000000000000000000000000000000000000000815260040161313790614adf565b60405180910390fd5b600061314a61242e565b905061317a8185600061315c876132ed565b613165876132ed565b604051806020016040528060008152506133b3565b600080600085815260200190815260200160002060008673ffffffffffffffffffffffffffffffffffffffff1673ffffffffffffffffffffffffffffffffffffffff16815260200190815260200160002054905082811015613211576040517f08c379a00000000000000000000000000000000000000000000000000000000081526004016132089061493f565b60405180910390fd5b82810360008086815260200190815260200160002060008773ffffffffffffffffffffffffffffffffffffffff1673ffffffffffffffffffffffffffffffffffffffff16815260200190815260200160002081905550600073ffffffffffffffffffffffffffffffffffffffff168573ffffffffffffffffffffffffffffffffffffffff168373ffffffffffffffffffffffffffffffffffffffff167fc3d58168c5ae7397731d063d5bbf3d657854427343f4c083240f7aacaa2d0f6287876040516132de929190614c35565b60405180910390a45050505050565b60606000600167ffffffffffffffff811115613332577f4e487b7100000000000000000000000000000000000000000000000000000000600052604160045260246000fd5b6040519080825280602002602001820160405280156133605781602001602082028036833780820191505090505b509050828160008151811061339e577f4e487b7100000000000000000000000000000000000000000000000000000000600052603260045260246000fd5b60200260200101818152505080915050919050565b6133bb61143c565b156133fb576040517f08c379a00000000000000000000000000000000000000000000000000000000081526004016133f290614a3f565b60405180910390fd5b613409868686868686612078565b505050505050565b6134308473ffffffffffffffffffffffffffffffffffffffff16612080565b156135f0578373ffffffffffffffffffffffffffffffffffffffff1663f23a6e6187878686866040518663ffffffff1660e01b815260040161347695949392919061476b565b602060405180830381600087803b15801561349057600080fd5b505af19250505080156134c157506040513d601f19601f820116820180604052508101906134be9190613fff565b60015b613567576134cd6150e5565b806308c379a0141561352a57506134e26157b5565b806134ed575061352c565b806040517f08c379a0000000000000000000000000000000000000000000000000000000008152600401613521919061487d565b60405180910390fd5b505b6040517f08c379a000000000000000000000000000000000000000000000000000000000815260040161355e9061489f565b60405180910390fd5b63f23a6e6160e01b7bffffffffffffffffffffffffffffffffffffffffffffffffffffffff1916817bffffffffffffffffffffffffffffffffffffffffffffffffffffffff1916146135ee576040517f08c379a00000000000000000000000000000000000000000000000000000000081526004016135e5906148bf565b60405180910390fd5b505b505050505050565b6136178473ffffffffffffffffffffffffffffffffffffffff16612080565b156137d7578373ffffffffffffffffffffffffffffffffffffffff1663bc197c8187878686866040518663ffffffff1660e01b815260040161365d959493929190614703565b602060405180830381600087803b15801561367757600080fd5b505af19250505080156136a857506040513d601f19601f820116820180604052508101906136a59190613fff565b60015b61374e576136b46150e5565b806308c379a0141561371157506136c96157b5565b806136d45750613713565b806040517f08c379a0000000000000000000000000000000000000000000000000000000008152600401613708919061487d565b60405180910390fd5b505b6040517f08c379a00000000000000000000000000000000000000000000000000000000081526004016137459061489f565b60405180910390fd5b63bc197c8160e01b7bffffffffffffffffffffffffffffffffffffffffffffffffffffffff1916817bffffffffffffffffffffffffffffffffffffffffffffffffffffffff1916146137d5576040517f08c379a00000000000000000000000000000000000000000000000000000000081526004016137cc906148bf565b60405180910390fd5b505b505050505050565b600080836001016000848152602001908152602001600020541415905092915050565b600061380e83836137df565b61386757826000018290806001815401808255809150506001900390600052602060002001600090919091909150558260000180549050836001016000848152602001908152602001600020819055506001905061386c565b600090505b92915050565b82805461387e90614fac565b90600052602060002090601f0160209004810192826138a057600085556138e7565b82601f106138b957805160ff19168380011785556138e7565b828001600101855582156138e7579182015b828111156138e65782518255916020019190600101906138cb565b5b5090506138f491906138f8565b5090565b5b808211156139115760008160009055506001016138f9565b5090565b600061392861392384614c9e565b614c79565b9050808382526020820190508285602086028201111561394757600080fd5b60005b85811015613977578161395d8882613a69565b84526020840193506020830192505060018101905061394a565b5050509392505050565b600061399461398f84614cca565b614c79565b905080838252602082019050828560208602820111156139b357600080fd5b60005b858110156139e357816139c98882613ba4565b8452602084019350602083019250506001810190506139b6565b5050509392505050565b6000613a006139fb84614cf6565b614c79565b905082815260208101848484011115613a1857600080fd5b613a23848285614f6a565b509392505050565b6000613a3e613a3984614d27565b614c79565b905082815260208101848484011115613a5657600080fd5b613a61848285614f6a565b509392505050565b600081359050613a788161584b565b92915050565b600081359050613a8d81615862565b92915050565b600082601f830112613aa457600080fd5b8135613ab4848260208601613915565b91505092915050565b600082601f830112613ace57600080fd5b8135613ade848260208601613981565b91505092915050565b600081359050613af681615879565b92915050565b600081359050613b0b81615890565b92915050565b600081359050613b20816158a7565b92915050565b600081519050613b35816158a7565b92915050565b600082601f830112613b4c57600080fd5b8135613b5c8482602086016139ed565b91505092915050565b600082601f830112613b7657600080fd5b8135613b86848260208601613a2b565b91505092915050565b600081359050613b9e816158be565b92915050565b600081359050613bb3816158d5565b92915050565b600081519050613bc8816158d5565b92915050565b600081359050613bdd816158ec565b92915050565b600060208284031215613bf557600080fd5b6000613c0384828501613a69565b91505092915050565b600060208284031215613c1e57600080fd5b6000613c2c84828501613a7e565b91505092915050565b60008060408385031215613c4857600080fd5b6000613c5685828601613a69565b9250506020613c6785828601613a69565b9150509250929050565b600080600080600060a08688031215613c8957600080fd5b6000613c9788828901613a69565b9550506020613ca888828901613a69565b945050604086013567ffffffffffffffff811115613cc557600080fd5b613cd188828901613abd565b935050606086013567ffffffffffffffff811115613cee57600080fd5b613cfa88828901613abd565b925050608086013567ffffffffffffffff811115613d1757600080fd5b613d2388828901613b3b565b9150509295509295909350565b600080600080600060a08688031215613d4857600080fd5b6000613d5688828901613a69565b9550506020613d6788828901613a69565b9450506040613d7888828901613ba4565b9350506060613d8988828901613ba4565b925050608086013567ffffffffffffffff811115613da657600080fd5b613db288828901613b3b565b9150509295509295909350565b600080600060608486031215613dd457600080fd5b6000613de286828701613a69565b935050602084013567ffffffffffffffff811115613dff57600080fd5b613e0b86828701613abd565b925050604084013567ffffffffffffffff811115613e2857600080fd5b613e3486828701613abd565b9150509250925092565b60008060408385031215613e5157600080fd5b6000613e5f85828601613a69565b9250506020613e7085828601613ae7565b9150509250929050565b60008060408385031215613e8d57600080fd5b6000613e9b85828601613a69565b9250506020613eac85828601613afc565b9150509250929050565b60008060408385031215613ec957600080fd5b6000613ed785828601613a69565b9250506020613ee885828601613ba4565b9150509250929050565b600080600060608486031215613f0757600080fd5b6000613f1586828701613a69565b9350506020613f2686828701613ba4565b9250506040613f3786828701613ba4565b9150509250925092565b60008060408385031215613f5457600080fd5b600083013567ffffffffffffffff811115613f6e57600080fd5b613f7a85828601613a93565b925050602083013567ffffffffffffffff811115613f9757600080fd5b613fa385828601613abd565b9150509250929050565b600060208284031215613fbf57600080fd5b6000613fcd84828501613afc565b91505092915050565b600060208284031215613fe857600080fd5b6000613ff684828501613b11565b91505092915050565b60006020828403121561401157600080fd5b600061401f84828501613b26565b91505092915050565b6000806040838503121561403b57600080fd5b600083013567ffffffffffffffff81111561405557600080fd5b61406185828601613b65565b925050602061407285828601613b8f565b9150509250929050565b60006020828403121561408e57600080fd5b600061409c84828501613ba4565b91505092915050565b6000602082840312156140b757600080fd5b60006140c584828501613bb9565b91505092915050565b6000806000606084860312156140e357600080fd5b60006140f186828701613ba4565b935050602061410286828701613ba4565b925050604084013567ffffffffffffffff81111561411f57600080fd5b61412b86828701613b3b565b9150509250925092565b60008060006060848603121561414a57600080fd5b600061415886828701613ba4565b935050602061416986828701613ba4565b925050604061417a86828701613bce565b9150509250925092565b6000614190838361468b565b60208301905092915050565b6141a581614eca565b82525050565b6141b481614eb8565b82525050565b60006141c582614d68565b6141cf8185614d96565b93506141da83614d58565b8060005b8381101561420b5781516141f28882614184565b97506141fd83614d89565b9250506001810190506141de565b5085935050505092915050565b61422181614edc565b82525050565b61423081614ee8565b82525050565b600061424182614d73565b61424b8185614da7565b935061425b818560208601614f79565b61426481615107565b840191505092915050565b600061427a82614d7e565b6142848185614dc3565b9350614294818560208601614f79565b61429d81615107565b840191505092915050565b60006142b5603483614dc3565b91506142c082615125565b604082019050919050565b60006142d8602883614dc3565b91506142e382615174565b604082019050919050565b60006142fb601483614dc3565b9150614306826151c3565b602082019050919050565b600061431e602b83614dc3565b9150614329826151ec565b604082019050919050565b6000614341602683614dc3565b915061434c8261523b565b604082019050919050565b6000614364602483614dc3565b915061436f8261528a565b604082019050919050565b6000614387600a83614dc3565b9150614392826152d9565b602082019050919050565b60006143aa600f83614dc3565b91506143b582615302565b602082019050919050565b60006143cd602983614dc3565b91506143d88261532b565b604082019050919050565b60006143f0600e83614dc3565b91506143fb8261537a565b602082019050919050565b6000614413601283614dc3565b915061441e826153a3565b602082019050919050565b6000614436603a83614dc3565b9150614441826153cc565b604082019050919050565b6000614459601d83614dc3565b91506144648261541b565b602082019050919050565b600061447c601083614dc3565b915061448782615444565b602082019050919050565b600061449f600b83614dc3565b91506144aa8261546d565b602082019050919050565b60006144c2602583614dc3565b91506144cd82615496565b604082019050919050565b60006144e5603283614dc3565b91506144f0826154e5565b604082019050919050565b6000614508600c83614dc3565b915061451382615534565b602082019050919050565b600061452b602383614dc3565b91506145368261555d565b604082019050919050565b600061454e602a83614dc3565b9150614559826155ac565b604082019050919050565b6000614571602083614dc3565b915061457c826155fb565b602082019050919050565b6000614594600e83614dc3565b915061459f82615624565b602082019050919050565b60006145b7600083614db8565b91506145c28261564d565b600082019050919050565b60006145da602983614dc3565b91506145e582615650565b604082019050919050565b60006145fd602983614dc3565b91506146088261569f565b604082019050919050565b6000614620602883614dc3565b915061462b826156ee565b604082019050919050565b6000614643602183614dc3565b915061464e8261573d565b604082019050919050565b6000614666601f83614dc3565b91506146718261578c565b602082019050919050565b61468581614f1e565b82525050565b61469481614f4c565b82525050565b6146a381614f4c565b82525050565b6146b281614f56565b82525050565b60006146c3826145aa565b9150819050919050565b60006020820190506146e260008301846141ab565b92915050565b60006020820190506146fd600083018461419c565b92915050565b600060a08201905061471860008301886141ab565b61472560208301876141ab565b818103604083015261473781866141ba565b9050818103606083015261474b81856141ba565b9050818103608083015261475f8184614236565b90509695505050505050565b600060a08201905061478060008301886141ab565b61478d60208301876141ab565b61479a604083018661469a565b6147a7606083018561469a565b81810360808301526147b98184614236565b90509695505050505050565b60006040820190506147da60008301856141ab565b6147e76020830184614227565b9392505050565b6000602082019050818103600083015261480881846141ba565b905092915050565b6000604082019050818103600083015261482a81856141ba565b9050818103602083015261483e81846141ba565b90509392505050565b600060208201905061485c6000830184614218565b92915050565b60006020820190506148776000830184614227565b92915050565b60006020820190508181036000830152614897818461426f565b905092915050565b600060208201905081810360008301526148b8816142a8565b9050919050565b600060208201905081810360008301526148d8816142cb565b9050919050565b600060208201905081810360008301526148f8816142ee565b9050919050565b6000602082019050818103600083015261491881614311565b9050919050565b6000602082019050818103600083015261493881614334565b9050919050565b6000602082019050818103600083015261495881614357565b9050919050565b600060208201905081810360008301526149788161437a565b9050919050565b600060208201905081810360008301526149988161439d565b9050919050565b600060208201905081810360008301526149b8816143c0565b9050919050565b600060208201905081810360008301526149d8816143e3565b9050919050565b600060208201905081810360008301526149f881614406565b9050919050565b60006020820190508181036000830152614a1881614429565b9050919050565b60006020820190508181036000830152614a388161444c565b9050919050565b60006020820190508181036000830152614a588161446f565b9050919050565b60006020820190508181036000830152614a7881614492565b9050919050565b60006020820190508181036000830152614a98816144b5565b9050919050565b60006020820190508181036000830152614ab8816144d8565b9050919050565b60006020820190508181036000830152614ad8816144fb565b9050919050565b60006020820190508181036000830152614af88161451e565b9050919050565b60006020820190508181036000830152614b1881614541565b9050919050565b60006020820190508181036000830152614b3881614564565b9050919050565b60006020820190508181036000830152614b5881614587565b9050919050565b60006020820190508181036000830152614b78816145cd565b9050919050565b60006020820190508181036000830152614b98816145f0565b9050919050565b60006020820190508181036000830152614bb881614613565b9050919050565b60006020820190508181036000830152614bd881614636565b9050919050565b60006020820190508181036000830152614bf881614659565b9050919050565b6000602082019050614c14600083018461467c565b92915050565b6000602082019050614c2f600083018461469a565b92915050565b6000604082019050614c4a600083018561469a565b614c57602083018461469a565b9392505050565b6000602082019050614c7360008301846146a9565b92915050565b6000614c83614c94565b9050614c8f8282614fde565b919050565b6000604051905090565b600067ffffffffffffffff821115614cb957614cb86150b6565b5b602082029050602081019050919050565b600067ffffffffffffffff821115614ce557614ce46150b6565b5b602082029050602081019050919050565b600067ffffffffffffffff821115614d1157614d106150b6565b5b614d1a82615107565b9050602081019050919050565b600067ffffffffffffffff821115614d4257614d416150b6565b5b614d4b82615107565b9050602081019050919050565b6000819050602082019050919050565b600081519050919050565b600081519050919050565b600081519050919050565b6000602082019050919050565b600082825260208201905092915050565b600082825260208201905092915050565b600081905092915050565b600082825260208201905092915050565b6000614ddf82614f4c565b9150614dea83614f4c565b9250827fffffffffffffffffffffffffffffffffffffffffffffffffffffffffffffffff03821115614e1f57614e1e615058565b5b828201905092915050565b6000614e3582614f4c565b9150614e4083614f4c565b9250817fffffffffffffffffffffffffffffffffffffffffffffffffffffffffffffffff0483118215151615614e7957614e78615058565b5b828202905092915050565b6000614e8f82614f4c565b9150614e9a83614f4c565b925082821015614ead57614eac615058565b5b828203905092915050565b6000614ec382614f2c565b9050919050565b6000614ed582614f2c565b9050919050565b60008115159050919050565b6000819050919050565b60007fffffffff0000000000000000000000000000000000000000000000000000000082169050919050565b600061ffff82169050919050565b600073ffffffffffffffffffffffffffffffffffffffff82169050919050565b6000819050919050565b600067ffffffffffffffff82169050919050565b82818337600083830152505050565b60005b83811015614f97578082015181840152602081019050614f7c565b83811115614fa6576000848401525b50505050565b60006002820490506001821680614fc457607f821691505b60208210811415614fd857614fd7615087565b5b50919050565b614fe782615107565b810181811067ffffffffffffffff82111715615006576150056150b6565b5b80604052505050565b600061501a82614f4c565b91507fffffffffffffffffffffffffffffffffffffffffffffffffffffffffffffffff82141561504d5761504c615058565b5b600182019050919050565b7f4e487b7100000000000000000000000000000000000000000000000000000000600052601160045260246000fd5b7f4e487b7100000000000000000000000000000000000000000000000000000000600052602260045260246000fd5b7f4e487b7100000000000000000000000000000000000000000000000000000000600052604160045260246000fd5b600060033d11156151045760046000803e615101600051615118565b90505b90565b6000601f19601f8301169050919050565b60008160e01c9050919050565b7f455243313135353a207472616e7366657220746f206e6f6e204552433131353560008201527f526563656976657220696d706c656d656e746572000000000000000000000000602082015250565b7f455243313135353a204552433131353552656365697665722072656a6563746560008201527f6420746f6b656e73000000000000000000000000000000000000000000000000602082015250565b7f5061757361626c653a206e6f7420706175736564000000000000000000000000600082015250565b7f455243313135353a2062616c616e636520717565727920666f7220746865207a60008201527f65726f2061646472657373000000000000000000000000000000000000000000602082015250565b7f4f776e61626c653a206e6577206f776e657220697320746865207a65726f206160008201527f6464726573730000000000000000000000000000000000000000000000000000602082015250565b7f455243313135353a206275726e20616d6f756e7420657863656564732062616c60008201527f616e636500000000000000000000000000000000000000000000000000000000602082015250565b7f696e76616c696420696400000000000000000000000000000000000000000000600082015250565b7f746f6f206d616e7920746f6b656e730000000000000000000000000000000000600082015250565b7f455243313135353a2063616c6c6572206973206e6f74206f776e6572206e6f7260008201527f20617070726f7665640000000000000000000000000000000000000000000000602082015250565b7f696e76616c696420616d6f756e74000000000000000000000000000000000000600082015250565b7f416c726561647920726567697374657265640000000000000000000000000000600082015250565b7f416464726573733a20756e61626c6520746f2073656e642076616c75652c207260008201527f6563697069656e74206d61792068617665207265766572746564000000000000602082015250565b7f416464726573733a20696e73756666696369656e742062616c616e6365000000600082015250565b7f5061757361626c653a2070617573656400000000000000000000000000000000600082015250565b7f436f646520696e20757365000000000000000000000000000000000000000000600082015250565b7f455243313135353a207472616e7366657220746f20746865207a65726f20616460008201527f6472657373000000000000000000000000000000000000000000000000000000602082015250565b7f455243313135353a207472616e736665722063616c6c6572206973206e6f742060008201527f6f776e6572206e6f7220617070726f7665640000000000000000000000000000602082015250565b7f696e76616c696420636f64650000000000000000000000000000000000000000600082015250565b7f455243313135353a206275726e2066726f6d20746865207a65726f206164647260008201527f6573730000000000000000000000000000000000000000000000000000000000602082015250565b7f455243313135353a20696e73756666696369656e742062616c616e636520666f60008201527f72207472616e7366657200000000000000000000000000000000000000000000602082015250565b7f4f776e61626c653a2063616c6c6572206973206e6f7420746865206f776e6572600082015250565b7f73686f7274206f6e2066756e6473000000000000000000000000000000000000600082015250565b50565b7f455243313135353a2073657474696e6720617070726f76616c2073746174757360008201527f20666f722073656c660000000000000000000000000000000000000000000000602082015250565b7f455243313135353a206163636f756e747320616e6420696473206c656e67746860008201527f206d69736d617463680000000000000000000000000000000000000000000000602082015250565b7f455243313135353a2069647320616e6420616d6f756e7473206c656e6774682060008201527f6d69736d61746368000000000000000000000000000000000000000000000000602082015250565b7f455243313135353a206d696e7420746f20746865207a65726f2061646472657360008201527f7300000000000000000000000000000000000000000000000000000000000000602082015250565b7f5265656e7472616e637947756172643a207265656e7472616e742063616c6c00600082015250565b600060443d10156157c557615848565b6157cd614c94565b60043d036004823e80513d602482011167ffffffffffffffff821117156157f5575050615848565b808201805167ffffffffffffffff8111156158135750505050615848565b80602083010160043d038501811115615830575050505050615848565b61583f82602001850186614fde565b82955050505050505b90565b61585481614eb8565b811461585f57600080fd5b50565b61586b81614eca565b811461587657600080fd5b50565b61588281614edc565b811461588d57600080fd5b50565b61589981614ee8565b81146158a457600080fd5b50565b6158b081614ef2565b81146158bb57600080fd5b50565b6158c781614f1e565b81146158d257600080fd5b50565b6158de81614f4c565b81146158e957600080fd5b50565b6158f581614f56565b811461590057600080fd5b5056fea26469706673582212200b17b1e012569971dc21537ad88376df4323db2f06ffdea67d388bb1f4aefd4c64736f6c63430008040033608060405234801561001057600080fd5b5061002d61002261003260201b60201c565b61003a60201b60201c565b6100fe565b600033905090565b60008060009054906101000a900473ffffffffffffffffffffffffffffffffffffffff169050816000806101000a81548173ffffffffffffffffffffffffffffffffffffffff021916908373ffffffffffffffffffffffffffffffffffffffff1602179055508173ffffffffffffffffffffffffffffffffffffffff168173ffffffffffffffffffffffffffffffffffffffff167f8be0079c531659141344cd1fd0a4f28419497f9722a3daafe3b4186f6b6457e060405160405180910390a35050565b610bfc8061010d6000396000f3fe6080604052600436106100555760003560e01c806351cff8d91461005a578063715018a6146100835780638da5cb5b1461009a578063e3a9db1a146100c5578063f2fde38b14610102578063f340fa011461012b575b600080fd5b34801561006657600080fd5b50610081600480360381019061007c91906107f5565b610147565b005b34801561008f57600080fd5b506100986102c7565b005b3480156100a657600080fd5b506100af61034f565b6040516100bc9190610900565b60405180910390f35b3480156100d157600080fd5b506100ec60048036038101906100e791906107cc565b610378565b6040516100f9919061099b565b60405180910390f35b34801561010e57600080fd5b50610129600480360381019061012491906107cc565b6103c1565b005b610145600480360381019061014091906107cc565b6104b9565b005b61014f6105e2565b73ffffffffffffffffffffffffffffffffffffffff1661016d61034f565b73ffffffffffffffffffffffffffffffffffffffff16146101c3576040517f08c379a00000000000000000000000000000000000000000000000000000000081526004016101ba9061097b565b60405180910390fd5b6000600160008373ffffffffffffffffffffffffffffffffffffffff1673ffffffffffffffffffffffffffffffffffffffff1681526020019081526020016000205490506000600160008473ffffffffffffffffffffffffffffffffffffffff1673ffffffffffffffffffffffffffffffffffffffff16815260200190815260200160002081905550610275818373ffffffffffffffffffffffffffffffffffffffff166105ea90919063ffffffff16565b8173ffffffffffffffffffffffffffffffffffffffff167f7084f5476618d8e60b11ef0d7d3f06914655adb8793e28ff7f018d4c76d505d5826040516102bb919061099b565b60405180910390a25050565b6102cf6105e2565b73ffffffffffffffffffffffffffffffffffffffff166102ed61034f565b73ffffffffffffffffffffffffffffffffffffffff1614610343576040517f08c379a000000000000000000000000000000000000000000000000000000000815260040161033a9061097b565b60405180910390fd5b61034d60006106de565b565b60008060009054906101000a900473ffffffffffffffffffffffffffffffffffffffff16905090565b6000600160008373ffffffffffffffffffffffffffffffffffffffff1673ffffffffffffffffffffffffffffffffffffffff168152602001908152602001600020549050919050565b6103c96105e2565b73ffffffffffffffffffffffffffffffffffffffff166103e761034f565b73ffffffffffffffffffffffffffffffffffffffff161461043d576040517f08c379a00000000000000000000000000000000000000000000000000000000081526004016104349061097b565b60405180910390fd5b600073ffffffffffffffffffffffffffffffffffffffff168173ffffffffffffffffffffffffffffffffffffffff1614156104ad576040517f08c379a00000000000000000000000000000000000000000000000000000000081526004016104a49061091b565b60405180910390fd5b6104b6816106de565b50565b6104c16105e2565b73ffffffffffffffffffffffffffffffffffffffff166104df61034f565b73ffffffffffffffffffffffffffffffffffffffff1614610535576040517f08c379a000000000000000000000000000000000000000000000000000000000815260040161052c9061097b565b60405180910390fd5b600034905080600160008473ffffffffffffffffffffffffffffffffffffffff1673ffffffffffffffffffffffffffffffffffffffff168152602001908152602001600020600082825461058991906109d2565b925050819055508173ffffffffffffffffffffffffffffffffffffffff167f2da466a7b24304f47e87fa2e1e5a81b9831ce54fec19055ce277ca2f39ba42c4826040516105d6919061099b565b60405180910390a25050565b600033905090565b8047101561062d576040517f08c379a00000000000000000000000000000000000000000000000000000000081526004016106249061095b565b60405180910390fd5b60008273ffffffffffffffffffffffffffffffffffffffff1682604051610653906108eb565b60006040518083038185875af1925050503d8060008114610690576040519150601f19603f3d011682016040523d82523d6000602084013e610695565b606091505b50509050806106d9576040517f08c379a00000000000000000000000000000000000000000000000000000000081526004016106d09061093b565b60405180910390fd5b505050565b60008060009054906101000a900473ffffffffffffffffffffffffffffffffffffffff169050816000806101000a81548173ffffffffffffffffffffffffffffffffffffffff021916908373ffffffffffffffffffffffffffffffffffffffff1602179055508173ffffffffffffffffffffffffffffffffffffffff168173ffffffffffffffffffffffffffffffffffffffff167f8be0079c531659141344cd1fd0a4f28419497f9722a3daafe3b4186f6b6457e060405160405180910390a35050565b6000813590506107b181610b98565b92915050565b6000813590506107c681610baf565b92915050565b6000602082840312156107de57600080fd5b60006107ec848285016107a2565b91505092915050565b60006020828403121561080757600080fd5b6000610815848285016107b7565b91505092915050565b61082781610a28565b82525050565b600061083a6026836109c1565b915061084582610aa5565b604082019050919050565b600061085d603a836109c1565b915061086882610af4565b604082019050919050565b6000610880601d836109c1565b915061088b82610b43565b602082019050919050565b60006108a36020836109c1565b91506108ae82610b6c565b602082019050919050565b60006108c66000836109b6565b91506108d182610b95565b600082019050919050565b6108e581610a6c565b82525050565b60006108f6826108b9565b9150819050919050565b6000602082019050610915600083018461081e565b92915050565b600060208201905081810360008301526109348161082d565b9050919050565b6000602082019050818103600083015261095481610850565b9050919050565b6000602082019050818103600083015261097481610873565b9050919050565b6000602082019050818103600083015261099481610896565b9050919050565b60006020820190506109b060008301846108dc565b92915050565b600081905092915050565b600082825260208201905092915050565b60006109dd82610a6c565b91506109e883610a6c565b9250827fffffffffffffffffffffffffffffffffffffffffffffffffffffffffffffffff03821115610a1d57610a1c610a76565b5b828201905092915050565b6000610a3382610a4c565b9050919050565b6000610a4582610a4c565b9050919050565b600073ffffffffffffffffffffffffffffffffffffffff82169050919050565b6000819050919050565b7f4e487b7100000000000000000000000000000000000000000000000000000000600052601160045260246000fd5b7f4f776e61626c653a206e6577206f776e657220697320746865207a65726f206160008201527f6464726573730000000000000000000000000000000000000000000000000000602082015250565b7f416464726573733a20756e61626c6520746f2073656e642076616c75652c207260008201527f6563697069656e74206d61792068617665207265766572746564000000000000602082015250565b7f416464726573733a20696e73756666696369656e742062616c616e6365000000600082015250565b7f4f776e61626c653a2063616c6c6572206973206e6f7420746865206f776e6572600082015250565b50565b610ba181610a28565b8114610bac57600080fd5b50565b610bb881610a3a565b8114610bc357600080fd5b5056fea26469706673582212206c23887f41f7dd4b28c583089d6f8165af841a69b9a1b27136c2c0e71af939d164736f6c63430008040033697066733a2f2f516d6578566b487152626a7a4c383466414e52325746523469465673484b4e75317062706e4e315875615558416b697066733a2f2f516d576542734b335a5651354c7368326854675179724c66676e6f73345a35636536596375353761365675574754697066733a2f2f516d525559317235765859355368317774504b434e6d53587774357065574a7a524132373138745a6b535a72786f",
  "linkReferences": {},
  "deployedLinkReferences": {}
}